:100000000C948B000C94B3000C94B3000C94B300CC
:100010000C94B3000C94B3000C94B3000C94F0084F
:100020000C94B3000C94B3000C94B3000C94150C16
:100030000C94B3000C94B3000C94B3000C94B30074
:100040000C94DD0E0C94B3000C9498090C94720976
:100050000C94B3000C94B3000C94B3000C94B30054
:100060000C94B3000C94B300CC11FF114E129F12EC
:10007000F01279132614B914BC14ED14DB15DB153A
:10008000DB15ED14DB15DB15DB15DB15DB15DB15DF
:10009000F714DB15DB15DB15DB15DB15DB15DB15C5
:1000A000DB15DB15911500010203040500000000BB
:1000B0002300260029000A0B0C0D0E0F0000000083
:1000C000240027002A0001020408102040800102B9
:1000D0000408102001020408102000000000250080
:1000E00028002B0004040404040404040202020295
:1000F0000202030303030303021112131415160073
:1001000000000800020100000304070000000000D6
:1001100000000000E71811241FBECFEFD8E0DEBFBB
:10012000CDBF12E0A0E0B1E0EEE3F9E302C005903C
:100130000D92A23CB107D9F725E0A2ECB2E001C0D4
:100140001D92AC31B207E1F710E0CBE8D0E004C07B
:100150002197FE010E94DA1BCA38D107C9F70E9415
:100160006C0F0C949D1C0C940000009769F0FC012E
:1001700001900020E9F73197AF01481B590BBC01F2
:1001800089EC92E00C94E40780E090E0089566E446
:1001900070E083EA93E00E941A0B6EE670E089EA51
:1001A00093E00E941A0B6EE670E08FEA93E00E94E3
:1001B0001A0B66E470E085EB93E00E941A0B66E48C
:1001C00070E086EA93E00E941A0B6EE670E08CEA1B
:1001D00093E00E941A0B6EE670E082EB93E00E94BF
:1001E0001A0B66E470E088EB93E00C941A0B3F92D4
:1001F0004F925F926F927F928F929F92AF92BF9237
:10020000CF92DF92EF92FF920F931F93CF93DF93E2
:10021000CDB7DEB728970FB6F894DEBF0FBECDBFBF
:1002200029013A010115110511F401E010E02091B6
:100230000001223021F02F3F09F0D3C104C0E8EFC4
:10024000F0E0349076C022E020930001E8EFF0E087
:10025000E491EF3F09F4C5C1E13011F1E23009F456
:1002600043C0E11165C014BC15BC24B5226024BD97
:1002700025B5216025BDE6EEF0E0E491F0E0EE0F5B
:10028000FF1FE652FF4F259134913093E4042093F1
:10029000E304E8ECF0E0E491E093E204312C4BC09D
:1002A000109280001092810020918100286020939C
:1002B000810020918100216020938100E6EEF0E032
:1002C000E491F0E0EE0FFF1FE652FF4F25913491CD
:1002D0003093E1042093E004E8ECF0E0E491E09353
:1002E000DF043324339427C01092B0001092B10081
:1002F0002091B00022602093B0002091B1002160D5
:100300002093B100E6EEF0E0E491F0E0EE0FFF1F85
:10031000E652FF4F259134913093C4022093C302DB
:10032000E8ECF0E0E491E093C202E2E03E2E03C08C
:100330003E2E37FC56C10E94601C6D837E838F83E6
:10034000988761E082E00E94B80D8D819E814C010A
:10035000A12CB12C832D8D7F09F0BBC060E072E130
:100360008AE790E0A50194010E946B1B29833A83E0
:100370004B835C8369017A0191E0C91AD108E108D5
:10038000F108EFEFCE16D104E104F10409F008F40E
:100390004CC060E472E48FE090E0A50194010E94FB
:1003A0006B1B69017A01F1E0CF1AD108E108F1086D
:1003B00022E0321220C08FEFC816D104E104F1040C
:1003C00009F008F48BC160E970ED83E090E0A501CD
:1003D00094010E946B1B69017A0191E0C91AD1084E
:1003E000E108F108EFEFCE16D104E104F10409F0C1
:1003F000D0F583E067C0FFEFCF16D104E104F1042C
:10040000B1F0A8F068E478EE81E090E0A5019401F5
:100410000E946B1B69017A0181E0C81AD108E108CA
:10042000F108332009F438C12EC181E001C082E017
:100430003320A1F047C089819A81AB81BC812AE039
:10044000B595A795979587952A95D1F76C017D016C
:10045000E1E0CE1AD108E108F10885E095B5987F72
:10046000892B85BD6FC068E478EE81E090E0A5013E
:1004700094010E946B1B69017A01E1E0CE1AD10858
:10048000E108F108FFEFCF16D104E104F10409F00F
:1004900008F4C8C064E274EF80E090E0A501940124
:1004A0000E946B1B69017A0191E0C91AD108E10829
:1004B000F108EFEFCE16D104E104F10411F008F0D9
:1004C000B3C085E09091B100987F892B8093B100F3
:1004D00039C060E072E18AE790E0A50194010E94D2
:1004E0006B1B69017A0181E0C81AD108E108F108A3
:1004F000C114D10491E0E906F10488F068E478EED3
:1005000081E090E0A50194010E946B1B69017A01D2
:10051000E1E0CE1AD108E108F10893E001C091E0D2
:10052000F1E03F120FC080918100887F892B80937A
:100530008100411451046104710449F42FEF3FEF2D
:10054000A9012EC0411451046104710479F0AD81F8
:10055000BE81AA0FBB1FA30192010E948A1B28EE35
:1005600033E040E050E00E949D1B03C02FEF3FEFBF
:10057000A90181E03816A1F092E0391619F1311085
:1005800030C0C7BC2093E9043093EA044093EB04E5
:100590005093EC0480916E00826080936E0021C0C5
:1005A000D0928900C09288002093E5043093E6043D
:1005B0004093E7045093E80480916F008260809339
:1005C0006F000FC0C092B3002093C5023093C602E3
:1005D0004093C7025093C80280917000826080935C
:1005E0007000C301B2010E94160EB801110F880BF2
:1005F000990B28960FB6F894DEBF0FBECDBFDF91E2
:10060000CF911F910F91FF90EF90DF90CF90BF900F
:10061000AF909F908F907F906F905F904F903F90A2
:100620000C94160E84E04ECF62E17AE780E090E011
:10063000A50194010E946B1B69017A0181E0C81A2F
:10064000D108E108F1089FEFC916D104E104F104D3
:10065000C1F0B8F089819A81AB81BC814AE0B5953F
:10066000A795979587954A95D1F76C017D01F1E0A3
:10067000CF1AD108E108F108332009F4EECE87E063
:1006800021CF86E0D5CEEFEFCE16D104E104F10400
:1006900009F050F684E0CCCE8FEFC816D104E10407
:1006A000F104D1F0C8F062E17AE780E090E0A501C2
:1006B00094010E946B1B69017A01F1E0CF1AD10805
:1006C000E108F1082FEFC216D104E104F10411F0A2
:1006D00008F0B1CE84E0C2CE83E0C0CE82E0F2CE9C
:1006E00082EA92E00C94B5008F929F92AF92BF92F3
:1006F0000F931F93CF93DF93CDB7DEB7A1970FB6BC
:10070000F894DEBF0FBECDBF19A2423008F44AE014
:100710008E010F5D1F4F842E912CA12CB12CA501B1
:1007200094010E949D1BE62FB901CA0101501109D5
:10073000EA3014F4E05D01C0E95CD801EC93232BAE
:10074000242B252B61F7C8010E94B500A1960FB696
:10075000F894DEBF0FBECDBFDF91CF911F910F91F7
:10076000BF90AF909F908F900895CF93DF93BC017F
:1007700080E090E04AE00E947403EC010E94700364
:100780008C0F9D1FDF91CF9108950C94B500CF93EE
:10079000DF930E94B500EC010E9470038C0F9D1F37
:1007A000DF91CF910895DF92EF92FF920F931F9305
:1007B000CF93DF93CDB7DEB760970FB6F894DEBF67
:1007C0000FBECDBF90938D0380938C0300917E0369
:1007D00010917F03F80180819181228133818217FA
:1007E000930719F061E00E94B80DF80182819381AE
:1007F000208131812817390719F061E00E94B80D76
:10080000FFB6F8948091DE04811127C0EEEEF0E08F
:100810008491E0EDF0E09491E82FF0E0EE0FFF1FFF
:10082000E454FF4FA591B491EC91E92321F461E0E8
:100830008AE00E94880D61E08AE00E94B80D8CB5C4
:1008400080618CBD8CB580648CBD61E08DE00E94C0
:10085000B80D61E08BE00E94B80D8091DE048F5FDF
:100860008093DE04FFBE60E0C8010E94CA0961E017
:10087000C8010E94D60965E070E080E090E00E9427
:10088000160E4CE060E0C8010E941A0A4FE564E0D1
:10089000C8010E941A0A66E0C8010E94750A877D95
:1008A0008062F82E8BE990E0A0E0B0E0F801808B48
:1008B000918BA28BB38B4F2D66E0C8010E941A0A60
:1008C00066E0C8010E94750A8F1509F47DC066E0D4
:1008D000C8010E94750A66E0C8010E94750A45E5D4
:1008E00050E060E070E0F801408B518B628B738BBD
:1008F000482F477D66E0C8010E941A0A66E0C801D9
:100900000E94750AC8010E94F10980E50E94F4095D
:1009100083E70E94F409C8010E94EE0940E06DE1FE
:10092000C8010E941A0A40E06CE1C8010E941A0A3C
:10093000F801108640E767E0C8010E941A0A4CE4FB
:1009400065E0C8010E941A0A62EEC8010E94FB0914
:10095000C8010E94170AC8010E94BB0A60E0C801D2
:100960000E94750A482F4E7F60E0C8010E941A0A53
:1009700085EA92E00E94C70363E080917E03909134
:100980007F030E94750A8150833050F421C01730D4
:1009900008F49BC080917E0390917F030E94D40A4B
:1009A00068EE73E080E090E00E94160E60960FB64D
:1009B000F894DEBF0FBECDBFDF91CF911F910F9195
:1009C000FF90EF90DF90089581E0F80186837FCF5C
:1009D000409193034E3708F04DE765E080917E0328
:1009E00090917F030E941A0A00917E0310917F0369
:1009F0006DE1C8010E94750A482F44606DE1C8018D
:100A00000E941A0A6CE1C8010E94750A482F4F63C0
:100A10006CE1C8010E941A0A81E0F8018087E09029
:100A20007E03F0907F03B0919803A0919903F09119
:100A30009A03E0919B0390919C0380919D03009108
:100A40008C0310918D0309871A87BB87AC87FD87BC
:100A5000EE879F87888BE7EBF0E06491F7012685AE
:100A6000AE01475F5F4FC7010E943E0A61E0C701C8
:100A70000E94950A10919203E0907E03F0907F030C
:100A8000D090980300919903B0919A03A0919B0391
:100A9000F0919C03E0919D0320919003309191038C
:100AA00029833A83DB820C83BD83AE83FF83E8878F
:100AB00011116DCFF701468550E0BE016F5F7F4F8A
:100AC000C70109960E94941C02C0113041F4E12F25
:100AD000F0E0EA54FF4F6491F701268506C0E12F4C
:100AE000F0E0EA54FF4F649121E0AE014F5F5F4FA9
:100AF000C7010E943E0A612FC7010E94950A4ACF92
:100B0000CF92DF92EF92FF926C0168E270E086EA8A
:100B100093E00E941A0B68E270E088EB93E00E9479
:100B20001A0B0D2C000CEE08FF08C701B6010E943D
:100B3000160E6CE370E083EA93E00E941A0B6CE3FC
:100B400070E085EB93E00E941A0B68E770E089EA99
:100B500093E00E941A0B68E770E08FEA93E00E942E
:100B60001A0BC701B6010E94160E6AE570E086EA0C
:100B700093E00E941A0B6AE570E088EB93E00E9414
:100B80001A0BC701B6010E94160E6CE870E08CEAE1
:100B900093E00E941A0B6CE870E082EB93E00E94F5
:100BA0001A0BC701B6010E94160E68E770E083EACF
:100BB00093E00E941A0B68E770E085EB93E00E94D7
:100BC0001A0B6CE370E089EA93E00E941A0B6CE365
:100BD00070E08FEA93E00E941A0BC701B6010E94F1
:100BE000160E6AE570E08CEA93E00E941A0B6AE543
:100BF00070E082EB93E00E941A0BC701B601FF90F0
:100C0000EF90DF90CF900C94160E0F931F9360E03F
:100C10008091D3030E94880D83E090E00197F1F763
:100C200061E08091D3030E94880D83E290E00197F8
:100C3000F1F760E08091D3030E94880D8091D50385
:100C40009091D6039927FC01EA53FF4F6491FC0170
:100C5000EC51FF4FE491F0E0EE0FFF1FE455FF4F22
:100C6000859194910091D7031091D8032091D903D5
:100C70003091DA033F70462F0E94270F61157105EE
:100C80008105910549F0DC01CB010196A11DB11D43
:100C9000BC01CD019F7003C060E070E0CB010E94F9
:100CA000361A6093DB037093DC038093DD0390932B
:100CB000DE0320E030E0A9010E94311A811112C048
:100CC0006091D7037091D8038091D9039091DA0392
:100CD0000E94381A6093DB037093DC038093DD037A
:100CE0009093DE036091DB037091DC038091DD0360
:100CF0009091DE030E94591C1F910F910895CF928D
:100D0000DF92EF92FF926C016CE870E08CEA93E066
:100D10000E941A0B6CE870E082EB93E00E941A0BC1
:100D20000D2C000CEE08FF08C701B6010E94160E3C
:100D300068E770E089EA93E00E941A0B68E770E0C8
:100D40008FEA93E00E941A0B6CE370E083EA93E071
:100D50000E941A0B6CE370E085EB93E00E941A0B83
:100D6000C701B6010E94160E6AE570E08CEA93E0B6
:100D70000E941A0B6AE570E082EB93E00E941A0B66
:100D8000C701B6010E94160E68E270E086EA93E0A1
:100D90000E941A0B68E270E088EB93E00E941A0B45
:100DA000C701B6010E94160E6CE370E089EA93E079
:100DB0000E941A0B6CE370E08FEA93E00E941A0B1A
:100DC00068E770E083EA93E00E941A0B68E770E03E
:100DD00085EB93E00E941A0BC701B6010E94160E24
:100DE0006AE570E086EA93E00E941A0B6AE570E01B
:100DF00088EB93E00E941A0BC701B601FF90EF90B9
:100E0000DF90CF900C94160ECF92DF92EF92FF926C
:100E10006C0168E270E086EA93E00E941A0B0D2CE8
:100E2000000CEE08FF08C701B6010E94160E68E22A
:100E300070E083EA93E00E941A0BC701B6010E949A
:100E4000160E6AE570E086EA93E00E941A0B6CE3E6
:100E500070E089EA93E00E941A0B68E270E088EB88
:100E600093E00E941A0BC701B6010E94160E6CE8AF
:100E700070E085EB93E00E941A0BC701B6010E9457
:100E8000160E6AE570E088EB93E00E941A0B6CE3A3
:100E900070E085EB93E00E941A0B6CE870E08CEA3E
:100EA00093E00E941A0BC701B6010E94160E6CE86F
:100EB00070E089EA93E00E941A0BC701B6010E9414
:100EC000160E6AE570E08CEA93E00E941A0B68E760
:100ED00070E083EA93E00E941A0B6CE870E082EB0A
:100EE00093E00E941A0BC701B6010E94160E68E239
:100EF00070E08FEA93E00E941A0BC701B6010E94CE
:100F0000160E6AE570E082EB93E00E941A0B68E728
:100F100070E08FEA93E0FF90EF90DF90CF900C9419
:100F20001A0BEF92FF920F931F93CF93DF938C01D5
:100F30007B01EC01CE01801B910B8E159F0564F4A3
:100F4000699170E080E090E040E10E94740380ECE1
:100F500092E00E94C503EECFDF91CF911F910F91D8
:100F6000FF90EF900C9470036AE570E083EA93E0E1
:100F70000E941A0B6AE570E089EA93E00E941A0B5E
:100F80006AE570E08FEA93E00E941A0B6AE570E070
:100F900085EB93E00E941A0B6AE570E086EA93E025
:100FA0000E941A0B6AE570E08CEA93E00E941A0B2B
:100FB0006AE570E082EB93E00E941A0B6AE570E04C
:100FC00088EB93E00C941A0BCF92DF92EF92FF9292
:100FD0000F931F93CF93DF936C017A018B01C0E0D5
:100FE000D0E0CE15DF0589F0D8016D918D01D601D5
:100FF000ED91FC910190F081E02DC6010995892BBE
:1010000011F47E0102C02196ECCFC701DF91CF9190
:101010001F910F91FF90EF90DF90CF90089508956A
:1010200080E090E00895FC01538D448D252F30E041
:10103000842F90E0821B930B541710F0CF960895E5
:1010400001970895FC01918D828D981761F0828D32
:10105000DF01A80FB11D5D968C91928D9F5F9F73EC
:10106000928F90E008958FEF9FEF0895FC01918D8E
:10107000828D981731F0828DE80FF11D858D90E0FB
:1010800008958FEF9FEF0895FC01918D228D892F98
:1010900090E0805C9F4F821B91098F739927089580
:1010A00089EC92E00E94440821E0892B09F420E0B9
:1010B000822F0895FC01848DDF01A80FB11DA35A72
:1010C000BF4F2C91848D90E001968F739927848F68
:1010D000A689B7892C93A089B1898C9180648C935F
:1010E000938D848D981306C00288F389E02D80814A
:1010F0008F7D80830895EF92FF920F931F93CF937C
:10110000DF93EC0181E0888F9B8D8C8D981305C057
:10111000E889F989808185FD24C0F62E0B8D10E0C9
:101120000F5F1F4F0F731127E02E8C8DE8120CC03C
:101130000FB607FCFACFE889F989808185FFF5CFE2
:10114000CE010E945A08F1CF8B8DFE01E80FF11DF0
:10115000E35AFF4FF0820B8FEA89FB89808180621E
:1011600007C0EE89FF896083E889F98980818064FE
:10117000808381E090E0DF91CF911F910F91FF90EC
:10118000EF900895CF93DF93EC01888D8823C9F009
:10119000EA89FB89808185FD05C0A889B9898C9180
:1011A00086FD0FC00FB607FCF5CF808185FFF2CF1B
:1011B000A889B9898C9185FFEDCFCE010E945A088C
:1011C000E7CFDF91CF91089580E090E0892B29F05F
:1011D0000E94500881110C94000008950E948F1CF9
:1011E0001F920F920FB60F9211242F933F934F939C
:1011F0005F936F937F938F939F93AF93BF93EF937F
:10120000FF938091C5029091C602A091C702B09150
:10121000C802892B8A2B8B2B59F18091C202E09155
:10122000C302F091C4029081892780838091C50216
:101230009091C602A091C702B091C8021816190673
:101240001A061B060CF03DC08091C5029091C602A3
:10125000A091C702B091C8020197A109B10980937A
:10126000C5029093C602A093C702B093C80229C0DA
:1012700080910001E8EFF0E0E4919FEF909300018E
:10128000E130B9F098F0E230C9F4909170009D7FA0
:101290009093700091E09093B0009091B100987F8E
:1012A00094609093B1001092B30008C010926E0049
:1012B00005C090916F009D7F90936F0060E00E9449
:1012C000880DFF91EF91BF91AF919F918F917F9189
:1012D0006F915F914F913F912F910F900FBE0F90A3
:1012E0001F9018951F920F920FB60F9211242F93F3
:1012F0003F934F935F936F937F938F939F93AF939E
:10130000BF93EF93FF9389EC92E00E945A08FF91FC
:10131000EF91BF91AF919F918F917F916F915F916D
:101320004F913F912F910F900FBE0F901F901895E6
:101330001F920F920FB60F9211242F938F939F93AA
:10134000EF93FF93E091D902F091DA028081E0916E
:10135000DF02F091E00282FD12C090818091E202F2
:101360008F5F8F732091E302821751F0E091E202C8
:10137000F0E0E753FD4F958F8093E20201C080813A
:10138000FF91EF919F918F912F910F900FBE0F9032
:101390001F901895FC01208131818281938128174B
:1013A000390719F0822F0C94880D0895CF93DF939D
:1013B000EC019CB59F7D9CBD9CB5937F9CBD9CB56D
:1013C0009C7F9CBD9DB591609DBD8A810E94880DCA
:1013D0008C899D89DF91CF910C940B0E61E00C9468
:1013E000D60960E00C94D6098EBD00000DB407FE4E
:1013F000FDCF8EB50895EF92FF921F93CF93DF93A9
:101400001F92CDB7DEB77C0169830E94F109698123
:10141000862F0E94F409182FC7010E94EE09812F20
:101420000F90DF91CF911F91FF90EF90089561EEA3
:101430000C94FB09EF92FF921F93CF93DF9300D0A0
:10144000CDB7DEB77C014A8369830E94F1096981C7
:10145000862F8F7180620E94F409182F4A81842F91
:101460000E94F409C7010E94EE09812F0F900F908E
:10147000DF91CF911F91FF90EF900895CF92DF926F
:10148000EF92FF920F931F93CF93DF9300D01F92A1
:10149000CDB7DEB77C01142F2A835B8369830E945A
:1014A000F1096981862F8F7180620E94F409082FEB
:1014B000C12E5B81D52E2A81120F1C1531F0F60149
:1014C00081916F010E94F409F8CFC7010E94EE09D3
:1014D000802F0F900F900F90DF91CF911F910F9160
:1014E000FF90EF90DF90CF900895EF92FF921F93BF
:1014F000CF93DF931F92CDB7DEB77C0169830E9443
:10150000F1096981862F8F710E94F4098FEF0E9483
:10151000F409182FC7010E94EE09812F0F90DF9167
:10152000CF911F91FF90EF9008950F931F93CF934A
:10153000DF938C01C62FD0E0FE01E750FF4F64918E
:10154000FC0147810E941A0A62E0C8010E94750AE4
:10155000FE01EA55FF4FE49141E050E001C0440F25
:10156000EA95EAF7482B62E0C801DF91CF911F911D
:101570000F910C941A0ACF93DF93EC0160E00E9464
:10158000750A81FD0EC0482F426060E0CE010E94C6
:101590001A0A65E070E080E090E0DF91CF910C9452
:1015A000160EDF91CF910895CF93DF93EC010E9447
:1015B000BB0A60E0CE010E94750A482F416060E0DE
:1015C000CE010E941A0A40E767E0CE010E941A0A83
:1015D00061E0CE010E94CA098985882349F02E85E1
:1015E000AE01475F5F4F6AE0CE010E943E0A14C021
:1015F00062E0CE010E94750AE6EAF0E0E49121E0A3
:1016000030E001C0220FEA95EAF72095422F4823E7
:1016100062E0CE010E941A0A6DE1CE010E94750AB5
:1016200081FF05C0CE01DF91CF910C94170ADF91A5
:10163000CF910895CF92DF92EF92FF92CF93DF93F5
:10164000EC01603282E078070CF03DC077FD06C007
:10165000653B71052CF064EB70E002C060E070E067
:10166000898128E830E06901C81AD10887FDD39440
:10167000CC0CDD1CCC0CDD1C0D2C000CEE08FF0886
:101680008A8128E532E0281B310987FD3395220F36
:10169000331F220F331FC901330FAA0BBB0B9C0151
:1016A000AD012C193D094E095F09DB010E94951B14
:1016B00024EB30E040E050E00E946B1BC20ED31ED2
:1016C000E41EF51EB60188818C3080F5998148E8CA
:1016D00050E0491B510997FD5395440F551F440F86
:1016E000551F6417750784F09A8128E532E0291B9D
:1016F000310997FD3395220F331F220F331FAB01A2
:10170000261737070CF4A90142505109440F551F01
:101710002FB7F89490E0FC01EE0FFF1F8E0F9F1F74
:10172000FC01E151FB4F528341832FBFDF91CF91E9
:10173000FF90EF90DF90CF9008951F93CF93DF93AA
:10174000EC01162F88818C3008F04EC061E0812FAB
:101750000E94B80D8881E82FF0E09F01220F331F0F
:10176000E20FF31FE151FB4F1F739081907C192B07
:10177000108319821A826CE00E94CE1B9CE0899F24
:10178000B001112440E050E09A01260F371FF90103
:10179000EE0FFF1F2E0F3F1FF901E151FB4F90810C
:1017A00096FD16C04F5F5F4F4C30510569F78111B0
:1017B0000FC01092800082E080938100109285001B
:1017C00010928400B19A80916F00826080936F00C4
:1017D000E881F0E0CF01880F991FE80FF91FE15170
:1017E000FB4F8081806480838881DF91CF911F913E
:1017F0000895FC019091EE049C30A0F481E0890FE3
:101800008093EE049083892F90E0FC01EE0FFF1F80
:101810008E0F9F1FFC01E151FB4F88EB9BE09283F1
:10182000818308958FEF808308951F920F920FB6E2
:101830000F9211242F933F934F935F936F937F9356
:101840008F939F93AF93BF93EF93FF938091ED049A
:1018500087FF05C010928500109284001BC0209164
:10186000ED04022E000C330B8091EE0490E028175B
:10187000390784F48091ED04082E000C990BFC01CB
:10188000EE0FFF1F8E0F9F1FFC01E151FB4F808168
:1018900086FD15C08091ED048F5F8093ED0420914B
:1018A000ED04022E000C330B8091EE0490E028171B
:1018B0003907C4F48091ED048C3064F113C0809139
:1018C000ED04082E000C990BFC01EE0FFF1F8E0F8C
:1018D0009F1FFC01E151FB4F808160E08F730E94EC
:1018E000880DD8CF80918400909185000496803433
:1018F0009C4918F480E49CE905C080918400909193
:101900008500049690938900809388008FEF8093E0
:10191000ED043BC020918400309185008091ED045E
:10192000082E000C990BFC01EE0FFF1F8E0F9F1F5E
:10193000FC01E151FB4F81819281820F931F9093B3
:101940008900809388008091ED04082E000C990B8B
:10195000FC01EE0FFF1F8E0F9F1FFC01E151FB4F9B
:10196000808186FF12C08091ED04082E000C990B37
:10197000FC01EE0FFF1F8E0F9F1FFC01E151FB4F7B
:10198000808161E08F730E94880DFF91EF91BF917C
:10199000AF919F918F917F916F915F914F913F9107
:1019A0002F910F900FBE0F901F901895833081F0EC
:1019B00028F4813099F08230A1F008958730A9F0A1
:1019C0008830B9F08430D1F4809180008F7D03C0DD
:1019D000809180008F7780938000089584B58F7701
:1019E00002C084B58F7D84BD08958091B0008F774B
:1019F00003C08091B0008F7D8093B00008953FB701
:101A0000F8948091180590911905A0911A05B0914C
:101A10001B0526B5A89B05C02F3F19F00196A11DF7
:101A2000B11D3FBFBA2FA92F982F8827820F911D74
:101A3000A11DB11DBC01CD0142E0660F771F881FBB
:101A4000991F4A95D1F708950F931F93CF93DF9372
:101A5000EB01ABE4B4E00D911C91119798012A5968
:101A60003C4FA901475F5E4F62E0FA016083AE011F
:101A7000BC014093D0045093D1046093D20470937E
:101A8000D304C901865F9E4FFC01C083E901C55F95
:101A9000DE4F8091D104888321968091D20488837F
:101AA0008091D304F8013596ED93FC93F901E35F3F
:101AB000FE4F8083DF91CF911F910F910895CF93B7
:101AC000DF93282F30E0F901E150FF4F8491F901B5
:101AD000EA53FF4FD491F901EC51FF4FC491CC234D
:101AE00091F081110E94D60CEC2FF0E0EE0FFF1F59
:101AF000E455FF4FA591B491EC91ED2381E090E086
:101B000021F480E002C080E090E0DF91CF91089561
:101B10001F93CF93DF93282F30E0F901E150FF4F5F
:101B20008491F901EA53FF4FD491F901EC51FF4F31
:101B3000C491CC23C9F0162F81110E94D60CEC2F32
:101B4000F0E0EE0FFF1FE652FF4FA591B4918FB763
:101B5000F894111105C09C91ED2FE095E92302C086
:101B6000EC91ED2BEC938FBFDF91CF911F910895F6
:101B7000CF93DF9390E0FC01EA53FF4F2491FC01E7
:101B8000EC51FF4F8491882361F190E0880F991FF9
:101B9000FC01E454FF4FC591D491FC01E652FF4F84
:101BA000A591B491611109C09FB7F89488812095DF
:101BB00082238883EC912E230BC0623061F49FB79F
:101BC000F8943881822F809583238883EC912E2B83
:101BD0002C939FBF06C08FB7F894E8812E2B2883E3
:101BE0008FBFDF91CF9108958E3008F08E508770AF
:101BF000806480937C0080917A00806480937A0076
:101C000080917A0086FDFCCF809178002091790048
:101C100090E0922B08958230910538F0880F991F3B
:101C2000880F991F05970197F1F708958F929F925A
:101C3000AF92BF92CF92DF92EF92FF926B017C0145
:101C40000E94FF0C4B015C01C114D104E104F104BA
:101C5000F1F00E94FF0CDC01CB0188199909AA0957
:101C6000BB09883E9340A105B10570F321E0C21A7B
:101C7000D108E108F10888EE880E83E0981EA11CC7
:101C8000B11CC114D104E104F10419F7DDCFFF90B8
:101C9000EF90DF90CF90BF90AF909F908F9008957E
:101CA000CF92DF92EF92FF926C0168E270E088EBD6
:101CB00093E00E941A0B0D2C000CEE08FF08C701E0
:101CC000B6010E94160E68E270E085EB93E00E9478
:101CD0001A0BC701B6010E94160E6AE570E088EB88
:101CE00093E00E941A0B68E770E089EA93E00E9493
:101CF0001A0B68E270E086EA93E00E941A0BC701B3
:101D0000B6010E94160E6CE870E083EA93E00E9430
:101D10001A0BC701B6010E94160E6AE570E086EA4A
:101D200093E00E941A0B68E770E085EB93E00E9455
:101D30001A0B6CE870E082EB93E00E941A0BC7016B
:101D4000B6010E94160E6CE870E08FEA93E00E94E4
:101D50001A0BC701B6010E94160E6AE570E082EB0D
:101D600093E00E941A0B6CE370E083EA93E00E9418
:101D70001A0B6CE870E08CEA93E00E941A0BC70122
:101D8000B6010E94160E68E270E089EA93E00E94B4
:101D90001A0BC701B6010E94160E6AE570E08CEAC4
:101DA00093E00E941A0B6CE370E08FEA93E0FF90DF
:101DB000EF90DF90CF900C941A0B1F920F920FB6FA
:101DC0000F9211242F933F938F939F93AF93BF93C1
:101DD0008091130590911405A0911505B0911605F9
:101DE0003091170523E0230F2D3720F40196A11D14
:101DF000B11D05C026E8230F0296A11DB11D209339
:101E000017058093130590931405A0931505B093BF
:101E100016058091180590911905A0911A05B091A9
:101E20001B050196A11DB11D8093180590931905FE
:101E3000A0931A05B0931B05BF91AF919F918F910D
:101E40003F912F910F900FBE0F901F901895CF923A
:101E5000DF92EF92FF920F931F93E82FF92F05C0A7
:101E6000015011092109310961F1908196239417DC
:101E7000B9F305C0015011092109310911F190810F
:101E800096239413F7CFC12CD12CE12CF12C0AC04E
:101E90008FEFC81AD80AE80AF80A0C151D052E0596
:101EA0003F0579F080818623841791F36C2D7D2D79
:101EB0008E2D9F2D1F910F91FF90EF90DF90CF906F
:101EC000089560E070E080E090E01F910F91FF9036
:101ED000EF90DF90CF900895CF93DF93CDB7DEB72B
:101EE0002A970FB6F894DEBF0FBECDBF789484B5A5
:101EF000826084BD84B5816084BD85B5826085BD06
:101F000085B5816085BD80916E00816080936E0093
:101F10001092810080918100826080938100809185
:101F20008100816080938100809180008160809336
:101F300080008091B10084608093B1008091B000F6
:101F400081608093B00080917A00846080937A00F1
:101F500080917A00826080937A0080917A0081601B
:101F600080937A0080917A00806880937A00109242
:101F7000C10062E082E10E94B80D61E082E00E944F
:101F8000B80D61E08EE00E94B80D60E08FE00E9425
:101F9000B80D63E070E083EA93E00E949D0B64E07B
:101FA00070E086EA93E00E949D0B65E070E089EAAC
:101FB00093E00E949D0B66E070E08CEA93E00E9443
:101FC0009D0B67E070E08FEA93E00E949D0B68E054
:101FD00070E082EB93E00E949D0B69E070E085EB7E
:101FE00093E00E949D0B6AE070E088EB93E00E9412
:101FF0009D0BE091D902F091DA0282E08083E091BA
:10200000D502F091D6021082E091D702F091D80269
:1020100080E180831092E102E091DD02F091DE0226
:1020200086E08083E091DB02F091DC0280818061B8
:102030008083E091DB02F091DC0280818860808304
:10204000E091DB02F091DC02808180688083E09186
:10205000DB02F091DC0280818F7D808383E291E05E
:102060000E94C70380E090E00E94551B182F81E07A
:1020700090E00E94551B282F30E0322F2227C90103
:10208000810F911D9093EE038093ED0382E090E029
:102090000E94551B182F83E090E00E94551B282FAB
:1020A00030E0322F2227C901810F911D9093F00358
:1020B0008093EF0389E391E00E94C5038091ED03D3
:1020C0009091EE030E94B5038091ED039091EE0391
:1020D0000E94D30381E08093F70386E491E00E949D
:1020E000C5038091ED039091EE030E94B5030EE1CC
:1020F00010E022E330E040E050E064EA70ED84E27A
:1021000094E40E94F70009E110E027E330E040E0AA
:1021100050E062E570ED84EA94E40E94F7000AE082
:1021200010E02CE330E040E050E060E070E08CED47
:1021300094E40E94F7000E94C70010E2812E13E091
:10214000912EA12CB12C04EBE02EF12C8091F70301
:10215000882309F442C02FB7F89460911305709159
:10216000140580911505909116052FBF0E94361A0F
:102170006093E7037093E8038093E9039093EA0385
:102180008CE591E00E94C50340909E0350909F0310
:10219000052C000C6608770877FE14C0E091C90290
:1021A000F091CA020190F081E02D6DE289EC92E09D
:1021B000099566277727CB01641975098609970960
:1021C0004AE003C04AE0C301B2010E94740387E6FB
:1021D00091E00E94C7031092F70380919E039091B3
:1021E0009F0381309105D1F01CF4892B49F062C620
:1021F0008430910509F4FCC5059709F419C55AC640
:10220000109204041092030467E180917E03909180
:102210007F030E94750A80FF37C74FC610924C0497
:1022200010924B0410924704809152048093A304AF
:10223000E09154042E2E312C90915304913021F0D2
:10224000923009F49DC036C62A94232871F09FEF7E
:1022500090936F0495E59093700423E030E0309301
:102260004C0420934B048093710410915504E23385
:1022700031F1A0F4EE31B9F0EF3109F066C0E12F91
:10228000F0E0EE0FFF1FE054FB4F108160E0812F64
:102290000E94B80D812F0E94F40D0CC0E734C1F0EC
:1022A000E834A9F152C060E0812F0E94B80D812F5F
:1022B0000E945F0DBC01990F880B990B42C0609181
:1022C000BC047091BD048091BE049091BF043BC0DA
:1022D0000E9405062EEA37E44BEE51E46091DB03E1
:1022E0007091DC038091DD039091DE030E94E71B77
:1022F00020E030E040E05FE30E94971A6093DF0344
:102300007093E0038093E1039093E2031CC01111EA
:1023100002C085E101C084E10E94F40D24E630E0B2
:10232000DC010E94E01BA50194010E946B1B253675
:10233000310514F024E630E0B901072E000C880BBB
:10234000990B0E94381A0E94240D20914B04309161
:102350004C04C901019690934C0480934B04F901FD
:10236000E159FB4F4DE04083FC01E159FB4F2AE06E
:10237000208385E090E090939F0380939E0334C573
:102380008E2F90E0FC01FC97EF31F10508F013C4AB
:10239000EC5CFF4F0C94DA1B809155048093DC04B5
:1023A000809156048093DD042091DC043091DD049B
:1023B000809157048093DC04809158048093DD045D
:1023C0008091DC049091DD042230310591F03CF4E1
:1023D0002130310509F003C30E94040700C32330F4
:1023E000310551F02430310509F0F9C20E94800511
:1023F000F6C20E94500EF3C20E947F06F0C2809186
:1024000055048093DC04809156048093DD04C090D1
:10241000DC04D090DD0466E470E083EA93E00E947F
:102420001A0B6EE670E089EA93E00E941A0B6EE6E2
:1024300070E08FEA93E00E941A0B66E470E085EB8F
:1024400093E00E941A0B64E670E080E090E00E9446
:10245000160E0AE510E02601DD0C66087708670114
:10246000C01AD10AB60186EA93E00E941A0BB8019D
:1024700082EB93E00E941A0BB8018CEA93E00E9471
:102480001A0BB60188EB93E00E941A0BC301B2014C
:102490000E94160E0150110911F7A1C28091550436
:1024A0008093DC04809156048093DD04C090DC04AA
:1024B000D090DD0466E470E083EA93E00E941A0B9A
:1024C0006EE670E089EA93E00E941A0B6EE670E017
:1024D0008FEA93E00E941A0B66E470E085EB93E0CC
:1024E0000E941A0B64E670E080E090E00E94160EF5
:1024F00004EB10E02601DD0C660877086701C01ABE
:10250000D10AB60186EA93E00E941A0BB80182EB69
:1025100093E00E941A0BB8018CEA93E00E941A0B18
:10252000B60188EB93E00E941A0BC301B2010E942E
:10253000160E015011090A35110501F750C280919C
:1025400055048093DC04809156048093DD04C09090
:10255000DC04D090DD0466E470E083EA93E00E943E
:102560001A0B6EE670E089EA93E00E941A0B6EE6A1
:1025700070E08FEA93E00E941A0B66E470E085EB4E
:1025800093E00E941A0B64E670E080E090E00E9405
:10259000160E0AE510E02601DD0C660877086701D3
:1025A000C01AD10AB60186EA93E00E941A0BB8015C
:1025B00082EB93E00E941A0BB8018CEA93E00E9430
:1025C0001A0BB60188EB93E00E941A0BC301B2010B
:1025D0000E94160E0F5F1F4F043B110501F7FFC14C
:1025E000809155048093DC04809156048093DD042F
:1025F000C090DC04D090DD0460EA70E083EA93E0F0
:102600000E941A0B6AEA70E086EA93E00E941A0BB5
:1026100060EA70E089EA93E00E941A0B6AE070E0D9
:102620008CEA93E00E941A0B60EA70E08FEA93E074
:102630000E941A0B6AE070E082EB93E00E941A0B92
:1026400060EA70E085EB93E00E941A0B6AEA70E0A2
:1026500088EB93E00E941A0B64E670E080E090E063
:102660000E94160E00EA10E02601DD0C66087708CD
:10267000B80183EA93E00E941A0BB80189EA93E05B
:102680000E941A0BB8018FEA93E00E941A0BB8015E
:1026900085EB93E00E941A0BC301B2010E94160E53
:1026A000015011090431110519F764EF71E080E060
:1026B00090E00E94160EB80183EA93E00E941A0B84
:1026C000B80189EA93E00E941A0BB8018FEA93E0FF
:1026D0000E941A0BB80185EB93E00E941A0BC3010C
:1026E000B2010E94160E0F5F1F4F003A110519F735
:1026F00076C1809155048093DC04809156048093C8
:10270000DD044090DC045090DD0462E370E083EA75
:1027100093E00E941A0B66E970E089EA93E00E9458
:102720001A0B6EE670E08FEA93E00E941A0B62E3E8
:1027300070E085EB93E00E941A0B6AE570E086EA90
:1027400093E00E941A0B6AE570E082EB93E00E942E
:102750001A0B6AE570E08CEA93E00E941A0B6AE5B6
:1027600070E088EB93E00E941A0B64EF71E080E068
:1027700090E00E94160E6AE070E086EA93E00E9404
:102780001A0B64E670E080E090E00E94160E52E0C2
:10279000C52ED12C052C000C6608770800E010E04F
:1027A000B80186EA93E00E941A0BC301B2010E94AD
:1027B000160E0F5F1F4F0C33110591F7B80186EA13
:1027C00093E00E941A0BC301B2010E94160E015041
:1027D0001109A1F7CA94CD2821F0CC24C394D12C9F
:1027E000DDCF64E670E080E090E00E94160E6AE0C3
:1027F00070E086EA93E00E941A0B32E0C32ED12CDF
:102800000EE110E0B80183EA93E00E941A0BC301C5
:10281000B2010E94160E0F5F1F4F0035110591F790
:10282000B80183EA93E00E941A0BC301B2010E942F
:10283000160E015011090E31110591F7CA94CD28D9
:1028400009F4CDC0CC24C394D12CDACF80915504A7
:102850008093DC04809156048093DD044090DC0476
:102860005090DD046AE570E083EA93E00E941A0B61
:102870006AE570E089EA93E00E941A0B6AE570E06D
:102880008FEA93E00E941A0B6AE570E085EB93E013
:102890000E941A0B6AE570E086EA93E00E941A0B28
:1028A0006AE570E08CEA93E00E941A0B6AE570E03A
:1028B00082EB93E00E941A0B6AE570E088EB93E0EC
:1028C0000E941A0B68EC70E080E090E00E94160E07
:1028D00082E090E09A878987052C000C66087708CB
:1028E00000E010E06701C01AD10AB80186EA93E05F
:1028F0000E941A0BB8018CEA93E00E941A0BB601F1
:1029000082EB93E00E941A0BB60188EB93E00E94E1
:102910001A0BC301B2010E94160E0F5F1F4F043B3A
:10292000110501F76701C01AD10AB80186EA93E0E0
:102930000E941A0BB8018CEA93E00E941A0BB601B0
:1029400082EB93E00E941A0BB60188EB93E00E94A1
:102950001A0BC301B2010E94160E0150110911F7A2
:10296000E985FA853197D9F181E090E09A878987E6
:10297000B7CF0E94C70033C06AE570E083EA93E0F6
:102980000E941A0B6AE570E089EA93E00E941A0B34
:102990006AE570E08FEA93E00E941A0B6AE570E046
:1029A00085EB93E00E941A0B66E470E086EA93E000
:1029B0000E941A0B6EE670E08CEA93E00E941A0BFC
:1029C0006EE670E082EB93E00E941A0B66E470E022
:1029D00088EB93E00E941A0B02C00E94B407109289
:1029E000F80320E52216310409F0F4C0EEC081E0BE
:1029F0008093F803809155048093DC048091560401
:102A00008093DD042091DC043091DD048091570433
:102A10008093DC04809158048093DD048091DC0471
:102A20009091DD043093EE032093ED039093F00337
:102A30008093EF038AE192E00E94C70382E392E071
:102A40000E94C5038091ED039091EE030E94B503AF
:102A500082E492E00E94C5038091EF039091F0031D
:102A60000E94B5038091EF039091F003892BD1F080
:102A70006091ED031091EE0380E090E00E945D1BF9
:102A8000612F81E090E00E945D1B6091EF03109147
:102A9000F00382E090E00E945D1B612F83E090E0F4
:102AA0000E945D1B86E592E00E94C5038091ED03C4
:102AB0009091EE030E94B5038091ED039091EE0397
:102AC0000E94D30389E692E00E94C5038091ED0342
:102AD0009091EE030E94B5030EE110E022E330E096
:102AE00040E050E064EA70ED84E294E40E94F70074
:102AF00009E110E027E330E040E050E062E570EDEE
:102B000084EA94E40E94F7000AE010E02CE330E04D
:102B100040E050E060E070E08CED94E40E94F7004B
:102B20004AC082E08093F803109155041093A003EB
:102B3000A0915604A093A1031123D9F1B0E02CE990
:102B40003FEF4FEF5FEF0E948A1B24E630E040E04A
:102B500050E00E946B1BDA01C9018A569F4FAF4FAC
:102B6000BF4F9093EC038093EB0310FF03C00E94D0
:102B700004070EC011FF03C00E94500E09C012FFCF
:102B800003C00E94800504C013FF04C00E947F069A
:102B90001092A2038091A003982F907361F486FF96
:102BA00002C082E003C087FF06C081E08093A203D9
:102BB00002C00E94B40790E52916310459F48091AF
:102BC000F803813011F41092F80310929F031092D1
:102BD0009E0323C0EAE52E16310439F48091A20346
:102BE0008823D9F084E090E014C08FEF80936F04C5
:102BF00085E58093700483E090E090934C0480938B
:102C00004B048DE0809371048AE08093720485E028
:102C100090E090939F0380939E0381E08093F7035D
:102C2000EFE4F4E0119224E0E436F207D9F742C170
:102C300070904B047394C090EF03D090F003009118
:102C40007E0310917F0360E0C8010E94CA09F80169
:102C5000808991890E940B0E6DE1C8010E94750A5E
:102C600081FF08C0F801808991890E940B0EC8017C
:102C70000E94170A60E0C8010E94750A482F4E7F23
:102C800060E0C8010E941A0A62E0C8010E94750A49
:102C9000E6EAF0E0E49141E050E001C0440FEA953B
:102CA000EAF7482B62E0C8010E941A0A00917E03ED
:102CB00010917F03509098036090990330919A038C
:102CC00020919B03F0919C03E0919D03A601C98292
:102CD0005A835B826C823D832E83FF83E887F801F1
:102CE0002685AE014F5F5F4F6AE0C8010E943E0A31
:102CF000F8012685AE014F5F5F4F60E1C8010E9479
:102D00003E0AF801478161E1C8010E941A0A009158
:102D10007E0310917F03F8016780671408F4762C16
:102D2000F8018085811102C0671801C0612CC801BB
:102D30000E94F10980EA0E94F4099FE6C92E94E0FE
:102D4000D92E7C0C7C1431F0F60181916F010E9428
:102D5000F409F8CF662029F080E00E94F4096A9413
:102D6000F9CFC8010E94EE0961E0C8010E94CA09BA
:102D70006FEFC8010E94FB098073D1F360E0C801C6
:102D80000E94CA0940E767E0C8010E941A0A84FF4E
:102D900005C0C8010E94170A10E001C011E080912F
:102DA0007E0390917F030E94D40A112389F08BE760
:102DB00092E00E94C50360914B0470914C046F5FD8
:102DC0007F4F8FE694E00E9491070E94700304C039
:102DD00089E892E00E94C70310924C0410924B04C1
:102DE00010929F0310929E0381E08093F70362C0CC
:102DF0008091A203823009F059C00E9405062EEA94
:102E000037E44BEE51E46091DB037091DC03809179
:102E1000DD039091DE030E94E71B20E030E040E0FC
:102E20005FE30E94971A6093DF037093E00380933F
:102E3000E1039093E2030E94591C2091EB0330912F
:102E4000EC03C901603171051CF00E9404072EC01B
:102E50000E947F060E9405062EEA37E44BEE51E4FD
:102E60006091DB037091DC038091DD039091DE03C0
:102E70000E94E71B20E030E040E05FE30E94971AE9
:102E80006093DF037093E0038093E1039093E20388
:102E900020E030E040E751E40E94311A87FF06C08D
:102EA0008091EB039091EC030E94800510929F03A8
:102EB00010929E030E94E40849C982E10E945F0DBE
:102EC000892B09F0D0C089EA91E00E94C7038DEBFD
:102ED00091E00E94C7032FB7F89480911305909159
:102EE0001405A0911505B09116052FBF8093FB0323
:102EF0009093FC03A093FD03B093FE0310E082E1E6
:102F00000E945F0D892B09F070C02FB7F894809153
:102F1000130590911405A0911505B09116052FBFCA
:102F20004091FB035091FC036091FD037091FE03FF
:102F3000841B950BA60BB70B893B9B40A105B105E4
:102F4000F4F2E7E0CE2ED12C66E275E0072E000CFD
:102F5000880B990B0E94381A2B013C01F1E0CF1A23
:102F6000D108A9F002E010E024E130E040E050E0B8
:102F7000C301B2010E94F7002AE037ED43E85FE3A6
:102F8000C301B2010E94971A0E94591CDFCF6EE163
:102F900070E080E090E00E94160E70E1C72ED12C08
:102FA00066E275E0072E000C880B990B0E94381A18
:102FB0002B013C0121E0C21AD10811E009F49FCF96
:102FC00002E010E02AE030E040E050E0C301B2014E
:102FD0000E94F70028EB3EE145E85FE3C301B20140
:102FE0000E94971A0E94591CDDCF1123A1F08091F5
:102FF000F3039091F4030E94D30388EC91E00E94C4
:10300000C5038091F3039091F4030E94B50381E01E
:103010008093F80328C08DEF91E00E94C7030EE172
:1030200010E022E330E040E050E064EA70ED84E23A
:1030300094E40E94F70009E110E027E330E040E06B
:1030400050E060E070E08CED94E40E94F7000AE04C
:1030500010E022E330E040E050E062E570ED84EA09
:1030600094E40E94F7008091F803823009F022CFA7
:103070008091A203882309F41DCF84E090E090930F
:103080009F0380939E0316CF84E992E00E94C703BA
:103090006624639444244394512C67E180917E0319
:1030A00090917F030E94750A282F2170722E80FD57
:1030B00001CF00917E0310917F03C8010E94F109A6
:1030C00080E60E94F4098FEF0E94F409D82EC8010F
:1030D0000E94EE09F0E2FD1508F077C062EEC8012B
:1030E0000E94FB0962E070E080E090E00E94160E12
:1030F00000917E0310917F03F8013780272C37144D
:1031000008F4232CF8018085811102C0321801C017
:10311000312CC8010E94F10981E60E94F409FFE404
:10312000CF2EF4E0DF2E2C0C2C1439F08FEF0E9400
:10313000F409F60181936F01F7CF332029F08FEF67
:103140000E94F4093A94F9CFC8010E94EE0940E7C1
:1031500067E0C8010E941A0A872D90E0909304044A
:103160008093030460924604F2E0F71508F0A2CEC3
:1031700020914F042F3FF1F4209150042535D1F4D4
:103180002091510430E003972817390799F482E71A
:1031900091E00E94C50360910304709104048FE4E0
:1031A00094E00E9491070E94700350929F03409206
:1031B0009E0308C083E991E00E94C70310929F0319
:1031C00010929E036092F70368CF7D2C91CFCF932E
:1031D000DF931092CC021092CB0288EE93E0A0E035
:1031E000B0E08093CD029093CE02A093CF02B09333
:1031F000D00285E191E09093CA028093C90285ECE8
:1032000090E09093D6028093D50284EC90E0909366
:10321000D8028093D70280EC90E09093DA028093FA
:10322000D90281EC90E09093DC028093DB0282EC87
:1032300090E09093DE028093DD0286EC90E0909324
:10324000E0028093DF021092E2021092E3021092F9
:10325000E4021092E50280E190E09093670380938E
:10326000660381E190E09093690380936803109274
:103270006C0380E280936D0310926E0385E080936F
:10328000740385E090E0A0E0B0E080937A0390932F
:103290007B03A0937C03B0937D0310926F0386E6BB
:1032A00093E090937F0380937E038FEF90E0909361
:1032B00091038093900382E0809392038CE6809345
:1032C0009303109296031092970380EF80939803D4
:1032D0008093990380939A0310929B0310929C030E
:1032E00010929D0310929F0310929E031092A003D0
:1032F0001092A1031092A20383EA93E00E94F90BBB
:1033000086EA93E00E94F90B89EA93E00E94F90BA8
:103310008CEA93E00E94F90B8FEA93E00E94F90B8C
:1033200082EB93E00E94F90B85EB93E00E94F90B8E
:1033300088EB93E00E94F90BC0E0D0E0CE01855409
:103340009C4F0E94F90B2396C831D105B9F761E073
:103350008EE00E94B80D60E08FE00E94B80D8EE014
:1033600090E09093D4038093D3038FE090E0909308
:10337000D6038093D50388EB9BE0A0E0B0E0809378
:10338000D7039093D803A093D903B093DA0386E4CC
:1033900090E09093EC038093EB0382E090E09093B5
:1033A000EE038093ED0388EE93E09093F403809313
:1033B000F3038FEF90E09093F6038093F50381E0A1
:1033C0008093F7031092F80380E197E2A0E0B0E069
:1033D0008093FF0390930004A0930104B093020430
:1033E000109205041092460410924704109248046B
:1033F00010924A041092490410924C0410924B040B
:103400001092A30480E090E0A4EBB2E48093A404C3
:103410009093A504A093A604B093A70480E1E8EAE2
:10342000F4E0DF01982F1D929A95E9F71092B80405
:103430001092B9041092BA041092BB041092BC040A
:103440001092BD041092BE041092BF04E1E0F1E0BE
:10345000A0ECB4E001900D928A95E1F7DF91CF9155
:1034600008950E94731A08F481E00895E89409C051
:1034700097FB3EF490958095709561957F4F8F4FA7
:103480009F4F9923A9F0F92F96E9BB279395F695BD
:10349000879577956795B795F111F8CFFAF4BB0F3B
:1034A00011F460FF1BC06F5F7F4F8F4F9F4F16C09F
:1034B000882311F096E911C0772321F09EE8872F29
:1034C000762F05C0662371F096E8862F70E060E0E5
:1034D0002AF09A95660F771F881FDAF7880F96955E
:1034E000879597F90895990F0008550FAA0BE0E802
:1034F000FEEF16161706E807F907C0F012161306B6
:10350000E407F50798F0621B730B840B950B39F4F5
:103510000A2661F0232B242B252B21F408950A265B
:1035200009F4A140A6958FEF811D811D08950E9489
:10353000AA1A0C941B1B0E940D1B38F00E94141B2E
:1035400020F0952311F00C94041B0C940A1B1124F9
:103550000C944F1B0E942C1B70F3959FC1F3950F89
:1035600050E0551F629FF001729FBB27F00DB11D07
:10357000639FAA27F00DB11DAA1F649F6627B00D97
:10358000A11D661F829F2227B00DA11D621F739F80
:10359000B00DA11D621F839FA00D611D221F749F8E
:1035A0003327A00D611D231F849F600D211D822FD5
:1035B000762F6A2F11249F5750409AF0F1F08823FC
:1035C0004AF0EE0FFF1FBB1F661F771F881F915029
:1035D0005040A9F79E3F510580F00C94041B0C94B9
:1035E0004F1B5F3FE4F3983ED4F38695779567953C
:1035F000B795F795E7959F5FC1F7FE2B880F911D53
:103600009695879597F9089597F99F6780E870E0F8
:1036100060E008959FEF80EC089500240A94161648
:10362000170618060906089500240A9412161306B0
:10363000140605060895092E0394000C11F488233E
:1036400052F0BB0F40F4BF2B11F460FF04C06F5F5A
:103650007F4F8F4F9F4F089557FD9058440F551F30
:1036600059F05F3F71F04795880F97FB991F61F004
:103670009F3F79F087950895121613061406551F7B
:10368000F2CF4695F1DF08C0161617061806991FE7
:10369000F1CF86957105610508940895E894BB27DC
:1036A00066277727CB0197F90895F999FECF92BD48
:1036B00081BDF89A992780B50895262FF999FECFF4
:1036C0001FBA92BD81BD20BD0FB6F894FA9AF99A3F
:1036D0000FBE01960895052E97FB1EF400940E94DC
:1036E000821B57FD07D00E949D1B07FC03D04EF4A0
:1036F0000C94821B50954095309521953F4F4F4F2C
:103700005F4F089590958095709561957F4F8F4F8D
:103710009F4F08950E94BF1BA59F900DB49F900DD1
:10372000A49F800D911D11240895B7FF0C948A1B4E
:103730000E948A1B821B930B0895A1E21A2EAA1BDA
:10374000BB1BFD010DC0AA1FBB1FEE1FFF1FA21751
:10375000B307E407F50720F0A21BB30BE40BF50B4E
:10376000661F771F881F991F1A9469F760957095D7
:10377000809590959B01AC01BD01CF010895A29F5A
:10378000B001B39FC001A39F700D811D1124911D35
:10379000B29F700D811D1124911D0895991B79E030
:1037A00004C0991F961708F0961B881F7A95C9F7D1
:1037B00080950895EE0FFF1F0590F491E02D099478
:1037C0000E94BF1BB7FF0895821B930B08950E94B0
:1037D000FB1B0C941B1B0E94141B58F00E940D1B1A
:1037E00040F029F45F3F29F00C94041B51110C9414
:1037F0004F1B0C940A1B0E942C1B68F39923B1F3F6
:10380000552391F3951B550BBB27AA276217730706
:10381000840738F09F5F5F4F220F331F441FAA1F9A
:10382000A9F335D00E2E3AF0E0E832D09150504056
:10383000E695001CCAF72BD0FE2F29D0660F771F04
:10384000881FBB1F261737074807AB07B0E809F0EA
:10385000BB0B802DBF01FF2793585F4F3AF09E3F6F
:10386000510578F00C94041B0C944F1B5F3FE4F35C
:10387000983ED4F3869577956795B795F7959F5FB2
:10388000C9F7880F911D9695879597F90895E1E0FE
:10389000660F771F881FBB1F621773078407BA075D
:1038A00020F0621B730B840BBA0BEE1F88F7E095B8
:1038B00008950E94601C6894B1110C944F1B0895E8
:1038C0000E94341B88F09F5798F0B92F9927B75161
:1038D000B0F0E1F0660F771F881F991F1AF0BA95B4
:1038E000C9F714C0B13091F00E944E1BB1E00895A9
:1038F0000C944E1B672F782F8827B85F39F0B93F9B
:10390000CCF3869577956795B395D9F73EF4909566
:103910008095709561957F4F8F4F9F4F089581E0FF
:1039200090E0F8940C949D1CFB01DC0102C0019016
:0E3930000D9241505040D8F70895F894FFCF03
:10393E00FF0E000F001000110012001300140015EE
:10394E0000000000007B08E4071308C208440822A8
:10395E000836084C6F6164696E67206D7920436F7D
:10396E006E6669672E2E2E20004D7920416464729A
:10397E006573733A200047756974205374617274CD
:10398E002C20616464726573733A20005374617401
:10399E0065204E6F3A200020202052756E6E696EA3
:1039AE00670072656365697665642076616C69642B
:1039BE00205363726174636820524620646174619F
:1039CE003A2000696E76616C6964206461746120CE
:1039DE00726563656976656400434F4E46494720BC
:1039EE004B45592050524553534544210057616968
:1039FE00742033732E2E2E00474F494E4720544FBE
:103A0E0020434F4E464947204D4F44452057495479
:103A1E00482044454641554C5420434F4E46494755
:103A2E0020414444524553532E2E2E3A00434F4EBE
:103A3E00464947204D4F4445204953204E4F542070
:103A4E0041434345535345442100526563656976AE
:103A5E0065204E65772061646472657373696E6765
:103A6E0021004D79206E6577204164647265737311
:103A7E003A0053656E64696E6720746F204164640A
:103A8E00726573733A005365742061646472657372
:103A9E007320746F2052463A00536574206164643B
:103AAE007265737320646F6E653A0053656E742091
:103ABE006275666665723A200053656E74204641E3
:103ACE00494C20005246206461746120636F6D651D
:103ADE0021000D0A00436865636B204E5246323456
:103AEE004C303120436F6E6E656374696F6E2100CA
:023AFE002D0099
:00000001FF
