:100000000C947B000C94A3000C94A3000C94A3000C
:100010000C94A3000C94A3000C94A3000C94A610C1
:100020000C94A3000C94A3000C94A3000C944B0913
:100030000C94A3000C94A3000C94A3000C94A300B4
:100040000C947E140C94A3000C944E110C94281163
:100050000C94A3000C94A3000C94A3000C94A30094
:100060000C94A3000C94A30005A84CCDB2D44EB9B7
:100070003836A9020C50B9918688083CA6AAAA2A4B
:10008000BE000000803F00000008000201000003E5
:100090000407000000000000000000010203040546
:1000A000000000002300260029000A0B0C0D0E0F93
:1000B00000000000240027002A000102040810208C
:1000C00040800102040810200102040810200000F2
:1000D0000000250028002B00040404040404040488
:1000E00002020202020203030303030302111213BA
:1000F000141516006F1D11241FBECFEFD8E0DEBF10
:10010000CDBF13E0A0E0B1E0E0E0F5E402C005906F
:100110000D92AE3BB107D9F727E0AEEBB3E001C0DB
:100120001D92AE32B207E1F710E0CBE7D0E004C099
:100130002197FE010E94C020CA37D107C9F70E944B
:100140000D150C947E220C940000833081F028F46D
:10015000813099F08230A1F008958730A9F088307D
:10016000B9F08430D1F4809180008F7D03C08091FC
:1001700080008F7780938000089584B58F7702C0C8
:1001800084B58F7D84BD08958091B0008F7703C0C2
:100190008091B0008F7D8093B00008954F925F9260
:1001A0006F927F928F929F92AF92BF92CF92DF9287
:1001B000EF92FF920F931F93CF93DF934B015C015C
:1001C0006A01E7ECF4E0C901E7017801B601605F7C
:1001D0007F4FDA012D913D91AD0131832083DC0108
:1001E0002D913D91CD01338322832991399135831E
:1001F0002483D7012D913D917D0137832683759608
:100200004617570731F70E94721420E030E0F901D9
:10021000EC52FB4F60837183828393832B5E3F4F4D
:10022000283A3105A1F70E9472140E941D1F2B016C
:100230003C01F60180819181BC01990F880B990BDB
:100240000E941F1FA50194010E947E1F9B01AC010B
:10025000C301B2010E94C7200E94AC216093B30584
:100260007093B4058093B5059093B6050E947214FF
:100270000091B3051091B4052091B5053091B605F4
:100280006017710782079307A8F407EC14E0C0E039
:10029000D0E0C8010E9480119B01AC01BE0187EC37
:1002A00094E00E942B1221960B5E1F4FC830D1059F
:1002B00081F7DCCFDF91CF911F910F91FF90EF90ED
:1002C000DF90CF90BF90AF909F908F907F906F9076
:1002D0005F904F900895EF92FF920F931F93CF93EB
:1002E000DF93CDB7DEB7C054D1090FB6F894DEBFA7
:1002F0000FBECDBF5AAB49AB5CAB4BAB5EAB4DABAE
:1003000058AF4FAB5AAF49AF5CAF4BAF5EAF4DAFDD
:1003100021965FAF4EAF219722EE3FEF3AA329A37C
:100320003CA32BA341EF5FEF5EA34DA358A74FA3C0
:100330003AA729A73CA72BA75EA74DA758AB4FA765
:100340004BE450E05A8B498BA9E6B0E0BC8BAB8BF9
:10035000E3E4F0E0FE8BED8B21E730E0388F2F8B6C
:10036000BA8FA98F5C8F4B8F3E8F2D8FF8A3EF8FA5
:1003700020E1E1E7F1E0DE01119601900D922A956E
:10038000E1F79E012F5F3F4F79018E010F5E1F4FF6
:10039000205E3F4FAE014F5C5F4F0E94CE00C05CBD
:1003A000DF4F0FB6F894DEBF0FBECDBFDF91CF9108
:1003B0001F910F91FF90EF900895EF92FF920F938E
:1003C0001F93CF93DF93CDB7DEB7C054D1090FB6DB
:1003D000F894DEBF0FBECDBF5AAB49AB5CAB4BABA5
:1003E0005EAB4DAB58AF4FAB5AAF49AF5CAF4BAF05
:1003F0005EAF4DAF21965FAF4EAF219722EE3FEF3C
:100400003AA329A33CA32BA341EF5FEF5EA34DA327
:1004100058A74FA33AA729A73CA72BA75EA74DA78C
:1004200058AB4FA74BE450E05A8B498BA9E6B0E09C
:10043000BC8BAB8BE3E4F0E0FE8BED8B21E730E08F
:10044000388F2F8BBA8FA98F5C8F4B8F3E8F2D8F5C
:10045000F8A3EF8F20E1E1E8F1E0DE0111960190D1
:100460000D922A95E1F79E012F5F3F4F79018E0192
:100470000F5E1F4F205E3F4FAE014F5C5F4F0E94EB
:10048000CE00C05CDF4F0FB6F894DEBF0FBECDBF0D
:10049000DF91CF911F910F91FF90EF900895EF9210
:1004A000FF920F931F93CF93DF93CDB7DEB7C05466
:1004B000D1090FB6F894DEBF0FBECDBF5AAB49AB22
:1004C0005CAB4BAB5EAB4DAB58AF4FAB5AAF49AF2C
:1004D0005CAF4BAF5EAF4DAF21965FAF4EAF219794
:1004E00021EF3FEF3AA329A33CA32BA33EA32DA3C7
:1004F00038A72FA33AA729A73CA72BA73EA72DA72C
:1005000038AB2FA72AE430E03A8B298B2AE630E07B
:100510003C8B2B8BEBE4F0E0FE8BED8B29E630E09F
:10052000388F2F8B4EE550E05A8F498F46E550E0CB
:100530005C8F4B8F3E8F2D8FF8A3EF8F20E1E1E989
:10054000F1E0DE01119601900D922A95E1F79E01EE
:100550002F5F3F4F79018E010F5E1F4F205E3F4F8F
:10056000AE014F5C5F4F0E94CE00C05CDF4F0FB604
:10057000F894DEBF0FBECDBFDF91CF911F910F91D9
:10058000FF90EF900895EF92FF920F931F93CF93F8
:10059000DF93CDB7DEB7C054D1090FB6F894DEBFF4
:1005A0000FBECDBF5AAB49AB5CAB4BAB5EAB4DABFB
:1005B00058AF4FAB5AAF49AF5CAF4BAF5EAF4DAF2B
:1005C00021965FAF4EAF21971AA219A21CA21BA2BF
:1005D00028ED3FEF3EA32DA338A72FA31AA619A6F7
:1005E0001CA61BA63EA72DA738AB2FA72CE330E0F7
:1005F0003A8B298B48E750E05C8B4B8BEAE5F0E0C7
:10060000FE8BED8BF88FEF8B5A8F498F3C8F2B8FA2
:10061000FE8FED8FF8A3EF8F20E1E1EAF1E0DE013C
:10062000119601900D922A95E1F79E012F5F3F4FA1
:1006300079018E010F5E1F4F205E3F4FAE014F5C70
:100640005F4F0E94CE00C05CDF4F0FB6F894DEBF54
:100650000FBECDBFDF91CF911F910F91FF90EF9013
:100660000895EF92FF920F931F93CF93DF93CDB72F
:10067000DEB760970FB6F894DEBF0FBECDBF46E47D
:1006800050E05A8349836EE670E07C836B8380E59B
:1006900090E09E838D8324E630E038872F837A872D
:1006A00069875C874B873E872D87988B8F87CE0124
:1006B00001967C0100E010E0F701619171917F01EA
:1006C000072E000C880B990B0E941F1F9B01AC0189
:1006D000B80187EC94E00E942B120F5F1F4F083087
:1006E000110551F760960FB6F894DEBF0FBECDBF6F
:1006F000DF91CF911F910F91FF90EF9008952F926E
:100700003F924F925F926F927F928F929F92AF92A1
:10071000BF92CF92DF92EF92FF920F931F93CF93EE
:10072000DF93CDB7DEB7C254D1090FB6F894DEBF60
:100730000FBECDBF1B012C018A015AAB49AB5CAB8C
:100740004BABCA0157FD0196959587959EAB8DAB36
:1007500098AF8FAB1AAF09AF1CAF0BAF9EAF8DAF89
:1007600021969FAF8EAF219721EF3FEF3AA329A3A8
:100770003CA32BA38CEE9FEF9EA38DA398A78FA3E2
:100780003AA729A73CA72BA79EA78DA798AB8FA711
:100790008AE390E09A8B898B8AE790E09C8B8B8B25
:1007A00080E590E09E8B8D8B24E630E0388F2F8B98
:1007B00042E650E05A8F498F42E550E05C8F4B8F04
:1007C0003E8F2D8F98A38F8F80E1E1EBF1E0DE016A
:1007D000119601900D928A95E1F75E0181E3A80ED2
:1007E000B11C67ECE62E64E0F62E3E0191E2690E44
:1007F000711CFE0131966F014E01F1E18F0E911CCB
:100800009501205F3F4F22962FAF229723963FAF4F
:1008100023970E947214F701658776878787908BEC
:10082000F501819191915F01F70191838083F3013B
:10083000819191913F01F70193838283F601819128
:1008400091916F01F70195838483F40181919191D6
:100850004F01F70197838683F5E1EF0EF11C229695
:100860002FAD229723963FAD2397A216B30659F6D4
:100870000E9472140E941D1F6B017C01B801110FB0
:10088000880B990B0E941F1FA20191010E947E1FDD
:100890009B01AC01C701B6010E94C7200E94AC2198
:1008A0006093B3057093B4058093B5059093B60536
:1008B0000E9472146093AF057093B0058093B105E8
:1008C0009093B2050E9472140091B3051091B40583
:1008D0002091B5053091B60560177107820793071F
:1008E00008F085C00E9472140091AF051091B00508
:1008F0002091B1053091B205601B710B820B930BF7
:1009000029A93AA937FF02C02F5F3F4F3595279598
:10091000032E000C440B550B0E947C2089010170B2
:10092000112787EC94E00E9480119B01AC0160E0EC
:1009300070E087EC94E00E942B128CED94E00E9412
:1009400080119B01AC0161E070E087EC94E00E94B3
:100950002B128BE195E00E9480119B01AC0164E0B9
:1009600070E087EC94E00E942B1280E395E00E94F7
:1009700080119B01AC0165E070E087EC94E00E947F
:100980002B12012BA9F486E095E00E9480119B01B7
:10099000AC0163E070E087EC94E00E942B1285E4E8
:1009A00095E00E9480119B01AC0166E070E014C0EC
:1009B00081EF94E00E9480119B01AC0162E070E045
:1009C00087EC94E00E942B128AE595E00E9480114A
:1009D0009B01AC0167E070E087EC94E00E942B1271
:1009E00061E070E080E090E00E9438146BCFCE5B55
:1009F000DF4F0FB6F894DEBF0FBECDBFDF91CF91B2
:100A00001F910F91FF90EF90DF90CF90BF90AF902C
:100A10009F908F907F906F905F904F903F902F901E
:100A20000895EF92FF920F931F93CF93DF938C0162
:100A30007B01EC01CE01801B910B8E159F0564F4A8
:100A4000699170E080E090E040E10E948E0D85E8C1
:100A500093E00E94DF0DEECFDF91CF911F910F91B8
:100A6000FF90EF900C948A0DBF92CF92DF92EF929D
:100A7000FF920F931F93CF93DF93CDB7DEB72897E5
:100A80000FB6F894DEBF0FBECDBFE0908306E394AF
:100A9000C0902706D09028060091A0041091A104D0
:100AA00060E0C8010E94B812F801808991890E9413
:100AB0002D146DE1C8010E94631381FF08C0F80185
:100AC000808991890E942D14C8010E94051360E05D
:100AD000C8010E946313482F4E7F60E0C8010E9446
:100AE000081362E0C8010E946313EAE9F0E0E491B0
:100AF00041E050E001C0440FEA95EAF7482B62E07C
:100B0000C8010E9408130091A0041091A104B090A4
:100B1000BA04F090BB04B091BC04A091BD04F09164
:100B2000BE04E091BF049601C9823A83BB82FC8275
:100B3000BD83AE83FF83E887F8012685AE014F5F52
:100B40005F4F6AE0C8010E942C13F8012685AE01B0
:100B50004F5F5F4F60E1C8010E942C13F80147818D
:100B600061E1C8010E9408130091A0041091A10442
:100B7000F801F780FE1408F4EF2CF801808581114C
:100B800002C0FE1801C0F12CC8010E94DF1280EAE9
:100B90000E94E21287EAC82E86E0D82EEC0CEC14F4
:100BA00031F0F60181916F010E94E212F8CFFF202F
:100BB00029F080E00E94E212FA94F9CFC8010E9465
:100BC000DC1261E0C8010E94B8120E9472146B012D
:100BD0007C016FEFC8010E94E912807389F40E94C2
:100BE0007214DC01CB018C199D09AE09BF09803656
:100BF0009105A105B10568F381E0F80187870EC072
:100C000060E0C8010E94B81240E767E0C8010E9496
:100C1000081384FF05C0C8010E94051310E001C03D
:100C200011E08091A0049091A1040E94C2131123AD
:100C300089F087E893E00E94DF0D60918306709150
:100C400084066F5F7F4F87EA96E00E9411050E943D
:100C50008A0D04C085E993E00E94E10D109284069C
:100C6000109283061092C1041092C00481E0809318
:100C70002F0628960FB6F894DEBF0FBECDBFDF91CA
:100C8000CF911F910F91FF90EF90DF90CF90BF9089
:100C90000895EF92FF920F931F93CF93DF93CDB7F9
:100CA000DEB7C054D1090FB6F894DEBF0FBECDBF7A
:100CB0005AAB49AB5CAB4BAB5EAB4DAB58AF4FAB3C
:100CC0005AAF49AF5CAF4BAF5EAF4DAF21965FAF50
:100CD0004EAF21971AA219A21CA21BA22DED3FEF25
:100CE0003EA32DA338A72FA31AA619A61CA61BA6A0
:100CF0003EA72DA738AB2FA746E450E05A8B498B6F
:100D0000AEE6B0E0BC8BAB8BECE3F0E0FE8BED8BA2
:100D100028E730E0388F2F8BBA8FA98F5C8F4B8FED
:100D20003E8F2D8FF8A3EF8F20E1E1ECF1E0DE01A3
:100D3000119601900D922A95E1F79E012F5F3F4F8A
:100D400079018E010F5E1F4F205E3F4FAE014F5C59
:100D50005F4F0E94CE00C05CDF4F0FB6F894DEBF3D
:100D60000FBECDBFDF91CF911F910F91FF90EF90FC
:100D70000895EF92FF920F931F93CF93DF93CDB718
:100D8000DEB7C054D1090FB6F894DEBF0FBECDBF99
:100D90005AAB49AB5CAB4BAB5EAB4DAB58AF4FAB5B
:100DA0005AAF49AF5CAF4BAF5EAF4DAF21965FAF6F
:100DB0004EAF2197E0E19E012F5D3F4FD9014E2FAD
:100DC0001D924A95E9F748ED5FEF5EA34DA358A742
:100DD0004FA38E010F5E1F4FD8011D92EA95E9F7D0
:100DE0004AE550E05A8B498B5C8B4B8BECE3F0E08F
:100DF000FE8BED8B48E750E0588F4F8BABE9B0E0AE
:100E0000BA8FA98FA9E1B0E0BC8FAB8F5E8F4D8FF9
:100E1000F8A3EF8F40E1E1EDF1E0DE0111960190E2
:100E20000D924A95E1F7AE014F5F5F4F7A01405D49
:100E30005F4F0E94CE00C05CDF4F0FB6F894DEBF5C
:100E40000FBECDBFDF91CF911F910F91FF90EF901B
:100E500008952F923F924F925F926F927F928F925E
:100E60009F92AF92BF92CF92DF92EF92FF920F9339
:100E70001F93CF93DF93EB018B3091050CF493C05C
:100E80006C01990FEE08FF08C701B6010E941F1FF1
:100E900020E030E040E251E40E9433212B013C018C
:100EA0008E011E0180E2280E311C9BEDA92E95E0DB
:100EB000B92EF80161917191819191918F01F501A4
:100EC00021913191419151915F014F01F4E28F1ACB
:100ED00091080E94C620A30192010E943321F401CF
:100EE00060837183828393830215130511F70E9437
:100EF0007214C60ED71EE81EF91EC092B305D0921A
:100F0000B405E092B505F092B6050E947214009106
:100F1000B3051091B4052091B5053091B605601761
:100F200071078207930708F051C00E947214DC0118
:100F3000CB010A96A11DB11D8093B7059093B8050A
:100F4000A093B905B093BA058BEDE82E85E0F82E95
:100F500000E010E0F70161917191819191917F0121
:100F6000B49720813181428153810E94C7209B0127
:100F7000AC01B80187EC94E00E942B120F5F1F4F69
:100F80000830110539F70E9472140091B7051091CD
:100F9000B8052091B9053091BA056017710782072D
:100FA000930788F3B2CF7B0100E010E0F7012191B5
:100FB0003191419151917F01B80187EC94E00E94F9
:100FC0002B120F5F1F4F0830110581F7EBEDF5E095
:100FD000CE018096499159916991799141935193AC
:100FE00061937193C817D907A9F7DF91CF911F912A
:100FF0000F91FF90EF90DF90CF90BF90AF909F90B8
:101000008F907F906F905F904F903F902F900895BA
:101010000F931F93CF93DF93EB01A3E8B6E00D91FD
:101020001C911197980128573B4FA901415E5D4FD4
:1010300062E0FA016083AE01BC014093080750935F
:10104000090760930A0770930B07C901805E9D4FE3
:10105000FC01C083E901CF5DDD4F809109078883E2
:10106000219680910A07888380910B07F8013596B5
:10107000ED93FC93F901ED5DFD4F8083DF91CF91FE
:101080001F910F910895FC0190819C3080F5818122
:1010900028E830E0281B310987FD3395220F331FE4
:1010A000220F331F621773077CF0828128E532E03C
:1010B000281B310987FD3395220F331F220F331F61
:1010C000621773070CF49B0122503109220F331F62
:1010D0004FB7F894892F90E0FC01EE0FFF1F8E0FA1
:1010E0009F1FFC01ED59FB4F328321834FBF0895B1
:1010F000CF93DF93282F30E0F901EA57FF4F849117
:10110000F901E654FF4FD491F901E852FF4FC49121
:10111000CC2391F081110E94A500EC2FF0E0EE0F9E
:10112000FF1FE056FF4FA591B491EC91ED2381E0B4
:1011300090E021F480E002C080E090E0DF91CF9168
:1011400008951F93CF93DF93282F30E0F901EA57DA
:10115000FF4F8491F901E654FF4FD491F901E85211
:10116000FF4FC491CC23C9F0162F81110E94A50016
:10117000EC2FF0E0EE0FFF1FE253FF4FA591B4916B
:101180008FB7F894111105C09C91ED2FE095E923DC
:1011900002C0EC91ED2BEC938FBFDF91CF911F91AB
:1011A00008950F931F9360E080910B060E94A108A1
:1011B00083E090E00197F1F761E080910B060E94D7
:1011C000A10883E290E00197F1F760E080910B06BF
:1011D0000E94A10880910D0690910E069927FC01AE
:1011E000E654FF4F6491FC01E852FF4FE491F0E0B8
:1011F000EE0FFF1FE056FF4F8591949100910F066F
:101200001091100620911106309112063F70462F62
:101210000E94C814611571058105910549F0DC0132
:10122000CB010196A11DB11DBC01CD019F7003C072
:1012300060E070E0CB010E941D1F60931306709365
:101240001406809315069093160620E030E0A9015D
:101250000E94181F811112C060910F067091100634
:1012600080911106909112060E941F1F6093130631
:1012700070931406809315069093160660911306DA
:101280007091140680911506909116060E94A52172
:101290001F910F9108951F920F920FB60F92112474
:1012A0002F933F934F935F936F937F938F939F936E
:1012B000AF93BF93EF93FF938091BE0387FF05C069
:1012C00010928500109284001BC02091BE03022E54
:1012D000000C330B8091870490E02817390784F4C1
:1012E0008091BE03082E000C990BFC01EE0FFF1F2E
:1012F0008E0F9F1FFC01ED59FB4F808186FD15C0AD
:101300008091BE038F5F8093BE032091BE03022EA7
:10131000000C330B8091870490E028173907C4F440
:101320008091BE038C3064F113C08091BE03082EFF
:10133000000C990BFC01EE0FFF1F8E0F9F1FFC018D
:10134000ED59FB4F808160E08F730E94A108D8CFD8
:101350008091840090918500049680349C4918F413
:1013600080E49CE905C080918400909185000496FA
:1013700090938900809388008FEF8093BE033BC0D9
:1013800020918400309185008091BE03082E000CCE
:10139000990BFC01EE0FFF1F8E0F9F1FFC01ED59F3
:1013A000FB4F81819281820F931F909389008093DC
:1013B00088008091BE03082E000C990BFC01EE0FF3
:1013C000FF1F8E0F9F1FFC01ED59FB4F808186FF91
:1013D00012C08091BE03082E000C990BFC01EE0F89
:1013E000FF1F8E0F9F1FFC01ED59FB4F808161E0B5
:1013F0008F730E94A108FF91EF91BF91AF919F91D0
:101400008F917F916F915F914F913F912F910F90AD
:101410000FBE0F901F901895CF93DF9390E0FC01C3
:10142000E654FF4F2491FC01E852FF4F849188233A
:1014300061F190E0880F991FFC01E055FF4FC591C5
:10144000D491FC01E253FF4FA591B491611109C001
:101450009FB7F8948881209582238883EC912E236E
:101460000BC0623061F49FB7F8943881822F809569
:1014700083238883EC912E2B2C939FBF06C08FB7BC
:10148000F894E8812E2B28838FBFDF91CF910895A8
:101490008E3008F08E508770806480937C0080913D
:1014A0007A00806480937A0080917A0086FDFCCF78
:1014B000809178002091790090E0922B0895009718
:1014C00069F0FC0101900020E9F73197AF01481B5A
:1014D000590BBC0186EC93E00C949A0F80E090E0ED
:1014E00008953F924F925F926F927F928F929F9258
:1014F000AF92BF92CF92DF92EF92FF920F931F9322
:10150000CF93DF93CDB7DEB728970FB6F894DEBF41
:101510000FBECDBF29013A010115110511F401E0FB
:1015200010E0E090C504F090C604209100012E1553
:1015300021F02F3F09F0DEC104C0ECEEF0E0349062
:1015400081C0E0920001ECEEF0E0E491EF3F09F49D
:10155000D1C1E13031F1E23009F44BC0E11171C089
:1015600014BC15BC24B5226024BD25B5216025BD61
:10157000A7015527FA01E852FF4FE491F0E0EE0F82
:10158000FF1FE253FF4F2591349130931C072093A6
:101590001B07FA01E654FF4FE491E0931A07312C40
:1015A00053C0109280001092810020918100286029
:1015B0002093810020918100216020938100A70168
:1015C0005527FA01E852FF4FE491F0E0EE0FFF1FBC
:1015D000E253FF4F25913491309319072093180758
:1015E000FA01E654FF4FE491E09317073324339454
:1015F0002BC01092B0001092B1002091B000226078
:101600002093B0002091B10021602093B100A70188
:101610005527FA01E852FF4FE491F0E0EE0FFF1F6B
:10162000E253FF4F259134913093C1032093C003BF
:10163000FA01E654FF4FE491E093BF03B2E03B2E82
:1016400003C03E2E37FC56C10E94AC216D837E83C1
:101650008F83988761E08E2D0E940C0A8D819E8178
:101660004C01A12CB12C832D8D7F09F0BBC060E013
:1016700072E18AE790E0A50194010E94522029833B
:101680003A834B835C8369017A0191E0C91AD108DE
:10169000E108F108EFEFCE16D104E104F10409F0FE
:1016A00008F44CC060E472E48FE090E0A50194017E
:1016B0000E94522069017A01F1E0CF1AD108E108B5
:1016C000F10822E0321220C08FEFC816D104E104E5
:1016D000F10409F008F48BC160E970ED83E090E05B
:1016E000A50194010E94522069017A0191E0C91A72
:1016F000D108E108F108EFEFCE16D104E104F104BE
:1017000009F0D0F583E067C0FFEFCF16D104E10404
:10171000F104B1F0A8F068E478EE81E090E0A50172
:1017200094010E94522069017A0181E0C81AD1080F
:10173000E108F108332009F438C12EC181E001C06D
:1017400082E03320A1F047C089819A81AB81BC81BE
:101750002AE0B595A795979587952A95D1F76C01BD
:101760007D01E1E0CE1AD108E108F10885E095B5E8
:10177000987F892B85BD6FC068E478EE81E090E0AA
:10178000A50194010E94522069017A01E1E0CE1A7C
:10179000D108E108F108FFEFCF16D104E104F1040C
:1017A00009F008F4C8C064E274EF80E090E0A5019D
:1017B00094010E94522069017A0191E0C91AD1086E
:1017C000E108F108EFEFCE16D104E104F10411F0C5
:1017D00008F0B3C085E09091B100987F892B809389
:1017E000B10039C060E072E18AE790E0A5019401A0
:1017F0000E94522069017A0181E0C81AD108E108EB
:10180000F108C114D10491E0E906F10488F068E41C
:1018100078EE81E090E0A50194010E9452206901D8
:101820007A01E1E0CE1AD108E108F10893E001C0A5
:1018300091E0F1E03F120FC080918100887F892BF9
:1018400080938100411451046104710449F42FEF25
:101850003FEFA9012EC0411451046104710479F0D5
:10186000AD81BE81AA0FBB1FA30192010E9471200E
:1018700028EE33E040E050E00E947C2003C02FEFD0
:101880003FEFA90181E03816A1F092E0391619F175
:10189000311030C0C7BC20932107309322074093FA
:1018A00023075093240780916E00826080936E001E
:1018B00021C0D0928900C092880020931D073093E8
:1018C0001E0740931F075093200780916F0082608E
:1018D00080936F000FC0C092B3002093C203309377
:1018E000C3034093C4035093C5038091700082608A
:1018F00080937000C301B2010E943814B801110F27
:10190000880B990B28960FB6F894DEBF0FBECDBF9B
:10191000DF91CF911F910F91FF90EF90DF90CF90CB
:10192000BF90AF909F908F907F906F905F904F90FF
:101930003F900C94381484E04ECF62E17AE780E067
:1019400090E0A50194010E94522069017A0181E092
:10195000C81AD108E108F1089FEFC916D104E104C3
:10196000F104C1F0B8F089819A81AB81BC814AE071
:10197000B595A795979587954A95D1F76C017D0107
:10198000F1E0CF1AD108E108F108332009F4EECED6
:1019900087E021CF86E0D5CEEFEFCE16D104E1046B
:1019A000F10409F050F684E0CCCE8FEFC816D104D4
:1019B000E104F104D1F0C8F062E17AE780E090E060
:1019C000A50194010E94522069017A01F1E0CF1A29
:1019D000D108E108F1082FEFC216D104E104F104A7
:1019E00011F008F0B1CE84E0C2CE83E0C0CE82E038
:1019F000F2CE4F925F926F927F928F929F92AF92B0
:101A0000BF92CF92DF92EF92FF920F931F93CF93EB
:101A1000DF93CDB7DEB728970FB6F894DEBF0FBEC1
:101A2000CDBF2B013C0129833A834B835C83ED823C
:101A3000FE820F8318878114910419F488248394FB
:101A4000912C29813A814B815C81C301B2010E94B2
:101A5000181F87FF24C0C301B2010E94A521072ED1
:101A6000000C880B990B0E941F1F2B013C01298140
:101A70003A814B815C810E94181F87FF34C084012A
:101A8000A6019501C301B2010E94710A2D813E8118
:101A90004F815885C301B2010E947E1FDECFC30172
:101AA000B2010E94A521072E000C880B990B0E9401
:101AB0001F1F2B013C0129813A814B815C810E94CF
:101AC000DB21181684F48401A6019501C301B2013B
:101AD0000E94710A2D813E814F815885C301B20158
:101AE0000E943321DECF28960FB6F894DEBF0FBEDA
:101AF000CDBFDF91CF911F910F91FF90EF90DF90BD
:101B0000CF90BF90AF909F908F907F906F905F909D
:101B10004F90089580EA93E00C945F0A8F929F9211
:101B2000AF92BF920F931F93CF93DF93CDB7DEB7E2
:101B3000A1970FB6F894DEBF0FBECDBF19A24230F9
:101B400008F44AE08E010F5D1F4F842E912CA12CCA
:101B5000B12CA50194010E947C20E62FB901CA0195
:101B600001501109EA3014F4E05D01C0E95CD801CC
:101B7000EC93232B242B252B61F7C8010E945F0ACD
:101B8000A1960FB6F894DEBF0FBECDBFDF91CF9107
:101B90001F910F91BF90AF909F908F900895CF931A
:101BA000DF93BC0180E090E04AE00E948E0DEC01E2
:101BB0000E948A0D8C0F9D1FDF91CF9108950C9488
:101BC0005F0ACF93DF930E945F0AEC010E948A0DA7
:101BD0008C0F9D1FDF91CF910895DF92EF92FF92BE
:101BE0000F931F93CF93DF93CDB7DEB760970FB6F8
:101BF000F894DEBF0FBECDBF9093AF048093AE04C8
:101C00000091A0041091A104F801808191812281AA
:101C100033818217930719F061E00E940C0AF801E2
:101C200082819381208131812817390719F061E081
:101C30000E940C0AFFB6F89480911607811127C004
:101C4000E2EEF0E08491E4ECF0E09491E82FF0E033
:101C5000EE0FFF1FE055FF4FA591B491EC91E923E2
:101C600021F461E08AE00E94A10861E08AE00E941C
:101C70000C0A8CB580618CBD8CB580648CBD61E034
:101C80008DE00E940C0A61E08BE00E940C0A8091BA
:101C900016078F5F80931607FFBE60E0C8010E94A1
:101CA000B81261E0C8010E94C41265E070E080E0F3
:101CB00090E00E9438144CE060E0C8010E940813D4
:101CC0004FE564E0C8010E94081366E0C8010E9465
:101CD0006313877D8062F82E8BE990E0A0E0B0E08E
:101CE000F801808B918BA28BB38B4F2D66E0C801DE
:101CF0000E94081366E0C8010E9463138F1509F45F
:101D00007DC066E0C8010E94631366E0C8010E94BE
:101D1000631345E550E060E070E0F801408B518BC3
:101D2000628B738B482F477D66E0C8010E940813C1
:101D300066E0C8010E946313C8010E94DF1280E5BB
:101D40000E94E21283E70E94E212C8010E94DC12A4
:101D500040E06DE1C8010E94081340E06CE1C80159
:101D60000E940813F801108640E767E0C8010E944E
:101D700008134CE465E0C8010E94081362EEC80134
:101D80000E94E912C8010E940513C8010E94A9130C
:101D900060E0C8010E946313482F4E7F60E0C801D5
:101DA0000E94081383EA93E00E94E10D63E08091B2
:101DB000A0049091A1040E9463138150833050F4D9
:101DC00021C0173008F49BC08091A0049091A10419
:101DD0000E94C21368EE73E080E090E00E94381425
:101DE00060960FB6F894DEBF0FBECDBFDF91CF91E6
:101DF0001F910F91FF90EF90DF90089581E0F8011F
:101E000086837FCF4091B5044E3708F04DE765E0FB
:101E10008091A0049091A1040E9408130091A00455
:101E20001091A1046DE1C8010E946313482F446022
:101E30006DE1C8010E9408136CE1C8010E946313A0
:101E4000482F4F636CE1C8010E94081381E0F8013C
:101E50008087E090A004F090A104B091BA04A09112
:101E6000BB04F091BC04E091BD049091BE0480914C
:101E7000BF040091AE041091AF0409871A87BB8795
:101E8000AC87FD87EE879F87888BEBEAF0E0649153
:101E9000F7012685AE01475F5F4FC7010E942C13F3
:101EA00061E0C7010E9483131091B404E090A00484
:101EB000F090A104D090BA040091BB04B091BC048E
:101EC000A091BD04F091BE04E091BF042091B20442
:101ED0003091B30429833A83DB820C83BD83AE83C4
:101EE000FF83E88711116DCFF701468550E0BE01F1
:101EF0006F5F7F4FC70109960E94752202C01130A3
:101F000041F4E12FF0E0E655FF4F6491F70126859B
:101F100006C0E12FF0E0E655FF4F649121E0AE01ED
:101F20004F5F5F4FC7010E942C13612FC7010E94B2
:101F300083134ACFCF92DF92EF92FF920F931F93BA
:101F4000CF93DF936C017A018B01C0E0D0E0CE1516
:101F5000DF0589F0D8016D918D01D601ED91FC91DD
:101F60000190F081E02DC6010995892B11F47E01C5
:101F700002C02196ECCFC701DF91CF911F910F9145
:101F8000FF90EF90DF90CF900895089580E090E06B
:101F90000895FC01538D448D252F30E0842F90E06F
:101FA000821B930B541710F0CF9608950197089554
:101FB000FC01918D828D981761F0828DDF01A80F51
:101FC000B11D5D968C91928D9F5F9F73928F90E073
:101FD00008958FEF9FEF0895FC01918D828D9817E2
:101FE00031F0828DE80FF11D858D90E008958FEF1F
:101FF0009FEF0895FC01918D228D892F90E0805CE8
:102000009F4F821B91098F739927089586EC93E067
:102010000E94FA0F21E0892B09F420E0822F089515
:10202000FC01848DDF01A80FB11DA35ABF4F2C9175
:10203000848D90E001968F739927848FA689B78944
:102040002C93A089B1898C9180648C93938D848D1D
:10205000981306C00288F389E02D80818F7D8083EC
:102060000895EF92FF920F931F93CF93DF93EC01AC
:1020700081E0888F9B8D8C8D981305C0E889F98944
:10208000808185FD24C0F62E0B8D10E00F5F1F4F61
:102090000F731127E02E8C8DE8120CC00FB607FCD1
:1020A000FACFE889F989808185FFF5CFCE010E94BA
:1020B0001010F1CF8B8DFE01E80FF11DE35AFF4F99
:1020C000F0820B8FEA89FB898081806207C0EE89EC
:1020D000FF896083E889F98980818064808381E059
:1020E00090E0DF91CF911F910F91FF90EF900895B5
:1020F000CF93DF93EC01888D8823C9F0EA89FB89AF
:10210000808185FD05C0A889B9898C9186FD0FC0A5
:102110000FB607FCF5CF808185FFF2CFA889B9897A
:102120008C9185FFEDCFCE010E941010E7CFDF919B
:10213000CF91089580E090E0892B29F00E9406104D
:1021400081110C94000008950E9470221F920F923A
:102150000FB60F9211242F933F934F935F936F937A
:102160007F938F939F93AF93BF93EF93FF93809150
:10217000C2039091C303A091C403B091C503892BFE
:102180008A2B8B2B59F18091BF03E091C003F09112
:10219000C1039081892780838091C2039091C303FA
:1021A000A091C403B091C503181619061A061B06A0
:1021B0000CF03DC08091C2039091C303A091C40371
:1021C000B091C5030197A109B1098093C20390930F
:1021D000C303A093C403B093C50329C08091000139
:1021E000ECEEF0E0E4919FEF90930001E130B9F064
:1021F00098F0E230C9F4909170009D7F9093700048
:1022000091E09093B0009091B100987F946090938A
:10221000B1001092B30008C010926E0005C09091FA
:102220006F009D7F90936F0060E00E94A108FF9176
:10223000EF91BF91AF919F918F917F916F915F913E
:102240004F913F912F910F900FBE0F901F901895B7
:102250001F920F920FB60F9211242F933F934F931B
:102260005F936F937F938F939F93AF93BF93EF93FE
:10227000FF9386EC93E00E941010FF91EF91BF91C5
:10228000AF919F918F917F916F915F914F913F910E
:102290002F910F900FBE0F901F9018951F920F92C5
:1022A0000FB60F9211242F938F939F93EF93FF9369
:1022B000E091D603F091D7038081E091DC03F091A7
:1022C000DD0382FD12C090818091DF038F5F8F73E9
:1022D0002091E003821751F0E091DF03F0E0EA5330
:1022E000FC4F958F8093DF0301C08081FF91EF91B8
:1022F0009F918F912F910F900FBE0F901F90189567
:102300008F929F92AF92BF92CF92DF92EF92FF9205
:102310000F931F93CF93DF9300D000D0CDB7DEB7DC
:102320008C01FC018485811180C00E947214F80127
:10233000C080D18085849684A784B0886819790983
:102340008A099B090D2C000CEE08FF08A7019601D5
:102350000E947C200E941D1FF801618B728B838B71
:10236000948B9B01AC010E94C7202BED3FE049E418
:1023700050E40E947E1F4B015C01C701B6010E9420
:102380001F1F9B01AC01C501B4010E9433216B01E9
:102390007C01F80184819581BC01990F880B990B10
:1023A0000E941F1F9B01AC010E94C7202BED3FE044
:1023B00049E450E40E947E1F20E030E044EB53E407
:1023C0000E9433219B01AC01C701B6010E94C720C6
:1023D0000E94E0219B01AC01F80182819381BC0144
:1023E000990F880B990B29833A834B835C830E9456
:1023F0001F1F29813A814B815C810E947E1F6B01E6
:102400007C01F80186819781BC01990F880B990B9B
:102410000E941F1F9B01AC01C701B6010E94C7208B
:10242000F8016087718782879387F80160857185DD
:10243000828593850F900F900F900F90DF91CF9131
:102440001F910F91FF90EF90DF90CF90BF90AF90D2
:102450009F908F900895AF92BF92CF92DF92EF92AC
:10246000FF920F931F93CF93DF938C01EB016901D0
:102470007A01FC01E60FF71FE052FF4F2081CB01EC
:1024800088599F4F5B01AA0CBB1C880F991FF8014C
:10249000E80FF91F60817181072E000C880B990BE2
:1024A000211109C00E941F1F9B01AC01C701B60189
:1024B0000E94C72010C00E941F1F9B01AC01C701D2
:1024C000B6010E94C7209B01AC0160E070E084E38C
:1024D00093E40E94C62020E030E044E353E40E94ED
:1024E000332120E030E048EE54E40E947E1F20E0DB
:1024F00030E048E054E40E94C7200E94A521AC0EC1
:10250000BD1E950128553F4FC801820F931F0E94A1
:102510004308CB5BDF4FCC0FDD1FCC0FDD1FC00F9F
:10252000D11FC882D982EA82FB82DF91CF911F91AD
:102530000F91FF90EF90DF90CF90BF90AF900895F4
:102540000F931F93CF93DF938C01C0E0D0E020E086
:1025500030E044EB52E4BE01C8010E942B122196E8
:10256000C830D105A1F7DF91CF911F910F91089548
:10257000FC0120813181828193812817390719F06C
:10258000822F0C94A1080895CF93DF93EC019CB5A2
:102590009F7D9CBD9CB5937F9CBD9CB59C7F9CBD45
:1025A0009DB591609DBD8A810E94A1088C899D89FD
:1025B000DF91CF910C942D1461E00C94C41260E073
:1025C0000C94C4128EBD00000DB407FEFDCF8EB575
:1025D0000895EF92FF921F93CF93DF931F92CDB791
:1025E000DEB77C0169830E94DF126981862F0E9419
:1025F000E212182FC7010E94DC12812F0F90DF9189
:10260000CF911F91FF90EF90089561EE0C94E91225
:10261000EF92FF921F93CF93DF9300D0CDB7DEB739
:102620007C014A8369830E94DF126981862F8F7142
:1026300080620E94E212182F4A81842F0E94E212C7
:10264000C7010E94DC12812F0F900F90DF91CF9174
:102650001F91FF90EF900895CF92DF92EF92FF923B
:102660000F931F93CF93DF9300D01F92CDB7DEB7A8
:102670007C01142F2A835B8369830E94DF126981A6
:10268000862F8F7180620E94E212082FC12E5B811B
:10269000D52E2A81120F1C1531F0F60181916F01A0
:1026A0000E94E212F8CFC7010E94DC12802F0F9027
:1026B0000F900F90DF91CF911F910F91FF90EF90AE
:1026C000DF90CF900895EF92FF921F93CF93DF9307
:1026D0001F92CDB7DEB77C0169830E94DF1269814A
:1026E000862F8F710E94E2128FEF0E94E212182F44
:1026F000C7010E94DC12812F0F90DF91CF911F91B3
:10270000FF90EF9008950F931F93CF93DF938C0169
:10271000C62FD0E0FE01E351FF4F6491FC014781D9
:102720000E94081362E0C8010E946313FE01E6568E
:10273000FF4FE49141E050E001C0440FEA95EAF711
:10274000482B62E0C801DF91CF911F910F910C944B
:102750000813CF93DF93EC0160E00E94631381FDC7
:102760000EC0482F426060E0CE010E94081365E071
:1027700070E080E090E0DF91CF910C943814DF910D
:10278000CF910895CF93DF93EC010E94A91360E0ED
:10279000CE010E946313482F416060E0CE010E9489
:1027A000081340E767E0CE010E94081361E0CE0104
:1027B0000E94B8128985882349F02E85AE01475FB3
:1027C0005F4F6AE0CE010E942C1314C062E0CE017C
:1027D0000E946313EAE9F0E0E49121E030E001C0F7
:1027E000220FEA95EAF72095422F482362E0CE01B6
:1027F0000E9408136DE1CE010E94631381FF05C0A2
:10280000CE01DF91CF910C940513DF91CF91089504
:102810003FB7F89480912A0790912B07A0912C073D
:10282000B0912D0726B5A89B05C02F3F19F0019642
:10283000A11DB11D3FBFBA2FA92F982F8827820F46
:10284000911DA11DB11DBC01CD0142E0660F771F96
:10285000881F991F4A95D1F708958230910538F065
:10286000880F991F880F991F05970197F1F7089511
:102870008F929F92AF92BF92CF92DF92EF92FF9290
:102880006B017C010E9408144B015C01C114D1044E
:10289000E104F104F1F00E940814DC01CB01881975
:1028A0009909AA09BB09883E9340A105B10570F3B7
:1028B00021E0C21AD108E108F10888EE880E83E011
:1028C000981EA11CB11CC114D104E104F10419F734
:1028D000DDCFFF90EF90DF90CF90BF90AF909F90B3
:1028E0008F9008952FB7F89460912607709127076D
:1028F00080912807909129072FBF08951F920F926A
:102900000FB60F9211242F933F938F939F93AF9302
:10291000BF938091260790912707A0912807B09137
:1029200029073091250723E0230F2D3720F4019646
:10293000A11DB11D05C026E8230F0296A11DB11DE2
:10294000209325078093260790932707A0932807B5
:10295000B093290780912A0790912B07A0912C070B
:10296000B0912D070196A11DB11D80932A07909368
:102970002B07A0932C07B0932D07BF91AF919F9188
:102980008F913F912F910F900FBE0F901F90189530
:10299000CF92DF92EF92FF920F931F93E82FF92FC0
:1029A00005C0015011092109310961F19081962377
:1029B0009417B9F305C0015011092109310911F12A
:1029C000908196239413F7CFC12CD12CE12CF12CBC
:1029D0000AC08FEFC81AD80AE80AF80A0C151D05B4
:1029E0002E053F0579F080818623841791F36C2DA5
:1029F0007D2D8E2D9F2D1F910F91FF90EF90DF90D9
:102A0000CF90089560E070E080E090E01F910F911A
:102A1000FF90EF90DF90CF900895CF93DF93CDB7E5
:102A2000DEB7C058D1090FB6F894DEBF0FBECDBFD8
:102A3000789484B5826084BD84B5816084BD85B599
:102A4000826085BD85B5816085BD80916E008160A5
:102A500080936E001092810080918100826080934B
:102A6000810080918100816080938100809180004D
:102A70008160809380008091B10084608093B10078
:102A80008091B00081608093B00080917A00846072
:102A900080937A0080917A00826080937A0080919E
:102AA0007A00816080937A0080917A0080688093B8
:102AB0007A001092C10062E082E10E940C0A61E09B
:102AC00082E00E940C0A61E08EE00E940C0A60E045
:102AD0008FE00E940C0A8091FB059091FC05909379
:102AE0008805809387058091FD059091FE05909360
:102AF0008A05809389058091FF0590910006909347
:102B00008C0580938B05809101069091020690932D
:102B10008E0580938D058091030690910406909315
:102B2000900580938F0580910506909106069093FD
:102B300092058093910580910706909108069093E5
:102B40009405809393058091090690910A069093CD
:102B5000960580939505109298051092970510920E
:102B60009A051092990510929C0510929B0510925F
:102B70009E0510929D051092A00510929F0510923F
:102B8000A2051092A1051092A4051092A30510921F
:102B9000A6051092A505E7EAF5E0119225E0EF3AC7
:102BA000F207D9F713ED412E14E0512E07E8602EFD
:102BB00005E0702E0FE615E0C12CD12C8CE0382EEC
:102BC00092E0292E0E947214D20111966D937D938A
:102BD0008D939C9314971C92F301F080F2E06F0E9A
:102BE000711CD8018C918C3008F057C061E08F2D9A
:102BF0000E940C0AF8018081E82FF0E09F01220F6B
:102C0000331FE20FF31FED59FB4F9F2D9F73208160
:102C1000207CF22EF92AF082960128573B4FF901C9
:102C2000E851FF4F108231961082632D0E94AD2033
:102C3000FCE08F9FA001112420E030E0B901640F77
:102C4000751FFB01EE0FFF1FE60FF71FED59FB4F3E
:102C5000908196FD15C02F5F3F4F2C30310571F7E5
:102C600081110EC010928000209281001092850088
:102C700010928400B19A80916F00826080936F00FF
:102C8000D801EC91F0E0CF01880F991FE80FF91FF0
:102C9000ED59FB4F808180648083B5E14B0E511C60
:102CA0000D5F1F4FE3E0CE0ED11CF8E1CF16D1042B
:102CB00009F088CF87EC94E00E94A012E091D6033F
:102CC000F091D70382E08083E091D203F091D303A7
:102CD0001082E091D403F091D50380E180831092BB
:102CE000DE03E091DA03F091DB0386E08083E0917C
:102CF000D803F091D903808180618083E091D8036B
:102D0000F091D903808188608083E091D803F091AD
:102D1000D903808180688083E091D803F091D90342
:102D200080818F7D808383E092E00E94E10D80E0CE
:102D300090E00E943C20182F81E090E00E943C200F
:102D4000282F30E0322F2227C901810F911D909347
:102D500026068093250682E090E00E943C20182FF2
:102D600083E090E00E943C20282F30E0322F222781
:102D7000C901810F911D909328068093270689E150
:102D800092E00E94DF0D80912506909126060E9418
:102D9000CF0D80912506909126060E94ED0D81E0D1
:102DA00080932F0686E292E00E94DF0D8091250637
:102DB000909126060E94CF0D0EE110E022E330E054
:102DC00040E050E064EA70ED84E294E40E94710A0D
:102DD00009E110E027E330E040E050E062E570ED0B
:102DE00084EA94E40E94710A0AE010E02CE330E0E7
:102DF00040E050E060E070E08CED94E40E94710AE5
:102E000087EC94E00E94A01260E2262E63E0362E4A
:102E1000412C512C3E0121E4620E711C80912F0641
:102E20008823C9F10E9472140E941D1F60931F061F
:102E30007093200680932106909322068CE392E003
:102E40000E94DF0DC090C004D090C1040D2C000C76
:102E5000EE08FF08F7FE14C0E091C603F091C70327
:102E60000190F081E02D6DE286EC93E009956627F4
:102E70007727CB016C197D098E099F094AE003C0B1
:102E80004AE0C701B6010E948E0D87E492E00E94DD
:102E9000E10D10922F068091C0049091C104813001
:102EA000910581F11CF4892B59F0D1C4843091052E
:102EB00009F401C4059709F0CAC40E943405C7C4C7
:102EC00010923C0610923B0667E18091A00490911D
:102ED000A1040E94631380FDBDC487E793E00E94B4
:102EE000E10D99249394CC24C394D12C67E1809173
:102EF000A0049091A1040E946313082F017080FF29
:102F000061C5A5C4109284061092830610927F06B4
:102F100020918A062093DB0690918C06C92ED12C35
:102F200080918B06813021F0823009F49DC08FC4DE
:102F3000CA94CD2871F08FEF8093A70685E5809322
:102F4000A806A3E0B0E0B0938406A0938306209384
:102F5000A90610918D06923331F1A0F49E31B9F09B
:102F60009F3109F066C0E12FF0E0EE0FFF1FE8503F
:102F7000F94F108160E0812F0E940C0A812F0E947E
:102F8000480A0CC09734C1F09834A9F152C060E0EF
:102F9000812F0E940C0A812F0E947808BC01990F92
:102FA000880B990B42C06091F4067091F5068091F0
:102FB000F6069091F7063BC00E94D1082EEA37E44E
:102FC0004BEE51E460911306709114068091150642
:102FD000909116060E94332120E030E040E05FE34C
:102FE0000E947E1F6093170670931806809319063F
:102FF00090931A061CC0111102C085E101C084E142
:103000000E94480A24E630E0DC010E94B920A201B7
:1030100091010E9452202536310514F024E630E05B
:10302000B901072E000C880B990B0E941F1F0E94EC
:1030300008082091830630918406C9010196909377
:10304000840680938306F901E955F94F4DE04083EA
:10305000FC01E955F94F2AE02083E5E0F0E0F09328
:10306000C104E093C004F0C3913409F429C118F5F8
:103070009E3309F4FFC030F4923009F477C09C33DA
:1030800081F1A2C29F3309F408C1903409F09CC2B7
:1030900080918D068093140780918E06809315078A
:1030A000409114075091150760E070E080E89FE3BD
:1030B0000E94C30286C1993409F481C158F4933443
:1030C00009F47DC1943409F07FC287EC94E00E943A
:1030D000A01277C1903509F477C19A3509F40EC270
:1030E00073C280918D068093140780918E06809321
:1030F0001507809114079091150720918F06209352
:103100001407209190062093150782309105E1F075
:1031100064F4019709F055C144EF51E060E070E0BC
:1031200080E890E40E947F034CC183309105A9F0B0
:10313000049709F046C144EF51E060E070E080E898
:1031400090E40E946B013DC144EF51E060E070E00B
:1031500080E890E40E944F0234C144EF51E060E007
:1031600070E080E890E40E94DD012BC180918D0623
:103170008093140780918E06809315078091140721
:103180009091150763969FAF8EAF639765969FAF3B
:103190008EAF659767969FAF8EAF679769969FAF23
:1031A0008EAF69976B969FAF8EAF6B976D969FAF03
:1031B0008EAF6D976F969FAF8EAF6F97A1969FAFB3
:1031C0008EAFA19781EF9FEFD30111969C938E93C1
:1031D00013969C938E93129715969C938E931497A7
:1031E00017969C938E93169719969C938E93189787
:1031F0001B969C938E931A971D969C938E931C9767
:103200001F969C938E931E9783E690E09AA389A3C2
:1032100081E590E09CA38BA38BE490E09EA38DA31B
:1032200029E630E038A72FA345E450E05AA749A784
:103230004FE650E05CA74BA73EA72DA798AB8FA702
:1032400080E1E1E0F1E0DE01119601900D928A95B6
:10325000E1F7FE0131967F018E010F5D1F4F930153
:10326000AE014F5A5F4F60E070E080E090E40E9452
:10327000CE00A7C080918D068093140780918E06A2
:1032800080931507409114075091150760E070E096
:1032900080E89FE30E94490694C080918D06809348
:1032A000140780918E068093150740911407509162
:1032B000150760E070E080E89FE30E94B90681C0D6
:1032C00080E2E1E1F1E0DE01919601900D928A95B4
:1032D000E1F7BE016F5D7F4F86E990E00E9429070C
:1032E00068EC70E080E090E00E9438148EE591E098
:1032F000E3969FAF8EAFE397E5969FAF8EAFE597CE
:10330000E7969FAF8EAFE797E9969FAF8EAFE997AD
:10331000EB969FAF8EAFEB97ED969FAF8EAFED978D
:10332000EF969FAF8EAFEF97C158DF4F9983888399
:10333000CF57D04080E1E1E3F1E0DE01AF59BF4F6C
:1033400001900D928A95E1F780E1E1E4F1E0DE0180
:10335000AF5ABF4F01900D928A95E1F780E1D301FA
:103360001D928A95E9F78AE590E0F30197838683B9
:1033700073018E010F5A1F4F9E012F593F4FAE010F
:103380004F585F4F60E070E080E890E40E94CE000C
:1033900080E2E1E5F1E0DE01119601900D928A955F
:1033A000E1F7BE016F5F7F4F84EF91E00E94290734
:1033B00068EC70E080E090E00E94381402C00E9447
:1033C00031031092300600C181E080933006809175
:1033D0008D068093140780918E06809315072091A7
:1033E00014073091150780918F0680931407809100
:1033F00090068093150780911407909115073093DC
:1034000026062093250690932806809327068AEFA8
:1034100092E00E94E10D82E193E00E94DF0D809135
:103420002506909126060E94CF0D82E293E00E942D
:10343000DF0D80912706909128060E94CF0D809184
:10344000270690912806892BD1F0609125061091CE
:10345000260680E090E00E944420612F81E090E009
:103460000E944420609127061091280682E090E097
:103470000E944420612F83E090E00E94442086E374
:1034800093E00E94DF0D80912506909126060E9410
:10349000CF0D80912506909126060E94ED0D89E4BE
:1034A00093E00E94DF0D80912506909126060E94F0
:1034B000CF0D0EE110E022E330E040E050E064EA9E
:1034C00070ED84E294E40E94710A09E110E027E3C0
:1034D00030E040E050E062E570ED84EA94E40E9460
:1034E000710A0AE010E02CE330E040E050E060E0D8
:1034F00070E08CED94E40E94710A66C080933006FF
:1035000010918D061093C204A0918E06A093C3045F
:1035100014FB002700F9B0E024E735EF4FEF5FEF31
:103520000E94712024E630E040E050E00E945220EA
:10353000BA01A9014854544F6F4F7F4F509324064E
:103540004093230610FF0CC060E070E080E090E440
:10355000011103C00E947F0327C00E94C30224C040
:1035600011FF0CC060E070E080E090E4011103C046
:103570000E944F0219C00E94B90616C012FF0CC06B
:1035800060E070E080E090E4011103C00E946B01F4
:103590000BC00E94490608C013FF08C060E070E03D
:1035A00080E090E40E94DD011092C4048091C20486
:1035B00084FF03C01092C40407C085FDFBCF86FFC3
:1035C00003C082E08093C40480913006813059F4B6
:1035D000F0E5CF16D10479F5109230061092C104AF
:1035E0001092C00446C0823009F046C08091C404E5
:1035F000882321F18FEF8093A70685E58093A806A5
:1036000043E050E050938406409383068DE080931E
:10361000A9068AE08093AA060E94340584E090E01F
:103620009093C1048093C00481E080932F068BE5C2
:1036300093E00E94E10DE7E8F6E037C08FEF80935A
:10364000A70685E58093A806A3E0B0E0B0938406C2
:10365000A09383068DE08093A9068AE08093AA0652
:10366000E5E0F0E0F093C104E093C004109230066E
:1036700081E080932F06DFCF8FEF8093A70685E54B
:103680008093A80643E050E050938406409383065D
:103690008DE08093A9068AE08093AA0685E090E0F9
:1036A0009093C1048093C004E3CF119296E0EC396B
:1036B000F907D9F7CCC08091C404823009F0C0C0AA
:1036C0000E94D1082EEA37E44BEE51E460911306D4
:1036D0007091140680911506909116060E94332170
:1036E00020E030E040E05FE30E947E1F6093170619
:1036F000709318068093190690931A060E94A521CC
:10370000603171055CF0409123065091240660E021
:1037100070E080E090E40E947F0392C00E94310339
:1037200092E0892E912C28E0A22EB12CC12CD12C14
:103730001AE0E12E17EDF12E03E81FE320E030E858
:1037400044ED54E460E070E08AE794E40E94F90CF0
:1037500043E0842E912C18EBE12E1EE1F12E05E8BA
:103760001FE320E030E04AEF53E460E070E684EDD0
:1037700094E40E94F90C6AE0862E912C79E0A72E41
:10378000B12CC12CD12C16E6E12EFE2C06E81FE34D
:1037900020E030E844ED54E460E070E08AE794E42F
:1037A0000E94F90C409123065091240660E070E0DD
:1037B00080E090E40E94C3024091230650912406C9
:1037C00060E070E080E090E40E944F0240912306A8
:1037D0005091240660E070E080E090E40E94DD01FA
:1037E0000E94D1082EEA37E44BEE51E460911306B3
:1037F0007091140680911506909116060E9433214F
:1038000020E030E040E05FE30E947E1F60931706F7
:10381000709318068093190690931A0620E030E002
:1038200040E751E40E94181F87FF0AC04091230619
:103830005091240660E070E080E890E40E946B0103
:103840001092C1041092C00481E080932F060E9460
:103850009A10E4CA82E10E947808892B09F0A1C07D
:1038600089E892E00E94E10D8DE992E00E94E10D6D
:103870000E94721460933306709334068093350669
:103880009093360610E082E10E947808892B09F0B7
:103890004AC00E947214C0903306D0903406E09063
:1038A0003506F0903606DC01CB018C199D09AE0976
:1038B000BF09893B9B40A105B1052CF3B2E08B2EDB
:1038C000912C14E1A12EB12CC12CD12C1AE0E12EA7
:1038D00017EDF12E03E81FE32CE53FEF43EC54E432
:1038E00062E570ED84EA94E40E94F90C6EE170E008
:1038F00080E090E00E9438149AE0A92EB12CC12CEF
:10390000D12C18EBE12E1EE1F12E05E81FE32FE18B
:1039100035ED42E155E462E570ED84EA94E40E94FD
:10392000F90C11E0B0CF1123A1F080912B069091FA
:103930002C060E94ED0D88EA92E00E94DF0D809136
:103940002B0690912C060E94CF0D81E080933006CB
:1039500028C08DED92E00E94E10D0EE110E022E31F
:1039600030E040E050E064EA70ED84E294E40E94CC
:10397000710A09E110E027E330E040E050E060E048
:1039800070E08CED94E40E94710A0AE010E022E3FA
:1039900030E040E050E062E570ED84EA94E40E949B
:1039A000710A80913006823009F051CF8091C404B1
:1039B000882309F44CCF44E050E05093C104409375
:1039C000C00442CFE090A004F090A104C7010E947F
:1039D000DF1280E60E94E2128FEF0E94E212182F9F
:1039E000C7010E94DC12113208F477C062EEC701F1
:1039F0000E94E91262E070E080E090E00E943814DA
:103A0000E090A004F090A104D70117961C91802E9D
:103A1000101708F4812EF7018085811102C0181952
:103A200001C010E0C7010E94DF1281E60E94E2128D
:103A300037E8A32E36E0B32E8A0C8A1439F08FEFC4
:103A40000E94E212D5018D935D01F7CF112329F079
:103A50008FEF0E94E2121150F9CFC7010E94DC12D1
:103A600040E767E0C7010E940813802F90E0909321
:103A70003C0680933B0690927E06033008F4E7CE26
:103A8000209187062F3FF1F4209188062535D1F447
:103A90002091890630E003972817390799F482E5C9
:103AA00092E00E94DF0D60913B0670913C0687E832
:103AB00096E00E9411050E948A0DD092C104C09226
:103AC000C00408C083E792E00E94E10D1092C10497
:103AD0001092C00490922F0609CA012F91CFCF9265
:103AE000DF92EF92FF921F93CF93DF931092C9035F
:103AF0001092C80388EE93E0A0E0B0E08093CA0380
:103B00009093CB03A093CC03B093CD0385EF91E0CA
:103B10009093C7038093C60385EC90E09093D30302
:103B20008093D20384EC90E09093D5038093D403E8
:103B300080EC90E09093D7038093D60381EC90E0E3
:103B40009093D9038093D80382EC90E09093DB03A9
:103B50008093DA0386EC90E09093DD038093DC039E
:103B60001092DF031092E0031092E1031092E2033F
:103B700080E190E0909389048093880481E190E053
:103B800090938B0480938A0410928E0480E2809339
:103B90008F041092900485E08093960485E090E075
:103BA000A0E0B0E080939C0490939D04A0939E04B9
:103BB000B0939F041092910488E894E09093A1043C
:103BC0008093A0048FEF90E09093B3048093B204AD
:103BD00082E08093B4048CE68093B5041092B8041C
:103BE0001092B90480EF8093BA048093BB04809351
:103BF000BC041092BD041092BE041092BF04109237
:103C0000C1041092C0041092C2041092C304109216
:103C1000C40482E090E09093C6048093C504C7EC8E
:103C2000D4E070EDC72E77E0D72EE2E3EE2EF12C34
:103C300011E01D861E861F86188A198A1A8A1B8A19
:103C40001C8AD982C882FB82EA821D821C821F8262
:103C50001E821C870E9472146D877E878F87988BC7
:103C6000198A1A8A1B8A1C8A659625E0CF36D207E4
:103C700001F780918704AFE6B5E09FEF48EB5BE08A
:103C80008C3078F48C93282F30E0F901EE0FFF1F71
:103C90002E0F3F1FF901ED59FB4F528341838F5F78
:103CA00001C09C93139625E0A738B20749F780938B
:103CB000870483E090E09093FC058093FB0585E00A
:103CC00090E09093FE058093FD0584E090E0909352
:103CD00000068093FF0586E090E0909302068093B3
:103CE000010687E090E0909304068093030689E044
:103CF00090E0909306068093050688E090E090930C
:103D00000806809307068AE090E090930A06809365
:103D1000090661E08EE00E940C0A60E08FE00E94DC
:103D20000C0A8EE090E090930C0680930B068FE0D7
:103D300090E090930E0680930D0688EB9BE0A0E048
:103D4000B0E080930F0690931006A0931106B093F5
:103D5000120686E490E0909324068093230682E086
:103D600090E0909326068093250688EE93E090934A
:103D70002C0680932B068FEF90E090932E06809375
:103D80002D0681E080932F061092300680E197E2A5
:103D9000A0E0B0E08093370690933806A0933906F0
:103DA000B0933A0610923D0610927E0610927F065E
:103DB000109280061092820610928106109284065C
:103DC000109283061092DB0680E090E0A4EBB2E450
:103DD0008093DC069093DD06A093DE06B093DF06A9
:103DE00080E1E0EEF6E0DF01282F1D922A95E9F749
:103DF0001092F0061092F1061092F2061092F3065D
:103E00001092F4061092F5061092F6061092F7063C
:103E1000E1EEF1E0A8EFB6E001900D928A95E1F7AE
:103E2000DF91CF911F91FF90EF90DF90CF90089599
:103E30000E945A1F08F481E00895E89409C097FB96
:103E40003EF490958095709561957F4F8F4F9F4F71
:103E50009923A9F0F92F96E9BB279395F6958795B5
:103E600077956795B795F111F8CFFAF4BB0F11F478
:103E700060FF1BC06F5F7F4F8F4F9F4F16C088231F
:103E800011F096E911C0772321F09EE8872F762F55
:103E900005C0662371F096E8862F70E060E02AF096
:103EA0009A95660F771F881FDAF7880F9695879582
:103EB00097F90895990F0008550FAA0BE0E8FEEF57
:103EC00016161706E807F907C0F012161306E407DE
:103ED000F50798F0621B730B840B950B39F40A26D7
:103EE00061F0232B242B252B21F408950A2609F4B5
:103EF000A140A6958FEF811D811D08950E94911FFD
:103F00000C9402200E94F41F38F00E94FB1F20F046
:103F1000952311F00C94EB1F0C94F11F11240C94B9
:103F200036200E94132070F3959FC1F3950F50E047
:103F3000551F629FF001729FBB27F00DB11D639F5B
:103F4000AA27F00DB11DAA1F649F6627B00DA11D01
:103F5000661F829F2227B00DA11D621F739FB00DA7
:103F6000A11D621F839FA00D611D221F749F332717
:103F7000A00D611D231F849F600D211D822F762FB0
:103F80006A2F11249F5750409AF0F1F088234AF08D
:103F9000EE0FFF1FBB1F661F771F881F91505040F9
:103FA000A9F79E3F510580F00C94EB1F0C9436202E
:103FB0005F3FE4F3983ED4F3869577956795B79580
:103FC000F795E7959F5FC1F7FE2B880F911D96959A
:103FD000879597F9089597F99F6780E870E060E00A
:103FE00008959FEF80EC089500240A941616170692
:103FF00018060906089500240A94121613061406DA
:1040000005060895092E0394000C11F4882352F03C
:10401000BB0F40F4BF2B11F460FF04C06F5F7F4FF4
:104020008F4F9F4F089557FD9058440F551F59F0DB
:104030005F3F71F04795880F97FB991F61F09F3F95
:1040400079F087950895121613061406551FF2CFBE
:104050004695F1DF08C0161617061806991FF1CF0E
:1040600086957105610508940895E894BB27662735
:104070007727CB0197F90895F999FECF92BD81BDBD
:10408000F89A992780B50895262FF999FECF1FBA7F
:1040900092BD81BD20BD0FB6F894FA9AF99A0FBE71
:1040A00001960895052E97FB1EF400940E94692046
:1040B00057FD07D00E947C2007FC03D04EF40C94DF
:1040C000692050954095309521953F4F4F4F5F4F58
:1040D000089590958095709561957F4F8F4F9F4F74
:1040E00008950E949E20A59F900DB49F900DA49FBF
:1040F000800D911D11240895A1E21A2EAA1BBB1B4D
:10410000FD010DC0AA1FBB1FEE1FFF1FA217B307A3
:10411000E407F50720F0A21BB30BE40BF50B661FB9
:10412000771F881F991F1A9469F76095709580957D
:1041300090959B01AC01BD01CF010895A29FB001F4
:10414000B39FC001A39F700D811D1124911DB29FCB
:10415000700D811D1124911D0895991B79E004C0F3
:10416000991F961708F0961B881F7A95C9F78095B6
:1041700008950E949E20B7FF0895821B930B089517
:10418000EE0FFF1F0590F491E02D09945058BB27C6
:10419000AA270E94DE200C9402200E94F41F38F00F
:1041A0000E94FB1F20F039F49F3F19F426F40C9471
:1041B000F11F0EF4E095E7FB0C94EB1FE92F0E9432
:1041C000132058F3BA17620773078407950720F086
:1041D00079F4A6F50C9435200EF4E0950B2EBA2F49
:1041E000A02D0B01B90190010C01CA01A0011124FD
:1041F000FF27591B99F0593F50F4503E68F11A16A9
:10420000F040A22F232F342F4427585FF3CF469539
:1042100037952795A795F0405395C9F77EF41F165B
:10422000BA0B620B730B840BBAF09150A1F0FF0F25
:10423000BB1F661F771F881FC2F70EC0BA0F621F11
:10424000731F841F48F4879577956795B795F79501
:104250009E3F08F0B0CF9395880F08F09927EE0F96
:104260009795879508950E9447210C9402200E94FB
:10427000FB1F58F00E94F41F40F029F45F3F29F023
:104280000C94EB1F51110C9436200C94F11F0E94DA
:10429000132068F39923B1F3552391F3951B550B24
:1042A000BB27AA2762177307840738F09F5F5F4F09
:1042B000220F331F441FAA1FA9F335D00E2E3AF048
:1042C000E0E832D091505040E695001CCAF72BD060
:1042D000FE2F29D0660F771F881FBB1F26173707B1
:1042E0004807AB07B0E809F0BB0B802DBF01FF27E3
:1042F00093585F4F3AF09E3F510578F00C94EB1FB6
:104300000C9436205F3FE4F3983ED4F3869577957E
:104310006795B795F7959F5FC9F7880F911D96959B
:10432000879597F90895E1E0660F771F881FBB1FF7
:10433000621773078407BA0720F0621B730B840BA4
:10434000BA0BEE1F88F7E09508950E94AC2168949F
:10435000B1110C94362008950E941B2088F09F57BD
:1043600098F0B92F9927B751B0F0E1F0660F771F99
:10437000881F991F1AF0BA95C9F714C0B13091F08F
:104380000E943520B1E008950C943520672F782FD6
:104390008827B85F39F0B93FCCF386957795679554
:1043A000B395D9F73EF490958095709561957F4FC0
:1043B0008F4F9F4F08950E945A1F08F48FEF089562
:1043C0009F930E94EA210F9007FCEE5F0C9413224A
:1043D0000C94F11F0E941B20D8F3E894E0E0BB2767
:1043E0009F57F0F02AED3FE049EC06C0EE0FBB0FFF
:1043F000661F771F881F28F0B23A62077307840789
:1044000028F0B25A620B730B840BE3959A9572F7FE
:10441000803830F49A95BB0F661F771F881FD2F73C
:1044200090480C942922EF93E0FF07C0A2EA2AEDFE
:104430003FE049EC5FEB0E94DE200E9402200F90DB
:10444000039401FC9058E8E6F0E00C9435229F3F7D
:1044500031F0915020F4879577956795B795880F3F
:10446000911D9695879597F908959F938F937F93C4
:104470006F93FF93EF939B01AC010E947E1FEF911E
:10448000FF910E9449222F913F914F915F910C948F
:104490007E1FDF93CF931F930F93FF92EF92DF92D4
:1044A0007B018C01689406C0DA2EEF010E94911FF7
:1044B000FE01E894A5912591359145915591A6F37A
:1044C000EF010E94DE20FE019701A801DA9469F74E
:1044D000DF90EF90FF900F911F91CF91DF910895A2
:1044E00081E090E0F8940C947E22FB01DC0102C094
:1044F00001900D9241505040D8F70895F894FFCFA5
:10450000FF000000005A005A00B400B4005A005ADC
:10451000000000D242000096420000C84100001B8B
:10452000430000DC4200008C420000C8420000A0B2
:1045300042000032000000320000000000000000D5
:10454000006900280019005A006E004600640050FF
:1045500000000020430000A0410000B4420000B46D
:104560004200008C420000DC420000C8420000A073
:10457000420000B4005A005A00B40000005A005A29
:1045800000B40000005A005A000000B4005A005A5B
:1045900000B400B4005A005A00000000005A005A4B
:1045A000000000000000000E01000000005A00B4EE
:1045B000005A005A000E015A000E010E015A000E58
:1045C00001000000005A000E01B400B4000E015AB0
:1045D00000000000000000B400000000000000B473
:1045E000000E000F0010001100120013001400153F
:1045F000000000000031109A0FC90F7810FA0FD890
:104600000FEC0F4C6F6164696E67206D7920436F0A
:104610006E6669672E2E2E20004D792041646472EB
:104620006573733A2000477569742053746172741E
:104630002C20616464726573733A20005374617452
:1046400065204E6F3A200020202052756E6E696EF4
:10465000670072656365697665642076616C69647C
:1046600020536372617463682052462064617461F0
:104670003A2000696E76616C69642064617461201F
:10468000726563656976656400434F4E464947200D
:104690004B455920505245535345442100576169B9
:1046A000742033732E2E2E00474F494E4720544F0F
:1046B00020434F4E464947204D4F444520574954CB
:1046C000482044454641554C5420434F4E464947A7
:1046D00020414444524553532E2E2E3A00434F4E10
:1046E000464947204D4F4445204953204E4F5420C2
:1046F0004143434553534544210052656365697600
:1047000065204E65772061646472657373696E67B6
:1047100021004D79206E6577204164647265737362
:104720003A0053656E64696E6720746F204164645B
:10473000726573733A0053657420616464726573C3
:104740007320746F2052463A00536574206164648C
:104750007265737320646F6E653A00524320417531
:10476000746F204D6F64652C20476F746F20524327
:104770002053746174650052462064617461206343
:104780006F6D6521002D0053656E7420627566663D
:1047900065723A200053656E74204641494C2000F2
:1047A0000D0A00436865636B204E524632344C302C
:0E47B0003120436F6E6E656374696F6E210079
:00000001FF
