:100000000C945E000C9486000C9486000C94860080
:100010000C9486000C9486000C9486000C943C068C
:100020000C9486000C9486000C9486000C941607A1
:100030000C9486000C9486000C9486000C94860028
:100040000C94F2050C9486000C94E4060C94BE0605
:100050000C9486000C9486000C9486000C94860008
:100060000C9486000C9486000200000000240027F7
:10007000002A0000000000250028002B00040404D2
:100080000404040404020202020202030303030341
:10009000030102040810204080010204081020011E
:1000A0000204081020000000080002010000030400
:1000B00007000000000000000000F30711241FBE2D
:1000C000CFEFD8E0DEBFCDBF11E0A0E0B1E0E4E1CA
:1000D000F7E102C005900D92A432B107D9F723E0F1
:1000E000A4E2B1E001C01D92A134B207E1F710E033
:1000F000CEE5D0E004C02197FE010E947D0BCD35F6
:10010000D107C9F70E9407090C94880B0C940000D2
:1001100090E0FC01EB55FF4F2491FC01EF56FF4F9F
:100120003491FC01E358FF4FE491EE2309F43CC005
:10013000222339F1233091F038F42130A9F0223014
:1001400001F584B58F7D12C0273091F02830A1F0E1
:100150002430B9F4809180008F7D03C080918000AD
:100160008F77809380000DC084B58F7784BD09C0E0
:100170008091B0008F7703C08091B0008F7D809315
:10018000B000F0E0EE0FFF1FED58FF4FA591B491C6
:100190009FB7F894611104C08C913095382302C048
:1001A000EC913E2B3C939FBF0895CF93DF9390E05B
:1001B000FC01EF56FF4F2491FC01E358FF4F84915F
:1001C000882361F190E0880F991FFC01E759FF4FE8
:1001D000C591D491FC01ED58FF4FA591B4916111E7
:1001E00009C09FB7F8948881209582238883EC9179
:1001F0002E230BC0623061F49FB7F8948881322FB0
:10020000309583238883EC912E2B2C939FBF06C0BF
:100210008FB7F894E8812E2B28838FBFDF91CF9181
:1002200008958E3008F08E508770806480937C0033
:1002300080917A00806480937A0080917A0086FDB4
:10024000FCCF809178002091790090E0922B089566
:100250003FB7F8948091600190916101A091620193
:10026000B091630126B5A89B05C02F3F19F00196F8
:10027000A11DB11D3FBFBA2FA92F982F8827820F2C
:10028000911DA11DB11DBC01CD0142E0660F771F7C
:10029000881F991F4A95D1F708958F929F92AF9228
:1002A000BF92CF92DF92EF92FF926B017C010E948E
:1002B00028014B015C01C114D104E104F104F1F007
:1002C0000E942801DC01CB0188199909AA09BB0900
:1002D000883E9340A105B10570F321E0C21AD10810
:1002E000E108F10888EE880E83E0981EA11CB11C7D
:1002F000C114D104E104F10419F7DDCFFF90EF90B0
:10030000DF90CF90BF90AF909F908F9008954F92C5
:100310005F926F927F928F929F92AF92BF92CF9295
:10032000DF92EF92FF920F931F93CF93DF9300D052
:1003300000D01F92CDB7DEB78B0129013A01909111
:100340000001891721F09F3F09F045C205C0E8E68A
:10035000F0E024912D837CC080930001E8E6F0E07A
:1003600094919D839F3F09F436C2913009F449C0AE
:1003700058F1923009F06CC01092B0001092B100A8
:100380009091B00092609093B0009091B100916014
:100390009093B100282F30E0F901E358FF4FE4912A
:1003A000F0E0EE0FFF1FED58FF4F45915491509331
:1003B000550140935401F901EF56FF4FE491E0934A
:1003C000560192E09D8303C214BC15BC94B59260A3
:1003D00094BD95B5916095BD282F30E0F901E358A3
:1003E000FF4FE491F0E0EE0FFF1FED58FF4F4591F6
:1003F0005491F901EF56FF4FE491E0934B011D82B8
:10040000E6C1109280001092810090918100986066
:100410009093810090918100916090938100282FAA
:1004200030E0F901E358FF4FE491F0E0EE0FFF1FD9
:10043000ED58FF4F45915491F901EF56FF4FE4916C
:10044000E0934A0161E00E94D50021E02D8389C03C
:100450002D8127FDC0C161E00E94D5008D818D7F77
:1004600009F07FC04801A12CB12C60E072E18AE75D
:1004700090E0A50194010E94070B29833A834B83E6
:100480005C8369017A0181E0C81AD108E108F108AA
:100490009FEFC916D104E104F10409F008F44EC03D
:1004A00060E472E48FE090E0A50194010E94070BE4
:1004B00069017A0181E0C81AD108E108F1089D813B
:1004C000923009F52FEFC216D104E104F10409F0CE
:1004D00008F444C160E970ED83E090E0A501940167
:1004E0000E94070B69017A0181E0C81AD108E1086E
:1004F000F1089FEFC916D104E104F10411F008F0EE
:10050000BAC083E027C02FEFC216D104E104F10482
:10051000B9F0B0F068E478EE81E090E0A5019401D4
:100520000E94070B69017A0181E0C81AD108E1082D
:10053000F1089D81992309F413C1DCC081E001C059
:1005400082E09D81911106C095B5987F892B85BD6C
:1005500044C085E09091B100987F892B8093B100D1
:100560003CC04801A12CB12C60E072E18AE790E028
:10057000A50194010E94070B69017A0181E0C81A64
:10058000D108E108F108C114D10491E0E906F104B1
:1005900088F068E478EE81E090E0A50194010E9483
:1005A000070B69017A0181E0C81AD108E108F10856
:1005B00083E001C081E09D81913079F490918100C8
:1005C000987F892B80938100411451046104710448
:1005D00049F42FEF3FEFA9012CC0411451046104ED
:1005E000710471F0D801AA0FBB1FA30192010E94F0
:1005F000260B28EE33E040E050E00E94390B03C0A8
:100600002FEF3FEFA9018D81813099F0823019F1F0
:100610008111E1C0C7BC2093500130935101409338
:1006200052015093530180916E00826080936E005E
:10063000D2C0D0928900C092880020934C013093A0
:100640004D0140934E0150934F0180916F008260A5
:1006500080936F00C0C0C092B300209357013093C5
:1006600058014093590150935A0180917000826063
:1006700080937000B0C068E478EE81E090E0A5015E
:1006800094010E94070B69017A0191E0C91AD1080F
:10069000E108F1082FEFC216D104E104F10441F1A1
:1006A00038F164E274EF80E090E0A50194010E94CB
:1006B000070B69017A0181E0C81AD108E108F10845
:1006C0009FEFC916D104E104F10409F008F441CF09
:1006D00062E17AE780E090E0A50194010E94070BB7
:1006E00069017A0181E0C81AD108E108F10819C04E
:1006F00084E030CF2FEFC216D104E104F10409F0F9
:1007000008F463C062E17AE780E090E0A50194011B
:100710000E94070B69017A0191E0C91AD108E1082A
:10072000F1088FEFC816D104E104F104A9F0A0F09C
:1007300089819A81AB81BC812AE0B595A79597956F
:1007400087952A95D1F76C017D0121E0C21AD10865
:10075000E108F10887E0FECE86E0FCCE82E0FACE2A
:100760008FEFC816D104E104F10469F160F162E190
:100770007AE780E090E0A50194010E94070B6901EF
:100780007A0191E0C91AD108E108F1082FEFC216E9
:10079000D104E104F104A9F0A0F089819A81AB8130
:1007A000BC813AE0B595A795979587953A95D1F78D
:1007B0006C017D0121E0C21AD108E108F10885E051
:1007C000C3CE84E0C1CE83E0BFCE84E0BACE61E088
:1007D0000E94D50047CE0F900F900F900F900F9072
:1007E000DF91CF911F910F91FF90EF90DF90CF900D
:1007F000BF90AF909F908F907F906F905F904F9041
:100800000895CF92DF92EF92FF920F931F93CF93B1
:10081000DF936C017A018B01C0E0D0E0CE15DF05DB
:1008200081F0D8016D918D01D601ED91FC9101907F
:10083000F081E02DC6010995892B11F02196EECFAC
:100840007E01C701DF91CF911F910F91FF90EF9033
:10085000DF90CF900895089580E090E00895FC0126
:10086000538D448D252F30E0842F90E0821B930B15
:10087000541710F0CF96089501970895FC01918DBB
:10088000828D981761F0828DDF01A80FB11D5D96F2
:100890008C91928D9F5F9F73928F90E008958FEF60
:1008A0009FEF0895FC01918D828D981731F0828D14
:1008B000E80FF11D858D90E008958FEF9FEF08956B
:1008C000FC01918D228D892F90E0805C9F4F821BCF
:1008D00091098F739927089584E691E00E9460043E
:1008E00021E0892B09F420E0822F0895FC01848DFA
:1008F000DF01A80FB11DA35ABF4F2C91848D90E04A
:1009000001968F739927848FA689B7892C93A08924
:10091000B1898C91837080648C93938D848D9813AE
:1009200006C00288F389E02D80818F7D8083089541
:10093000EF92FF920F931F93CF93DF93EC0181E02F
:10094000888F9B8D8C8D981305C0E889F9898081EB
:1009500085FD26C0F62E0B8D10E00F5F1F4F0F7325
:100960001127E02E8C8DE8120CC00FB607FCFACFD1
:10097000E889F989808185FFF5CFCE010E94760450
:10098000F1CF8B8DFE01E80FF11DE35AFF4FF0828E
:100990009FB7F8940B8FEA89FB89808180620AC037
:1009A0009FB7F894EE89FF896083E889F98980818F
:1009B0008370806480839FBF81E090E0DF91CF915E
:1009C0001F910F91FF90EF900895CF93DF93EC016B
:1009D000888D8823C9F0EA89FB89808185FD05C05F
:1009E000A889B9898C9186FD0FC00FB607FCF5CF99
:1009F000808185FFF2CFA889B9898C9185FFEDCFE1
:100A0000CE010E947604E7CFDF91CF91089580E078
:100A100090E0892B29F00E946C0481110C94000055
:100A20000895CF92DF92EF92FF92CF93DF93EC0184
:100A3000603282E078070CF03DC077FD06C0653B70
:100A400071052CF064EB70E002C060E070E0898119
:100A500028E830E06901C81AD10887FDD394CC0C8E
:100A6000DD1CCC0CDD1C0D2C000CEE08FF088A816F
:100A700028E532E0281B310987FD3395220F331F0B
:100A8000220F331FC901330FAA0BBB0B9C01AD0111
:100A90002C193D094E095F09DB010E94310B24EB43
:100AA00030E040E050E00E94070BC20ED31EE41E6F
:100AB000F51EB60138813C3080F5298188E890E048
:100AC000821B910927FD9395880F991F880F991F05
:100AD0006817790784F08A8148E552E0481B51097C
:100AE00087FD5395440F551F440F551FCB014617E3
:100AF00057070CF4CA010297880F991F4FB7F89453
:100B0000232F30E0F901EE0FFF1F2E0F3F1FF901D9
:100B1000EA5DFE4F928381834FBFDF91CF91FF90BB
:100B2000EF90DF90CF9008951F93CF93DF93EC0168
:100B3000162F88818C3008F04EC061E0812F0E9412
:100B4000D5008881E82FF0E09F01220F331FE20FCC
:100B5000F31FEA5DFE4F1F739081907C192B108369
:100B600019821A826CE00E946A0B9CE0899FB00196
:100B7000112440E050E09B01240F351FF901EE0FD6
:100B8000FF1F2E0F3F1FF901EA5DFE4F908196FD7A
:100B900016C04F5F5F4F4C30510569F781110FC090
:100BA0001092800082E08093810010928500109264
:100BB0008400B19A80916F00826080936F00E88119
:100BC000F0E0CF01880F991FE80FF91FEA5DFE4F93
:100BD0008081806480838881DF91CF911F91089507
:100BE0000E94830B1F920F920FB60F9211242F9326
:100BF0003F938F939F93AF93BF9380915C019091AC
:100C00005D01A0915E01B0915F0130915B0123E035
:100C1000230F2D3720F40196A11DB11D05C026E834
:100C2000230F0296A11DB11D20935B0180935C01EF
:100C300090935D01A0935E01B0935F01809160018C
:100C400090916101A0916201B09163010196A11D93
:100C5000B11D8093600190936101A0936201B093F4
:100C60006301BF91AF919F918F913F912F910F9011
:100C70000FBE0F901F9018951F920F920FB60F92F4
:100C800011242F933F934F935F936F937F938F9391
:100C90009F93AF93BF93EF93FF93809157019091F0
:100CA0005801A0915901B0915A01892B8A2B8B2BA5
:100CB00059F190915601E0915401F09155018081D4
:100CC000892780838091570190915801A091590103
:100CD000B0915A01181619061A061B060CF03DC0F1
:100CE0008091570190915801A0915901B0915A01FA
:100CF0000197A109B1098093570190935801A093DE
:100D00005901B0935A0129C080910001E8E6F0E052
:100D1000E4919FEF90930001E130B9F098F0E23058
:100D2000C9F4909170009D7F9093700091E0909332
:100D3000B0009091B100987F94609093B1001092B0
:100D4000B30008C010926E0005C090916F009D7FA7
:100D500090936F0060E00E948800FF91EF91BF9137
:100D6000AF919F918F917F916F915F914F913F9143
:100D70002F910F900FBE0F901F9018951F920F92FA
:100D80000FB60F9211242F933F934F935F936F935E
:100D90007F938F939F93AF93BF93EF93FF9384E6DB
:100DA00091E00E947604FF91EF91BF91AF919F91E6
:100DB0008F917F916F915F914F913F912F910F9004
:100DC0000FBE0F901F9018951F920F920FB60F92A3
:100DD00011242F938F939F93EF93FF93E0917401CE
:100DE000F09175018081E0917A01F0917B0182FDA3
:100DF00012C0908180917D018F5F8F7320917E0161
:100E0000821751F0E0917D01F0E0EC59FE4F958F93
:100E100080937D0101C08081FF91EF919F918F911F
:100E20002F910F900FBE0F901F9018951F920F9249
:100E30000FB60F9211242F933F934F935F936F93AD
:100E40007F938F939F93AF93BF93EF93FF93809183
:100E5000240187FF05C010928500109284001BC0FA
:100E600020912401022E000C330B8091250190E08B
:100E70002817390784F480912401082E000C990B5F
:100E8000FC01EE0FFF1F8E0F9F1FFC01EA5DFE4F5E
:100E9000808186FD15C0809124018F5F809324019D
:100EA00020912401022E000C330B8091250190E04B
:100EB00028173907C4F4809124018C3064F113C0E1
:100EC00080912401082E000C990BFC01EE0FFF1FEE
:100ED0008E0F9F1FFC01EA5DFE4F808160E08F73E3
:100EE0000E948800D8CF809184009091850004965C
:100EF00080349C4918F480E49CE905C0809184000A
:100F000090918500049690938900809388008FEFDC
:100F1000809324013BC02091840030918500809112
:100F20002401082E000C990BFC01EE0FFF1F8E0F01
:100F30009F1FFC01EA5DFE4F81819281820F931F0A
:100F4000909389008093880080912401082E000CE2
:100F5000990BFC01EE0FFF1F8E0F9F1FFC01EA5D36
:100F6000FE4F808186FF12C080912401082E000C64
:100F7000990BFC01EE0FFF1F8E0F9F1FFC01EA5D16
:100F8000FE4F808161E08F730E948800FF91EF9196
:100F9000BF91AF919F918F917F916F915F914F9191
:100FA0003F912F910F900FBE0F901F901895FC014D
:100FB000909125019C30A0F481E0890F8093250158
:100FC0009083892F90E0FC01EE0FFF1F8E0F9F1F73
:100FD000FC01EA5DFE4F88EB9BE0928381830895DC
:100FE0008FEF80830895CF93DF9310926701109263
:100FF000660188EE93E0A0E0B0E0809368019093F2
:101000006901A0936A01B0936B0185E191E090932F
:1010100065018093640185EC90E090937101809369
:10102000700184EC90E0909373018093720180ECE6
:1010300090E0909375018093740181EC90E090931F
:1010400077018093760182EC90E090937901809310
:10105000780186EC90E090937B0180937A01109266
:101060007D0110927E0110927F011092800180E13B
:1010700090E0909302028093010281E190E09093CE
:101080000402809303021092070280E28093080218
:101090001092090285E080930F0285E090E0A0E0C5
:1010A000B0E08093150290931602A0931702B093BC
:1010B000180210920A0282E090E090931A02809344
:1010C000190261E08EE00E94D50060E08FE00E948E
:1010D000D5008EE090E090931C0280931B028FE07D
:1010E00090E090931E0280931D0288EB9BE0A0E0AD
:1010F000B0E080931F0290932002A0932102B0934E
:1011000022028FE292E00E94D70782E392E00E94DF
:10111000D70785E392E00E94D70788E392E00E9418
:10112000D7078BE392E00E94D7078EE392E00E94FC
:10113000D70781E492E00E94D70784E492E00E94FE
:10114000D707C0E0D0E0CE01895B9D4F0E94D70752
:101150002396C831D105B9F781E080935F0280EF13
:1011600080936002809361028093620280936302A5
:1011700010926402109265021092660280E197E27A
:10118000A0E0B0E080937B0290937C02A0937D026C
:10119000B0937E02109285021092CA021092CC0285
:1011A0001092CD021092CF021092CE02109206033E
:1011B00080E090E0A4EBB2E48093070390930803EF
:1011C000A0930903B0930A0380E1EBE0F3E0DF01B1
:1011D000982F1D929A95E9F710921B0310921C0309
:1011E00010921D0310921E0310921F0310922003F1
:1011F0001092210310922203E1E0F1E0A3E2B3E0B8
:1012000001900D928A95E1F7DF91CF91089578943E
:1012100084B5826084BD84B5816084BD85B58260FB
:1012200085BD85B5816085BD80916E0081608093AC
:101230006E00109281008091810082608093810015
:101240008091810081608093810080918000816025
:10125000809380008091B10084608093B100809180
:10126000B00081608093B00080917A0084608093A8
:101270007A0080917A00826080937A0080917A006F
:10128000816080937A0080917A00806880937A00F0
:101290001092C100E0917401F091750182E08083A9
:1012A000E0917001F09171011082E0917201F09172
:1012B00073018FEC808310927C01E0917801F091B2
:1012C000790186E08083E0917601F0917701808159
:1012D00080618083E0917601F09177018081886060
:1012E0008083E0917601F09177018081806880832E
:1012F000E0917601F091770180818F7D808362E0BB
:1013000082E10E94D50061E082E00E94D50061E0A8
:101310008EE00E94D50060E08FE00E94D50063E07F
:1013200070E08FE292E00E94940564E070E082E356
:1013300092E00E94940565E070E085E392E00E94EF
:10134000940566E070E088E392E00E94940567E00F
:1013500070E08BE392E00E94940568E070E08EE319
:1013600092E00E94940569E070E081E492E00E94BE
:1013700094056AE070E084E492E00E94940584E1C0
:101380000E9411019093800280937F0285E10E9468
:101390001101EC01A0917F02B091800224E630E0BF
:1013A0000E94760B20E2822E23E0922EA12CB12CFB
:1013B000A50194010E94070B69017A013093800214
:1013C00020937F0224E630E0DE010E94760BA50127
:1013D00094010E94070B3093820220938102C20E77
:1013E000D31ED7FE03C08FEFC81AD80AD594C7946E
:1013F000D0928402C092830222E330E040E050E0C9
:1014000063E972E0809119020E94870162E370E053
:1014100080E090E00E944D016EE170E080E090E09D
:101420000E944D0127E330E040E050E066E275E0C5
:10143000809119020E94870167E370E080E090E0EC
:101440000E944D0169E170E080E090E00E944D0152
:101450002CE330E040E050E060EE76E0809119024D
:101460000E9487016CE370E080E090E00E944D01F3
:101470006AE070E080E090E00E944D016AE570E073
:101480008FE292E00E9411056AE570E085E392E048
:101490000E9411056AE570E08BE392E00E9411055D
:1014A0006AE570E081E492E00E9411056AE570E06F
:1014B00082E392E00E9411056AE570E088E392E021
:1014C0000E9411056AE570E08EE392E00E9411052A
:1014D0006AE570E084E492E00E94110568EE73E032
:1014E00080E090E00E944D0168E270E082E392E0CB
:1014F0000E94110566E470E080E090E00E944D01DA
:1015000068E270E08FE292E00E94110566E470E00C
:1015100080E090E00E944D016AE570E082E392E095
:101520000E9411056CE370E085E392E00E941105D2
:1015300068E270E084E492E00E94110566E470E0E5
:1015400080E090E00E944D016CE870E081E492E060
:101550000E94110566E470E080E090E00E944D0179
:101560006AE570E084E492E00E9411056CE370E0AB
:1015700081E492E00E9411056CE870E088E392E05B
:101580000E94110566E470E080E090E00E944D0149
:101590006CE870E085E392E00E94110566E470E07B
:1015A00080E090E00E944D016AE570E088E392E0FF
:1015B0000E94110568E770E08FE292E00E94110539
:1015C0006CE870E08EE392E00E94110566E470E042
:1015D00080E090E00E944D0168E270E08BE392E0D1
:1015E0000E94110566E470E080E090E00E944D01E9
:1015F0006AE570E08EE392E00E94110568E770E012
:101600008BE392E00E9411050E9407056DCF052E25
:1016100097FB1EF400940E941E0B57FD07D00E94FA
:10162000390B07FC03D04EF40C941E0B50954095DB
:10163000309521953F4F4F4F5F4F0895909580957E
:10164000709561957F4F8F4F9F4F08950E945B0B60
:10165000A59F900DB49F900DA49F800D911D112406
:101660000895B7FF0C94260B0E94260B821B930B48
:101670000895A1E21A2EAA1BBB1BFD010DC0AA1FD3
:10168000BB1FEE1FFF1FA217B307E407F50720F0EB
:10169000A21BB30BE40BF50B661F771F881F991F66
:1016A0001A9469F760957095809590959B01AC01AF
:1016B000BD01CF010895A29FB001B39FC001A39FB8
:1016C000700D811D1124911DB29F700D811D11247B
:1016D000911D0895991B79E004C0991F961708F091
:1016E000961B881F7A95C9F7809508950E945B0B19
:1016F000B7FF0895821B930B0895EE0FFF1F05900F
:10170000F491E02D099481E090E0F8940C94880B1A
:04171000F894FFCF7B
:10171400FF0E000F0010001100120013001400153A
:101724000000000000980401042F04E50460043E56
:041734000452040057
:00000001FF
