:100000000C9467000C948F000C948F000C948F005C
:100010000C948F000C948F000C948F000C949D0115
:100020000C948F000C948F000C948F000C94C806D5
:100030000C948F000C948F000C948F000C948F0004
:100040000C94C3080C948F000C94AD040C9487049A
:100050000C948F000C948F000C948F000C948F00E4
:100060000C948F000C948F000001020304050A0B0E
:100070000C0D0E0F111213141516020000000024AF
:100080000027002A0000000000250028002B0004A3
:10009000040404040404040202020202020303032F
:1000A0000303030102040810204080010204081029
:1000B00020010204081020000000080002010000D6
:1000C000030407000000000000000000A50C11243C
:1000D0001FBECFEFD8E0DEBFCDBF11E0A0E0B1E0A2
:1000E000E4E0FDE102C005900D92AA37B107D9F70F
:1000F00023E0AAE7B1E001C01D92A63DB207E1F7F7
:1001000010E0C7E6D0E004C02197FE010E946C0E0B
:10011000C636D107C9F70E940D090C94800E0C94C5
:100120000000CF92DF92EF92FF920F931F93CF9335
:10013000DF936C017A018B01C0E0D0E0CE15DF05C2
:1001400089F0D8016D918D01D601ED91FC9101905E
:10015000F081E02DC6010995892B11F47E0102C0C2
:100160002196ECCFC701DF91CF911F910F91FF90A6
:10017000EF90DF90CF900895089580E090E008958B
:10018000FC01538D448D252F30E0842F90E0821B9D
:10019000930B541710F0CF96089501970895FC0122
:1001A000918D828D981761F0828DDF01A80FB11DAE
:1001B0005D968C91928D9F5F9F73928F90E00895D2
:1001C0008FEF9FEF0895FC01918D828D981731F08C
:1001D000828DE80FF11D858D90E008958FEF9FEFE0
:1001E0000895FC01918D228D892F90E0805C9F4FB6
:1001F000821B91098F739927089586EB91E00E94E5
:10020000F10021E0892B09F420E0822F0895FC0100
:10021000848DDF01A80FB11DA35ABF4F2C91848D8F
:1002200090E001968F739927848FA689B7892C93C4
:10023000A089B1898C9180648C93938D848D98135F
:1002400006C00288F389E02D80818F7D8083089528
:10025000EF92FF920F931F93CF93DF93EC0181E016
:10026000888F9B8D8C8D981305C0E889F9898081D2
:1002700085FD24C0F62E0B8D10E00F5F1F4F0F730E
:100280001127E02E8C8DE8120CC00FB607FCFACFB8
:10029000E889F989808185FFF5CFCE010E940701A9
:1002A000F1CF8B8DFE01E80FF11DE35AFF4FF08275
:1002B0000B8FEA89FB898081806207C0EE89FF8904
:1002C0006083E889F98980818064808381E090E09F
:1002D000DF91CF911F910F91FF90EF900895CF93F1
:1002E000DF93EC01888D8823C9F0EA89FB8980813E
:1002F00085FD05C0A889B9898C9186FD0FC00FB610
:1003000007FCF5CF808185FFF2CFA889B9898C9150
:1003100085FFEDCFCE010E940701E7CFDF91CF919E
:10032000089580E090E0892B29F00E94FD00811162
:100330000C94000008950E94720E1F920F920FB647
:100340000F9211242F933F934F935F936F937F935B
:100350008F939F93AF93BF93EF93FF938091B201DD
:100360009091B301A091B401B091B501892B8A2B72
:100370008B2B59F18091B101E091AF01F091B00167
:100380009081892780838091B2019091B301A091DF
:10039000B401B091B501181619061A061B060CF027
:1003A0003DC08091B2019091B301A091B401B09190
:1003B000B5010197A109B1098093B2019093B301EE
:1003C000A093B401B093B50129C080910001EAE780
:1003D000F0E0E4919FEF90930001E130B9F098F0E4
:1003E000E230C9F4909170009D7F9093700091E08D
:1003F0009093B0009091B100987F94609093B10079
:100400001092B30008C010926E0005C090916F006A
:100410009D7F90936F0060E00E940108FF91EF9133
:10042000BF91AF919F918F917F916F915F914F910C
:100430003F912F910F900FBE0F901F9018953F92F4
:100440004F925F926F927F928F929F92AF92BF92E4
:10045000CF92DF92EF92FF920F931F93CF93DF9390
:1004600000D000D0CDB7DEB790910001981721F0F1
:100470009F3F09F036C204C0EAE7F0E0349081C043
:1004800080930001EAE7F0E0E491EF3F09F429C22C
:10049000E13031F1E23009F44BC0E11171C014BC1C
:1004A00015BC94B5926094BD95B5916095BDA82F8B
:1004B000B0E0FD01E157FF4FE491F0E0EE0FFF1FC8
:1004C000EB57FF4F059114911093A6010093A501DE
:1004D000FD01ED55FF4FE491E093A401312C53C091
:1004E000109280001092810090918100986090930A
:1004F000810090918100916090938100A82FB0E0DD
:10050000FD01E157FF4FE491F0E0EE0FFF1FEB57C5
:10051000FF4F059114911093A3010093A201FD01D7
:10052000ED55FF4FE491E093A101332433942BC0A8
:100530001092B0001092B1009091B0009260909330
:10054000B0009091B10091609093B100A82FB0E0FD
:10055000FD01E157FF4FE491F0E0EE0FFF1FEB5775
:10056000FF4F059114911093B0010093AF01FD016D
:10057000ED55FF4FE491E093B10102E0302E03C04E
:100580003E2E37FCAEC129013A018B0161E00E9489
:100590004D084801A12CB12C832D8D7F09F0BBC0E3
:1005A00060E072E18AE790E0A50194010E94FD0DF0
:1005B00029833A834B835C8369017A0121E0C21A63
:1005C000D108E108F1088FEFC816D104E104F10465
:1005D00009F008F44CC060E472E48FE090E0A501FB
:1005E00094010E94FD0D69017A01E1E0CE1AD10863
:1005F000E108F108F2E03F1220C02FEFC216D1044B
:10060000E104F10409F008F46AC160E970ED83E0E7
:1006100090E0A50194010E94FD0D69017A0181E03D
:10062000C81AD108E108F108EFEFCE16D104E104B1
:10063000F10409F0D0F583E067C0FFEFCF16D104D5
:10064000E104F104B1F0A8F068E478EE81E090E014
:10065000A50194010E94FD0D69017A0181E0C81A8B
:10066000D108E108F108332009F4DFC02FC181E08F
:1006700001C082E03320A1F047C089819A81AB811B
:10068000BC812AE0B595A795979587952A95D1F7CE
:100690006C017D0121E0C21AD108E108F10885E072
:1006A00095B5987F892B85BD6FC068E478EE81E0B1
:1006B00090E0A50194010E94FD0D69017A01F1E02D
:1006C000CF1AD108E108F1082FEFC216D104E104D6
:1006D000F10409F008F4A7C064E274EF80E090E050
:1006E000A50194010E94FD0D69017A01E1E0CE1A95
:1006F000D108E108F108FFEFCF16D104E104F104BD
:1007000011F008F0B4C085E09091B100987F892B7A
:100710008093B10039C060E072E18AE790E0A50102
:1007200094010E94FD0D69017A0181E0C81AD10887
:10073000E108F108C114D104E1E0EE06F10488F00B
:1007400068E478EE81E090E0A50194010E94FD0D3F
:1007500069017A01F1E0CF1AD108E108F10893E0CC
:1007600001C091E021E032120FC080918100887FAA
:10077000892B80938100411451046104710449F470
:100780002FEF3FEFA9012DC0411451046104710402
:1007900071F0D801AA0FBB1FA30192010E941C0E89
:1007A00028EE33E040E050E00E942F0E03C02FEF10
:1007B0003FEFA90181E03816A1F0E2E03E1619F101
:1007C00031108FC0C7BC2093AB013093AC01409374
:1007D000AD015093AE0180916E00826080936E00F7
:1007E00080C0D0928900C09288002093A7013093E6
:1007F000A8014093A9015093AA0180916F008260E3
:1008000080936F006EC0C092B3002093B20130930A
:10081000B3014093B4015093B501809170008260A0
:10082000809370005EC084E06FCFFFEFCF16D104DD
:10083000E104F104D1F0C8F062E17AE780E090E0F1
:10084000A50194010E94FD0D69017A0181E0C81A99
:10085000D108E108F108EFEFCE16D104E104F1046C
:1008600011F008F00ACF84E01BCF83E019CF62E1DA
:100870007AE780E090E0A50194010E94FD0D6901F6
:100880007A0181E0C81AD108E108F108EFEFCE162D
:10089000D104E104F104C1F0B8F089819A81AB81FF
:1008A000BC814AE0B595A795979587954A95D1F76C
:1008B0006C017D0121E0C21AD108E108F108332062
:1008C00009F4EDCE87E020CF86E0D4CEFFEFCF163F
:1008D000D104E104F10409F050F684E0CBCE82E0CB
:1008E00013CF0F900F900F900F90DF91CF911F912A
:1008F0000F91FF90EF90DF90CF90BF90AF909F90BF
:100900008F907F906F905F904F903F9008951F92CF
:100910000F920FB60F9211242F933F934F935F9333
:100920006F937F938F939F93AF93BF93EF93FF93B7
:1009300086EB91E00E940701FF91EF91BF91AF918B
:100940009F918F917F916F915F914F913F912F91E7
:100950000F900FBE0F901F9018951F920F920FB619
:100960000F9211242F938F939F93EF93FF93E09116
:10097000C601F091C7018081E091CC01F091CD01D9
:1009800082FD12C090818091CF018F5F8F73209183
:10099000D001821751F0E091CF01F0E0EA54FE4F10
:1009A000958F8093CF0101C08081FF91EF919F913E
:1009B0008F912F910F900FBE0F901F901895CF938E
:1009C000DF93EC019CB59F7D9CBD9CB5937F9CBD46
:1009D0009CB59C7F9CBD9DB591609DBD8A810E9408
:1009E00001088C899D898230910538F0880F991F04
:1009F000880F991F05970197F1F7DF91CF9108951F
:100A00008EBD00000DB407FEFDCF8EB508951F9377
:100A1000CF93DF93EC0160E00E94DF0481EE0E943F
:100A20000005182F61E0CE010E94DF04812FDF91C5
:100A3000CF911F910895FF920F931F93CF93DF9350
:100A40001F92CDB7DEB78C01F62E60E049830E947D
:100A5000DF048F2D8F7180620E940005F82E49817E
:100A6000842F0E94000561E0C8010E94DF048F2DE1
:100A70000F90DF91CF911F910F91FF900895CF922A
:100A8000DF92EF92FF920F931F93CF93DF9300D0EB
:100A9000CDB7DEB77C01062F142F60E029835A837F
:100AA0000E94DF04802F8F7180620E940005082F52
:100AB000C12E5A81D52E2981120F1C1531F0F60155
:100AC00081916F010E940005F8CF61E0C7010E948B
:100AD000DF04802F0F900F90DF91CF911F910F9126
:100AE000FF90EF90DF90CF9008951F93CF93DF9307
:100AF000EC01162F60E00E94DF04812F8F710E94AD
:100B000000058FEF0E940005182F61E0CE010E94C2
:100B1000DF04812FDF91CF911F9108950F931F93D1
:100B2000CF93DF938C01C62FD0E0FE01EC58FF4F2E
:100B30006491FC0147810E941B0562E0C8010E948C
:100B40007505FE01E859FF4FE49141E050E001C016
:100B5000440FEA95EAF7482B62E0C801DF91CF9194
:100B60001F910F910C941B05CF93DF93EC0160E074
:100B70000E94750581FD0EC0482F426060E0CE01E5
:100B80000E941B0565E070E080E090E0DF91CF916E
:100B90000C948908DF91CF910895CF92DF92EF9264
:100BA000FF92CF93DF93EC01603282E078070CF084
:100BB0003DC077FD06C0653B71052CF064EB70E02D
:100BC00002C060E070E0898128E830E06901C81A5D
:100BD000D10887FDD394CC0CDD1CCC0CDD1C0D2C76
:100BE000000CEE08FF088A8128E532E0281B310955
:100BF00087FD3395220F331F220F331FC901330F97
:100C0000AA0BBB0B9C01AD012C193D094E095F09D4
:100C1000DB010E94270E24EB30E040E050E00E9410
:100C2000FD0DC20ED31EE41EF51EB60188818C3068
:100C300080F5998148E850E0491B510997FD53958B
:100C4000440F551F440F551F6417750784F09A8190
:100C500028E532E0291B310997FD3395220F331F18
:100C6000220F331FAB01261737070CF4A90142509E
:100C70005109440F551F2FB7F89490E0FC01EE0F77
:100C8000FF1F8E0F9F1FFC01E358FE4F52834183CD
:100C90002FBFDF91CF91FF90EF90DF90CF9008951D
:100CA0001F93CF93DF93EC01162F88818C3008F0CF
:100CB0004EC061E0812F0E944D088881E82FF0E04E
:100CC0009F01220F331FE20FF31FE358FE4F1F73E4
:100CD0009081907C192B108319821A826CE00E94FB
:100CE000600E9CE0899FB001112440E050E09A0121
:100CF000260F371FF901EE0FFF1F2E0F3F1FF901BF
:100D0000E358FE4F908196FD16C04F5F5F4F4C3009
:100D1000510569F781110FC01092800082E0809325
:100D200081001092850010928400B19A80916F002A
:100D3000826080936F00E881F0E0CF01880F991FF7
:100D4000E80FF91FE358FE4F80818064808388811B
:100D5000DF91CF911F910895FC0190917C019C300F
:100D6000A0F481E0890F80937C019083892F90E02B
:100D7000FC01EE0FFF1F8E0F9F1FFC01E358FE4F7B
:100D800088EB9BE09283818308958FEF80830895A1
:100D90001F920F920FB60F9211242F933F934F93F0
:100DA0005F936F937F938F939F93AF93BF93EF93D3
:100DB000FF9380917B0187FF05C010928500109200
:100DC00084001BC020917B01022E000C330B80910C
:100DD0007C0190E02817390784F480917B01082E6C
:100DE000000C990BFC01EE0FFF1F8E0F9F1FFC01E3
:100DF000E358FE4F808186FD15C080917B018F5F97
:100E000080937B0120917B01022E000C330B80919B
:100E10007C0190E028173907C4F480917B018C3065
:100E200064F113C080917B01082E000C990BFC012A
:100E3000EE0FFF1F8E0F9F1FFC01E358FE4F8081B6
:100E400060E08F730E940108D8CF80918400909158
:100E50008500049680349C4918F480E49CE905C020
:100E600080918400909185000496909389008093EE
:100E700088008FEF80937B013BC0209184003091EC
:100E8000850080917B01082E000C990BFC01EE0F70
:100E9000FF1F8E0F9F1FFC01E358FE4F818192813F
:100EA000820F931F909389008093880080917B012B
:100EB000082E000C990BFC01EE0FFF1F8E0F9F1FD9
:100EC000FC01E358FE4F808186FF12C080917B01B8
:100ED000082E000C990BFC01EE0FFF1F8E0F9F1FB9
:100EE000FC01E358FE4F808161E08F730E9401088E
:100EF000FF91EF91BF91AF919F918F917F916F91F2
:100F00005F914F913F912F910F900FBE0F901F90C7
:100F100018953FB7F8948091D2039091D303A09194
:100F2000D403B091D50326B5A89B05C02F3F19F077
:100F30000196A11DB11D3FBFBA2FA92F982F882759
:100F4000820F911DA11DB11DBC01CD0142E0660FB4
:100F5000771F881F991F4A95D1F70895009769F068
:100F6000FC0101900020E9F73197AF01481B590BB4
:100F7000BC0186EB91E00C94910080E090E0089534
:100F80008F929F92AF92BF920F931F93CF93DF9355
:100F9000CDB7DEB7A1970FB6F894DEBF0FBECDBFB9
:100FA00019A2423008F44AE08E010F5D1F4F842ED3
:100FB000912CA12CB12CA50194010E942F0EE62F9B
:100FC000B901CA0101501109EA3014F4E05D01C011
:100FD000E95CD801EC93232B242B252B61F7C80166
:100FE0000E94AE07A1960FB6F894DEBF0FBECDBF2C
:100FF000DF91CF911F910F91BF90AF909F908F90F5
:10100000089590E0FC01E954FF4F3491FC01ED5547
:10101000FF4F2491FC01E157FF4FE491EE2309F4C7
:101020003BC0332339F1333091F038F43130A9F03B
:10103000323001F584B58F7D12C0373091F03830F1
:10104000A1F03430B9F4809180008F7D03C080918D
:1010500080008F77809380000DC084B58F7784BD2A
:1010600009C08091B0008F7703C08091B0008F7D60
:101070008093B000F0E0EE0FFF1FEB57FF4FA591FC
:10108000B4918FB7F894EC91611103C020952E2391
:1010900001C02E2B2C938FBF0895CF93DF9390E048
:1010A000FC01ED55FF4F2491FC01E157FF4F849166
:1010B000882361F190E0880F991FFC01E558FF4FEC
:1010C000C591D491FC01EB57FF4FA591B4916111EB
:1010D00009C09FB7F8948881209582238883EC917A
:1010E0002E230BC0623061F49FB7F8943881822FB1
:1010F000809583238883EC912E2B2C939FBF06C071
:101100008FB7F894E8812E2B28838FBFDF91CF9182
:1011100008958F929F92AF92BF92CF92DF92EF92FB
:10112000FF926B017C010E9489074B015C01C11495
:10113000D104E104F104F1F00E948907DC01CB0144
:1011400088199909AA09BB09883E9340A105B105F0
:1011500070F321E0C21AD108E108F10888EE880E88
:1011600083E0981EA11CB11CC114D104E104F10458
:1011700019F7DDCFFF90EF90DF90CF90BF90AF9049
:101180009F908F9008951F920F920FB60F92112487
:101190002F933F938F939F93AF93BF938091CE03F1
:1011A0009091CF03A091D003B091D1033091CD03A2
:1011B00023E0230F2D3720F40196A11DB11D05C09A
:1011C00026E8230F0296A11DB11D2093CD03809325
:1011D000CE039093CF03A093D003B093D10380911B
:1011E000D2039091D303A091D403B091D50301967B
:1011F000A11DB11D8093D2039093D303A093D40378
:10120000B093D503BF91AF919F918F913F912F9153
:101210000F900FBE0F901F901895CF93DF93CDB70F
:10122000DEB760970FB6F894DEBF0FBECDBF7894DF
:1012300084B5826084BD84B5816084BD85B58260DB
:1012400085BD85B5816085BD80916E00816080938C
:101250006E001092810080918100826080938100F5
:101260008091810081608093810080918000816005
:10127000809380008091B10084608093B100809160
:10128000B00081608093B00080917A008460809388
:101290007A0080917A00826080937A0080917A004F
:1012A000816080937A0080917A00806880937A00D0
:1012B0001092C10062E082E10E944D0861E082E08C
:1012C0000E944D0861E08EE00E944D0860E08FE0D2
:1012D0000E944D0863E070E082E992E00E945006AF
:1012E00064E070E085E992E00E94500665E070E0FD
:1012F00088E992E00E94500666E070E08BE992E097
:101300000E94500667E070E08EE992E00E9450066D
:1013100068E070E081EA92E00E94500669E070E0C7
:1013200084EA92E00E9450066AE070E087EA92E068
:101330000E945006E091C601F091C70182E08083CF
:10134000E091C201F091C3011082E091C401F091DB
:10135000C50180E180831092CE01E091CA01F09135
:10136000CB0186E08083E091C801F091C9018081C2
:1013700080618083E091C801F091C901808188601B
:101380008083E091C801F091C901808180688083E9
:10139000E091C801F091C90180818F7D808383E253
:1013A00091E00E94AE0789E391E00E94AE0780E0E1
:1013B00090E00E94F50D182F81E090E00E94F50D5D
:1013C000282F30E0322F2227C901810F911D9093E1
:1013D000DD028093DC0282E090E00E94F50D182F80
:1013E00083E090E00E94F50D282F30E0322F222775
:1013F000C901810F911D9093DF028093DE028CE37F
:1014000091E00E94AE076091DC027091DD0280E005
:1014100090E04AE00E94C00789E391E00E94AE0795
:101420008091DC029091DD0290937A0280937902A0
:1014300000916B0210916C02F801808191812281F0
:1014400033818217930719F061E00E944D08F8017B
:1014500082819381208131812817390719F061E059
:101460000E944D08FFB6F89480917A01811127C03F
:10147000E9E9F0E08491EDEAF0E09491E82FF0E002
:10148000EE0FFF1FE558FF4FA591B491EC91E923B2
:1014900021F461E08AE00E94010861E08AE00E9494
:1014A0004D088CB580618CBD8CB580648CBD61E0CD
:1014B0008DE00E944D0861E08BE00E944D08809114
:1014C0007A018F5F80937A01FFBEF801808191815C
:1014D000228133818217930719F060E00E9401088E
:1014E00061E0C8010E94DF0465E070E080E090E008
:1014F0000E9489084CE060E0C8010E941B054FE58E
:1015000064E0C8010E941B0566E0C8010E947505E1
:10151000877D8062F82E8BE990E0A0E0B0E0F801D2
:10152000808B918BA28BB38B4F2D66E0C8010E94FC
:101530001B0566E0C8010E9475058F1509F454C1AA
:1015400066E0C8010E94750566E0C8010E94750545
:1015500045E550E060E070E0F801408B518B628B14
:10156000738B482F477D66E0C8010E941B0566E02B
:10157000C8010E94750560E0C8010E94DF0480E593
:101580000E94000583E70E94000561E0C8010E94F7
:10159000DF0440E06DE1C8010E941B0540E06CE102
:1015A000C8010E941B05F801108640E767E0C801EA
:1015B0000E941B054CE465E0C8010E941B0560E029
:1015C000C8010E94DF0482EE0E94000561E0C801AC
:1015D0000E94DF04C8010E940705C8010E94B405EB
:1015E00060E0C8010E947505482F4E7F60E0C80189
:1015F0000E941B0589E491E00E94AE0789E391E017
:101600000E94AE0763E080916B0290916C020E9491
:10161000750581508330D8F5EBC0173008F465C1EB
:1016200000916B0210916C02C8010E94B40560E049
:10163000C8010E947505482F416060E0C8010E9402
:101640001B0540E767E0C8010E941B05F801808187
:101650009181228133818217930719F061E00E9402
:101660000108F8018185882309F45AC12685A8015B
:10167000475F5F4F6AE0C8010E943F056DE1C80106
:101680000E94750581FF03C0C8010E94070568EE2E
:1016900073E080E090E00E94890881E08093E60298
:1016A00084E691E00E94AE076091DC027091DD0259
:1016B00080E090E04AE00E94C00789E391E00E9448
:1016C000AE0722E330E040E050E063E972E0809151
:1016D00090020E941F0262E370E080E090E00E94AE
:1016E00089086EE170E080E090E00E94890827E3BD
:1016F00030E040E050E066E275E0809190020E94A8
:101700001F0267E370E080E090E00E94890869E1D1
:1017100070E080E090E00E9489082CE330E040E037
:1017200050E060EE76E0809190020E941F026CE330
:1017300070E080E090E00E9489086AE070E080E05C
:1017400090E00E9489086AE570E082E992E00E94D8
:10175000CD056AE570E088E992E00E94CD056AE572
:1017600070E08EE992E00E94CD056AE570E084EABF
:1017700092E00E94CD056AE570E085E992E00E9462
:10178000CD056AE570E08BE992E00E94CD056AE53F
:1017900070E081EA92E00E94CD056AE570E087EA98
:1017A00092E00E94CD0568EE73E080E090E00E9438
:1017B000890862E370E082E992E00E94CD0562E868
:1017C00070E088E992E00E94CD0562E870E08EE961
:1017D00092E00E94CD0562E370E084EA92E00E940C
:1017E000CD050E949101E5CF81E0F8018683A8CE66
:1017F000409180024E3708F04DE765E080916B0222
:1018000090916C020E941B0500916B0210916C027A
:101810006DE1C8010E947505482F44606DE1C80163
:101820000E941B056CE1C8010E947505482F4F639B
:101830006CE1C8010E941B0581E0F8018087E090FF
:101840006B02F0906C02B0918502A0918602F0913B
:101850008702E09188029091890280918A0200912A
:10186000790210917A0209871A87BB87AC87FD87B6
:10187000EE879F87888BEFE6F0E06491F70126857D
:10188000AE01475F5F4FC7010E943F0561E0C7019E
:101890000E948E0510917F02E0906B02F0906C0226
:1018A000D090850200918602B0918702A0918802B3
:1018B000F0918902E0918A0220917D0230917E02AE
:1018C00029833A83DB820C83BD83AE83FF83E88761
:1018D0001111A3CEF701468550E0BE016F5F7F4F27
:1018E000C70109960E94770E02C0113041F4E12F22
:1018F000F0E0E259FF4F6491F701268506C0E12F21
:10190000F0E0E259FF4F649121E0AE014F5F5F4F7D
:10191000C7010E943F05612FC7010E948E0580CE3E
:1019200062E0C8010E947505E8E6F0E0E49121E07C
:1019300030E001C0220FEA95EAF72095422F4823B4
:1019400062E0C8010E941B0599CECF93DF931092ED
:10195000B9011092B80188EE93E0A0E0B0E0809366
:10196000BA019093BB01A093BC01B093BD0185E186
:1019700091E09093B7018093B60185EC90E090934D
:10198000C3018093C20184EC90E09093C5018093E1
:10199000C40180EC90E09093C7018093C60181EC74
:1019A00090E09093C9018093C80182EC90E09093FD
:1019B000CB018093CA0186EC90E09093CD01809397
:1019C000CC011092CF011092D0011092D10110924F
:1019D000D20180E190E0909354028093530281E120
:1019E00090E090935602809355021092590280E243
:1019F00080935A0210925B0285E08093610285E039
:101A000090E0A0E0B0E08093670290936802A0931A
:101A10006902B0936A0210925C0283E592E09093AF
:101A20006C0280936B028FEF90E090937E02809324
:101A30007D0282E080937F028CE680938002109288
:101A400083021092840280EF809385028093860245
:101A500080938702109288021092890210928A0263
:101A600010928C0210928B0210928D0210928E02B4
:101A700010928F0282E090E0909391028093900206
:101A800082E992E00E94AC0685E992E00E94AC06F1
:101A900088E992E00E94AC068BE992E00E94AC06D5
:101AA0008EE992E00E94AC0681EA92E00E94AC06C8
:101AB00084EA92E00E94AC0687EA92E00E94AC06BB
:101AC000C0E0D0E0CE0186559D4F0E94AC06239623
:101AD000C831D105B9F761E08EE00E944D0860E0A1
:101AE0008FE00E944D088EE090E09093C3028093B7
:101AF000C2028FE090E09093C5028093C40288EB0D
:101B00009BE0A0E0B0E08093C6029093C702A09350
:101B1000C802B093C90286E490E09093DB02809300
:101B2000DA0282E090E09093DD028093DC0288EE9E
:101B300093E09093E3028093E2028FEF90E0909322
:101B4000E5028093E40281E08093E6021092E702CE
:101B500080E197E2A0E0B0E08093EE029093EF0284
:101B6000A093F002B093F1021092F40210923503A8
:101B700010923603109237031092390310923803F3
:101B800010923B0310923A031092920380E090E08F
:101B9000A4EBB2E48093930390939403A0939503F2
:101BA000B093960380E1E7E9F3E0DF01982F1D92FF
:101BB0009A95E9F71092A7031092A8031092A9032F
:101BC0001092AA031092AB031092AC031092AD03D3
:101BD0001092AE03E1E0F1E0AFEAB3E001900D92C4
:101BE0008A95E1F7DF91CF910895F999FECF92BDE3
:101BF00081BDF89A992780B50895052E97FB1EF4AC
:101C000000940E94140E57FD07D00E942F0E07FC6F
:101C100003D04EF40C94140E5095409530952195B8
:101C20003F4F4F4F5F4F0895909580957095619508
:101C30007F4F8F4F9F4F08950E94510EA59F900D8B
:101C4000B49F900DA49F800D911D11240895B7FF9E
:101C50000C941C0E0E941C0E821B930B0895A1E293
:101C60001A2EAA1BBB1BFD010DC0AA1FBB1FEE1F16
:101C7000FF1FA217B307E407F50720F0A21BB30B61
:101C8000E40BF50B661F771F881F991F1A9469F7DD
:101C900060957095809590959B01AC01BD01CF0139
:101CA0000895A29FB001B39FC001A39F700D811D35
:101CB0001124911DB29F700D811D1124911D089555
:101CC000991B79E004C0991F961708F0961B881F8E
:101CD0007A95C9F780950895EE0FFF1F0590F4914E
:101CE000E02D099481E090E0F8940C94800EFB01C3
:101CF000DC0102C001900D9241505040D8F7089588
:041D0000F894FFCF85
:101D0400FF0E000F00100011001200130014001544
:101D1400000000000028019100C0006F01F100CF15
:101D240000E3004C6F6164696E67206D7920436F36
:101D34006E6669672E2E2E20000D0A004D79204113
:101D44006464726573733A2000436865636B204E64
:101D5400524632344C303120436F6E6E6563746981
:101D64006F6E2100477569742053746172742C205E
:0A1D7400616464726573733A200025
:00000001FF
