:100000000C946C000C9494000C9494000C94940048
:100010000C9494000C9494000C9494000C94940010
:100020000C9494000C9494000C9494000C94DB01B8
:100030000C9494000C9494000C9494000C949400F0
:100040000C9491010C9494000C9494000C949400E2
:100050000C9494000C9494000C9494000C949400D0
:100060000C9494000C94940005A84CCDB2D44EB9D5
:100070003836A9020C50B9918688083CA6AAAA2A4B
:10008000BE000000803F00000000240027002A007E
:1000900000000000250028002B00040404040404D0
:1000A0000404020202020202030303030303010227
:1000B00004081020408001020408102001020408F6
:1000C00010200000000800020100000304070000E7
:1000D0000000000000005B0511241FBECFEFD8E038
:1000E000DEBFCDBF11E0A0E0B1E0E4E1F1E102C08C
:1000F00005900D92A032B107D9F722E0A0E2B1E05D
:1001000001C01D92A338B207E1F710E0CCE6D0E0C1
:1001100004C02197FE010E94E205CB36D107C9F742
:100120000E949C020C9488080C94000090E0FC0152
:10013000EE53FF4F3491FC01E255FF4F2491FC0137
:10014000E656FF4FE491EE2309F43BC0332339F127
:10015000333091F038F43130A9F0323001F584B504
:100160008F7D12C0373091F03830A1F03430B9F4BF
:10017000809180008F7D03C0809180008F77809375
:1001800080000DC084B58F7784BD09C08091B00018
:100190008F7703C08091B0008F7D8093B000F0E036
:1001A000EE0FFF1FE057FF4FA591B4918FB7F89462
:1001B000EC91611103C020952E2301C02E2B2C93AE
:1001C0008FBF08952FB7F89460914B0170914C0147
:1001D00080914D0190914E012FBF0895FC019081B7
:1001E0009C3080F5818128E830E0281B310987FDAB
:1001F0003395220F331F220F331F621773077CF0D2
:10020000828128E532E0281B310987FD3395220FD2
:10021000331F220F331F621773070CF49B01225008
:100220003109220F331F4FB7F894892F90E0FC015A
:10023000EE0FFF1F8E0F9F1FFC01EE5DFE4F3283FE
:1002400021834FBF0895CF92DF92EF92FF920F93D9
:100250001F93CF93DF93EC016A017B01FC01E15D09
:10026000FD4F80819E0128593F4F8E01000F111FC5
:10027000220F331FF901E15BFE4F60817181811113
:100280000DC0072E000C880B990B0E94FF069B01E6
:10029000AC01C701B6010E94E90514C0072E000C8D
:1002A000880B990B0E94FF069B01AC01C701B601A8
:1002B0000E94E9059B01AC0160E070E084E393E4F7
:1002C0000E94E80520E030E044E353E40E94550634
:1002D00020E030E048EE54E40E948B0720E030E05C
:1002E00048E054E40E94E9050E94C70698012C0FDB
:1002F0003D1FC90189509E4F0E94EE00CC0FDD1FAB
:10030000CC0FDD1FCD59DD4FC882D982EA82FB8236
:10031000DF91CF911F910F91FF90EF90DF90CF90E1
:1003200008951F920F920FB60F9211242F933F93AF
:100330008F939F93AF93BF9380914B0190914C010A
:10034000A0914D01B0914E0130914A0123E0230F5D
:100350002D3720F40196A11DB11D05C026E8230FFD
:100360000296A11DB11D20934A0180934B019093E9
:100370004C01A0934D01B0934E01809146019091A4
:100380004701A0914801B09149010196A11DB11DFD
:100390008093460190934701A0934801B09349018F
:1003A000BF91AF919F918F913F912F910F900FBE71
:1003B0000F901F9018951F920F920FB60F92112455
:1003C0002F933F934F935F936F937F938F939F935D
:1003D000AF93BF93EF93FF938091210187FF05C0F7
:1003E00010928500109284001BC020912101022EE2
:1003F000000C330B8091200190E02817390784F41A
:1004000080912101082E000C990BFC01EE0FFF1FBB
:100410008E0F9F1FFC01EE5DFE4F808186FD15C093
:10042000809121018F5F8093210120912101022E73
:10043000000C330B8091200190E028173907C4F499
:10044000809121018C3064F113C080912101082E2C
:10045000000C990BFC01EE0FFF1F8E0F9F1FFC017C
:10046000EE5DFE4F808160E08F730E949600D8CFD2
:100470008091840090918500049680349C4918F402
:1004800080E49CE905C080918400909185000496E9
:1004900090938900809388008FEF809321013BC067
:1004A000209184003091850080912101082E000C5C
:1004B000990BFC01EE0FFF1F8E0F9F1FFC01EE5DDD
:1004C000FE4F81819281820F931F909389008093C8
:1004D000880080912101082E000C990BFC01EE0F81
:1004E000FF1F8E0F9F1FFC01EE5DFE4F808186FF78
:1004F00012C080912101082E000C990BFC01EE0F17
:10050000FF1F8E0F9F1FFC01EE5DFE4F808161E09B
:100510008F730E949600FF91EF91BF91AF919F91D1
:100520008F917F916F915F914F913F912F910F909C
:100530000FBE0F901F901895CF93DF93CDB7DEB706
:10054000C854D1090FB6F894DEBF0FBECDBF789462
:1005500084B5826084BD84B5816084BD85B58260C8
:1005600085BD85B5816085BD80916E008160809379
:100570006E001092810080918100826080938100E2
:1005800080918100816080938100809180008160F2
:10059000809380008091B10084608093B10080914D
:1005A000B00081608093B00080917A008460809375
:1005B0007A0080917A00826080937A0080917A003C
:1005C000816080937A0080917A00806880937A00BD
:1005D0001092C10083E090E09093100280930F028C
:1005E00085E090E0909312028093110224E030E0C5
:1005F000309314022093130226E030E03093160269
:100600002093150247E050E05093180240931702E0
:1006100049E050E050931A024093190248E050E03C
:1006200050931C0240931B026AE070E070931E021C
:1006300060931D021092200210921F0268EF7FEF5C
:10064000709322026093210250932402409323026C
:10065000909326028093250242E050E050932802B6
:10066000409327024AEF5FEF50932A0240932902FA
:1006700030932C0220932B0290932E0280932D0214
:10068000EFE2F2E0119222E0E733F207D9F74BE50F
:10069000A42E41E0B42E5FE0C52E52E0D52E07EF28
:1006A00011E0E12CF12C6CE0962E72E0872E0E9476
:1006B000E200D50111966D937D938D939C931497D1
:1006C0001C92F601219131916F01D8018C918C30EF
:1006D00008F070C0C9019927FC01E255FF4F6491F1
:1006E000FC01E656FF4F8491882399F090E0880F33
:1006F000991FFC01EA57FF4FA591B49180579F4F76
:10070000FC01459154918FB7F894EC916E2B6C934A
:100710008FBFF8018081E82FF0E0AF01440F551F33
:10072000E40FF51FEE5DFE4F2F739081907C292B17
:1007300020839701215B3E4FF901E755FF4F10825F
:1007400031961082692D0E94D605FCE08F9FA00192
:10075000112420E030E0B901640F751FFB01EE0F9A
:10076000FF1FE60FF71FEE5DFE4F908196FD15C04F
:100770002F5F3F4F2C30310571F781110EC0109261
:100780008000809281001092850010928400B19ABE
:1007900080916F00826080936F00D801EC91F0E04F
:1007A000CF01880F991FE80FF91FEE5DFE4F808182
:1007B00080648083B5E1AB0EB11C0D5F1F4FE3E099
:1007C000EE0EF11CF8E1EF16F10409F070CF00E035
:1007D00010E040E050E064EB72E4C8010E942301A5
:1007E0000F5F1F4F08301105A1F7BE016F5D7F4FEE
:1007F00023967FAF6EAF239781E390E08C0F9D1F10
:10080000409625969FAF8EAF259780EDE82E87E026
:10081000F82E93ED692E77247A94FAAAE9AAFCAA15
:10082000EBAAFEAAEDAAF8AEEFAAFAAEE9AEFCAECC
:10083000EBAEFEAEEDAE2196FFAEEEAE2197239667
:10084000AEADBFAD2397E0E11D92EA95E9F77EA238
:100850006DA278A66FA27EA66DA678AA6FA6E0E02C
:10086000F1E0DE01519680E101900D928A95E1F769
:10087000E0E1F1E0DE01119680E101900D928A95B0
:10088000E1F78E010F5C1F4FAE014F5D5F4F9E0180
:100890002F5F3F4FCE014196EFE4F1E0D8016D911B
:1008A0007D918D0171836083DA016D917D91AD0140
:1008B00073836283D9016D917D919D0175836483FA
:1008C000DC016D917D91CD017783668375962596C8
:1008D0006EAD7FAD25970617170701F70E94E2005E
:1008E000EFE4F1E0658776878787908B7596A1E0C6
:1008F000E73FFA07B9F70E94E2000E94FD0620E0F8
:1009000030E44CE156E40E94E9050E94CE06609373
:100910003B0270933C0280933D0290933E020E9402
:10092000E20000913B0210913C0220913D02309187
:100930003E02601771078207930708F0B4C00FE406
:1009400011E0C12CD12CF8018485811197C00E943F
:10095000E200D8018D909C9011971D962D913D91AC
:100960004D915C915097621B730B840B950B092C76
:10097000000CAA08BB08A50194010E94B4050E94BE
:10098000FD06F801618B728B838B948B9B01AC010C
:100990000E94E9052BED3FE049E450E40E948B07FB
:1009A0001B012C01C501B4010E94FF069B01AC0193
:1009B000C201B1010E9455064B015C01D801149699
:1009C0006D917C911597072E000C880B990B0E9456
:1009D000FF069B01AC010E94E9052BED3FE049E4D5
:1009E00050E40E948B0720E030E044EB53E40E9487
:1009F00055069B01AC01C501B4010E94E9050E94A6
:100A0000F8079B01AC01F80162817381072E000C8D
:100A1000880B990B26962FAF269727963FAF2797DF
:100A200028964FAF289729965FAF29970E94FF0617
:100A300026962FAD269727963FAD279728964FAD40
:100A4000289729965FAD29970E948B074B015C017F
:100A5000D80116966D917C911797072E000C880B84
:100A6000990B0E94FF069B01AC01C501B4010E94D5
:100A7000E905F8016087718782879387D801189606
:100A80004D915D916D917C911B97C6010E94230150
:100A9000BFEFCB1ADB0A0B5E1F4FE8E0CE16D10486
:100AA00009F051CF3CCF60E070E0672B09F4B5CE80
:100AB0000E940000AACECF92DF92EF92FF921F9386
:100AC000CF93DF93CFE4D1E070EDC72E77E0D72E40
:100AD000E2E3EE2EF12C11E01D861E861F86188A99
:100AE000198A1A8A1B8A1C8AD982C882FB82EA82E6
:100AF0001D821C821F821E821C870E94E2006D875D
:100B00007E878F87988B198A1A8A1B8A1C8A65961A
:100B100021E0C73FD20701F780912001A7EFB1E0A4
:100B20009FEF48EB5BE08C3078F48C93282F30E01B
:100B3000F901EE0FFF1F2E0F3F1FF901EE5DFE4F73
:100B4000528341838F5F01C09C93139622E0AF30A4
:100B5000B20749F780932001DF91CF911F91FF9059
:100B6000EF90DF90CF900895A1E21A2EAA1BBB1B35
:100B7000FD010DC0AA1FBB1FEE1FFF1FA217B30769
:100B8000E407F50720F0A21BB30BE40BF50B661F7F
:100B9000771F881F991F1A9469F760957095809543
:100BA00090959B01AC01BD01CF010895991B79E09F
:100BB00004C0991F961708F0961B881F7A95C9F7ED
:100BC00080950895EE0FFF1F0590F491E02D099494
:100BD0005058BB27AA270E9400060C9451070E9478
:100BE000430738F00E944A0720F039F49F3F19F478
:100BF00026F40C9440070EF4E095E7FB0C943A07BA
:100C0000E92F0E94620758F3BA1762077307840737
:100C1000950720F079F4A6F50C9484070EF4E0957E
:100C20000B2EBA2FA02D0B01B90190010C01CA01A6
:100C3000A0011124FF27591B99F0593F50F4503E51
:100C400068F11A16F040A22F232F342F4427585F43
:100C5000F3CF469537952795A795F0405395C9F75B
:100C60007EF41F16BA0B620B730B840BBAF0915013
:100C7000A1F0FF0FBB1F661F771F881FC2F70EC0B2
:100C8000BA0F621F731F841F48F487957795679585
:100C9000B795F7959E3F08F0B0CF9395880F08F071
:100CA0009927EE0F9795879508950E9469060C94F1
:100CB00051070E944A0758F00E94430740F029F468
:100CC0005F3F29F00C943A0751110C9485070C945E
:100CD00040070E94620768F39923B1F3552391F30B
:100CE000951B550BBB27AA2762177307840738F09B
:100CF0009F5F5F4F220F331F441FAA1FA9F335D0F8
:100D00000E2E3AF0E0E832D091505040E695001CAB
:100D1000CAF72BD0FE2F29D0660F771F881FBB1F65
:100D2000261737074807AB07B0E809F0BB0B802D43
:100D3000BF01FF2793585F4F3AF09E3F510578F06F
:100D40000C943A070C9485075F3FE4F3983ED4F384
:100D5000869577956795B795F7959F5FC9F7880F43
:100D6000911D9695879597F90895E1E0660F771F95
:100D7000881FBB1F621773078407BA0720F0621B26
:100D8000730B840BBA0BEE1F88F7E09508950E9451
:100D9000CE066894B1110C94850708950E946A07E5
:100DA00088F09F5798F0B92F9927B751B0F0E1F02C
:100DB000660F771F881F991F1AF0BA95C9F714C0DC
:100DC000B13091F00E948407B1E008950C9484073B
:100DD000672F782F8827B85F39F0B93FCCF3869515
:100DE00077956795B395D9F73EF490958095709572
:100DF00061957F4F8F4F9F4F0895E89409C097FBEF
:100E00003EF490958095709561957F4F8F4F9F4FE1
:100E10009923A9F0F92F96E9BB279395F695879525
:100E200077956795B795F111F8CFFAF4BB0F11F4E8
:100E300060FF1BC06F5F7F4F8F4F9F4F16C088238F
:100E400011F096E911C0772321F09EE8872F762FC5
:100E500005C0662371F096E8862F70E060E02AF006
:100E60009A95660F771F881FDAF7880F96958795F2
:100E700097F9089597F99F6780E870E060E008951A
:100E80009FEF80EC089500240A94161617061806A2
:100E90000906089500240A9412161306140605067E
:100EA0000895092E0394000C11F4882352F0BB0F0F
:100EB00040F4BF2B11F460FF04C06F5F7F4F8F4F72
:100EC0009F4F089557FD9058440F551F59F05F3FAD
:100ED00071F04795880F97FB991F61F09F3F79F05C
:100EE00087950895121613061406551FF2CF4695DE
:100EF000F1DF08C0161617061806991FF1CF869560
:100F00007105610508940895E894BB276627772743
:100F1000CB0197F908950E949E070C9451070E94F7
:100F2000430738F00E944A0720F0952311F00C94F3
:100F30003A070C94400711240C9485070E9462071D
:100F400070F3959FC1F3950F50E0551F629FF0011C
:100F5000729FBB27F00DB11D639FAA27F00DB11D35
:100F6000AA1F649F6627B00DA11D661F829F2227BE
:100F7000B00DA11D621F739FB00DA11D621F839F45
:100F8000A00D611D221F749F3327A00D611D231F1B
:100F9000849F600D211D822F762F6A2F11249F5769
:100FA00050409AF0F1F088234AF0EE0FFF1FBB1F6C
:100FB000661F771F881F91505040A9F79E3F51052B
:100FC00080F00C943A070C9485075F3FE4F3983E59
:100FD000D4F3869577956795B795F795E7959F5FD5
:100FE000C1F7FE2B880F911D9695879597F9089567
:100FF0009F930E9402080F9007FCEE5F0C942B0851
:101000000C9440070E946A07D8F3E894E0E0BB27FD
:101010009F57F0F02AED3FE049EC06C0EE0FBB0F02
:10102000661F771F881F28F0B23A6207730784078C
:1010300028F0B25A620B730B840BE3959A9572F702
:10104000803830F49A95BB0F661F771F881FD2F740
:1010500090480C944108EF93E0FF07C0A2EA2AED04
:101060003FE049EC5FEB0E9400060E9451070F90A1
:10107000039401FC9058E8E6F0E00C944D089F3F83
:1010800031F0915020F4879577956795B795880F43
:10109000911D9695879597F908959F938F937F93C8
:1010A0006F93FF93EF939B01AC010E948B07EF912D
:1010B000FF910E9461082F913F914F915F910C9495
:1010C0008B07DF93CF931F930F93FF92EF92DF92E3
:1010D0007B018C01689406C0DA2EEF010E949E0706
:1010E000FE01E894A5912591359145915591A6F37E
:1010F000EF010E940006FE019701A801DA9469F74A
:10110000DF90EF90FF900F911F91CF91DF910895A5
:04111000F894FFCF81
:101114005A005A005A005A005A005A005A005A00FB
:10112400000000000000780000000000B40022016C
:00000001FF
