:100000000C9462000C948A000C948A000C948A0070
:100010000C948A000C948A000C948A000C941005AD
:100020000C948A000C948A000C948A000C944F045F
:100030000C948A000C948A000C948A000C948A0018
:100040000C94AD030C948A000C941D040C94F703DB
:100050000C948A000C948A000C948A000C948A00F8
:100060000C948A000C948A000000000024002700F1
:100070002A0000000000250028002B0000000008D6
:10008000000201000003040700000000000000005F
:1000900000000000230026002900040404040404D6
:1000A0000404020202020202030303030303010227
:1000B00004081020408001020408102001020408F6
:1000C0001020F40511241FBECFEFD8E0DEBFCDBF56
:1000D00011E0A0E0B1E0ECEFF7E102C005900D9275
:1000E000A432B107D9F723E0A4E2B1E001C01D9228
:1000F000A93BB207E1F710E0C2E6D0E004C02197C7
:10010000FE010E94F10BC136D107C9F70E94A50676
:100110000C94FC0B0C940000833081F028F48130A7
:1001200099F08230A1F008958730A9F08830B9F0B5
:100130008430D1F4809180008F7D03C08091800055
:100140008F7780938000089584B58F7702C084B53F
:100150008F7D84BD08958091B0008F7703C080911A
:10016000B0008F7D8093B0000895CF93DF93282F48
:1001700030E0F901E458FF4F8491F901E255FF4F57
:10018000D491F901E656FF4FC491CC2391F081112F
:100190000E948C00EC2FF0E0EE0FFF1FE057FF4FA6
:1001A000A591B491EC91ED2381E090E021F480E001
:1001B00002C080E090E0DF91CF9108951F93CF932C
:1001C000DF93282F30E0F901E458FF4F8491F901C3
:1001D000E255FF4FD491F901E656FF4FC491CC236D
:1001E000C9F0162F81110E948C00EC2FF0E0EE0F69
:1001F000FF1FEE58FF4FA591B4918FB7F8941111DE
:1002000005C09C91ED2FE095E92302C0EC91ED2B08
:10021000EC938FBFDF91CF911F910895CF93DF9320
:1002200090E0FC01E255FF4F2491FC01E656FF4FA0
:100230008491882361F190E0880F991FFC01E859AF
:10024000FF4FC591D491FC01EE58FF4FA591B49199
:10025000611109C09FB7F894888120958223888313
:10026000EC912E230BC0623061F49FB7F894388173
:10027000822F809583238883EC912E2B2C939FBF14
:1002800006C08FB7F894E8812E2B28838FBFDF91AB
:10029000CF910895CF92DF92EF92FF920F931F9329
:1002A000CF93DF936C017A018B01C0E0D0E0CE15D3
:1002B000DF0589F0D8016D918D01D601ED91FC919A
:1002C0000190F081E02DC6010995892B11F47E0182
:1002D00002C02196ECCFC701DF91CF911F910F9102
:1002E000FF90EF90DF90CF900895FC01918D828D6B
:1002F000981761F0828DDF01A80FB11D5D968C917A
:10030000928D9F5F9F73928F90E008958FEF9FEF84
:100310000895FC01918D828D981731F0828DE80F40
:10032000F11D858D90E008958FEF9FEF0895FC01FA
:10033000918D228D892F90E0805C9F4F821B9109C7
:100340008F739927089583E591E00E94970121E03A
:10035000892B09F420E0822F0895FC01848DDF01B0
:10036000A80FB11DA35ABF4F2C91848D90E0019628
:100370008F739927848FA689B7892C93A089B18917
:100380008C9180648C93938D848D981306C0028821
:10039000F389E02D80818F7D80830895EF92FF9215
:1003A0000F931F93CF93DF93EC0181E0888F9B8D98
:1003B0008C8D981305C0E889F989808185FD24C05A
:1003C000F62E0B8D10E00F5F1F4F0F731127E02EDD
:1003D0008C8DE8120CC00FB607FCFACFE889F989BA
:1003E000808185FFF5CFCE010E94AD01F1CF8B8DCD
:1003F000FE01E80FF11DE35AFF4FF0820B8FEA89EF
:10040000FB898081806207C0EE89FF896083E8896B
:10041000F98980818064808381E090E0DF91CF91D1
:100420001F910F91FF90EF900895CF93DF93EC0110
:10043000888D8823C9F0EA89FB89808185FD05C004
:10044000A889B9898C9186FD0FC00FB607FCF5CF3E
:10045000808185FFF2CFA889B9898C9185FFEDCF86
:10046000CE010E94AD01E7CFDF91CF91089580E0EA
:1004700090E0892B29F00E94A30181110C940000C7
:100480000895CF92DF92EF92FF92CF93DF93EC012A
:10049000603282E078070CF03DC077FD06C0653B16
:1004A00071052CF064EB70E002C060E070E08981BF
:1004B00028E830E06901C81AD10887FDD394CC0C34
:1004C000DD1CCC0CDD1C0D2C000CEE08FF088A8115
:1004D00028E532E0281B310987FD3395220F331FB1
:1004E000220F331FC901330FAA0BBB0B9C01AD01B7
:1004F0002C193D094E095F09DB010E94FD0A24EB1E
:1005000030E040E050E00E94D30AC20ED31EE41E49
:10051000F51EB60188818C3080F5998148E850E05D
:10052000491B510997FD5395440F551F440F551F03
:100530006417750784F09A8128E532E0291B310998
:1005400097FD3395220F331F220F331FAB01261760
:1005500037070CF4A90142505109440F551F2FB71A
:10056000F89490E0FC01EE0FFF1F8E0F9F1FFC011F
:10057000EA5DFE4F528341832FBFDF91CF91FF9001
:10058000EF90DF90CF9008951F93CF93DF93EC010E
:10059000162F88818C3008F04EC061E0812F0E94B8
:1005A0000E018881E82FF0E09F01220F331FE20F38
:1005B000F31FEA5DFE4F1F739081907C192B10830F
:1005C00019821A826CE00E94DE0B9CE0899FB001C8
:1005D000112440E050E09A01260F371FF901EE0F79
:1005E000FF1F2E0F3F1FF901EA5DFE4F908196FD20
:1005F00016C04F5F5F4F4C30510569F781110FC036
:100600001092800082E08093810010928500109209
:100610008400B19A80916F00826080936F00E881BE
:10062000F0E0CF01880F991FE80FF91FEA5DFE4F38
:100630008081806480838881DF91CF911F910895AC
:10064000FC01909125019C30A0F481E0890F8093FA
:1006500025019083892F90E0FC01EE0FFF1F8E0F84
:100660009F1FFC01EA5DFE4F88EB9BE09283818334
:1006700008958FEF80830895682F83E591E00C94AF
:10068000CE01FF920F931F93CF93DF931F92CDB7AD
:10069000DEB78B01F82E82E099830E943C03A8010B
:1006A0006F2D9981792F40939C0350939D03609304
:1006B0009E0370939F03802F0E943C0380919D03B3
:1006C0000E943C0380919E030E943C0380919F0303
:1006D0000F90DF91CF911F910F91FF900C943C03ED
:1006E0008FEF0E943C0385E50E943C0342E050E00E
:1006F00060E271E083E591E00C944A010F931F934F
:1007000090E0FC01E255FF4FA491FC01E656FF4F3B
:10071000E491F0E0EE0FFF1FE057FF4F85919491B9
:100720008A019B013F704A2F6A2F0E94AF05611515
:1007300071058105910549F0DC01CB010196A11DF0
:10074000B11DBC01CD019F7003C060E070E0CB0122
:100750001F910F9108950E94F70B1F920F920FB6F1
:100760000F9211242F933F938F939F93AF93BF9337
:1007700080914F0190915001A0915101B09152018F
:1007800030914E0123E0230F2D3720F40196A11D57
:10079000B11D05C026E8230F0296A11DB11D2093AF
:1007A0004E0180934F0190935001A0935101B0935B
:1007B000520180914A0190914B01A0914C01B0915E
:1007C0004D010196A11DB11D80934A0190934B01EB
:1007D000A0934C01B0934D01BF91AF919F918F9128
:1007E0003F912F910F900FBE0F901F9018951F9261
:1007F0000F920FB60F9211242F933F934F935F9355
:100800006F937F938F939F93AF93BF93EF93FF93D8
:1008100083E591E00E94AD01FF91EF91BF91AF910F
:100820009F918F917F916F915F914F913F912F9108
:100830000F900FBE0F901F9018951F920F920FB63A
:100840000F9211242F938F939F93EF93FF93E09137
:100850006301F09164018081E0916901F0916A0186
:1008600082FD12C0908180916C018F5F8F73209107
:100870006D01821751F0E0916C01F0E0ED5AFE4FEE
:10088000958F80936C0101C08081FF91EF919F91C2
:100890008F912F910F900FBE0F901F9018951F9260
:1008A0000F920FB60F9211242F933F934F935F93A4
:1008B0006F937F938F939F93AF93BF93EF93FF9328
:1008C0008091240187FF05C010928500109284005A
:1008D0001BC020912401022E000C330B80912501B6
:1008E00090E02817390784F480912401082E000C29
:1008F000990BFC01EE0FFF1F8E0F9F1FFC01EA5D9D
:10090000FE4F808186FD15C0809124018F5F80930A
:10091000240120912401022E000C330B809125012B
:1009200090E028173907C4F4809124018C3064F1D9
:1009300013C080912401082E000C990BFC01EE0FCE
:10094000FF1F8E0F9F1FFC01EA5DFE4F808160E05C
:100950008F730E94DE00D8CF809184009091850033
:10096000049680349C4918F480E49CE905C0809189
:10097000840090918500049690938900809388006C
:100980008FEF809324013BC020918400309185003B
:1009900080912401082E000C990BFC01EE0FFF1F23
:1009A0008E0F9F1FFC01EA5DFE4F81819281820FB5
:1009B000931F909389008093880080912401082ED2
:1009C000000C990BFC01EE0FFF1F8E0F9F1FFC0107
:1009D000EA5DFE4F808186FF12C080912401082EBF
:1009E000000C990BFC01EE0FFF1F8E0F9F1FFC01E7
:1009F000EA5DFE4F808161E08F730E94DE00FF910F
:100A0000EF91BF91AF919F918F917F916F915F9186
:100A10004F913F912F910F900FBE0F901F901895FF
:100A20001F920F920FB60F9211242F933F934F9363
:100A30005F936F937F938F939F93AF93BF93EF9346
:100A4000FF938091F0010E94B5002091F301309155
:100A5000F4012F5F3F4F3093F4012093F301909105
:100A6000BD02943618F095E09093F1019091F10158
:100A70009330B9F018F4923039F057C0943059F1EE
:100A8000953009F44CC051C081114FC02091F30141
:100A90003091F4012436310508F443C01092BD02B0
:100AA0001CC0813009F041C0E091BD0291E09E0F71
:100AB0009093BD02F0E02091F3013091F401EE0F2C
:100AC000FF1FE051FE4F368325831092F4011092F0
:100AD000F30194E021C0811117C0E091BD0291E0C3
:100AE0009E0F9093BD02F0E02091F3013091F4014C
:100AF000EE0FFF1FE051FE4F368325831092F40165
:100B00001092F30193E008C02091F3013091F401B9
:100B10002536310550F095E09093F10106C0811122
:100B200004C01092F4011092F3019091F201992304
:100B300029F0811102C02D9A01C02D98FF91EF91EB
:100B4000BF91AF919F918F917F916F915F914F91E5
:100B50003F912F910F900FBE0F901F901895CF923D
:100B6000DF92EF92FF920F931F93E82FF92F05C0AA
:100B7000015011092109310961F1908196239417DF
:100B8000B9F305C0015011092109310911F1908112
:100B900096239413F7CFC12CD12CE12CF12C0AC051
:100BA0008FEFC81AD80AE80AF80A0C151D052E0599
:100BB0003F0579F080818623841791F36C2D7D2D7C
:100BC0008E2D9F2D1F910F91FF90EF90DF90CF9072
:100BD000089560E070E080E090E01F910F91FF9039
:100BE000EF90DF90CF900895CF93DF93109256014E
:100BF0001092550188EE93E0A0E0B0E08093570199
:100C000090935801A0935901B0935A0184E191E067
:100C1000909354018093530185EC90E09093600190
:100C200080935F0184EC90E0909362018093610176
:100C300080EC90E0909364018093630181EC90E0FC
:100C4000909366018093650182EC90E09093680137
:100C50008093670186EC90E090936A01809369012C
:100C600010926C0110926D0110926E0110926F0142
:100C70008EEB92E00E94200381EC92E00E94200320
:100C800084EC92E00E94200387EC92E00E94200313
:100C90008AEC92E00E9420038DEC92E00E942003F7
:100CA00080ED92E00E94200383ED92E00E942003F9
:100CB000C0E0D0E0CE018A529D4F0E9420032396CF
:100CC000C831D105B9F71092EE0210923303109299
:100CD00035031092360310923803109237031092A6
:100CE0006F0380E090E0A4EBB2E4809370039093F4
:100CF0007103A0937203B093730380E1E4E7F3E020
:100D0000DF01982F1D929A95E9F7109284031092B3
:100D10008503109286031092870310928803109225
:100D2000890310928A0310928B03E0E0F1E0ACE8B3
:100D3000B3E001900D928A95E1F78EE08093F00187
:100D40001092F201DF91CF910895CF93DF93CDB749
:100D5000DEB728970FB6F894DEBF0FBECDBF7894EC
:100D600084B5826084BD84B5816084BD85B58260B0
:100D700085BD85B5816085BD80916E008160809361
:100D80006E001092810080918100826080938100CA
:100D900080918100816080938100809180008160DA
:100DA000809380008091B10084608093B100809135
:100DB000B00081608093B00080917A00846080935D
:100DC0007A0080917A00826080937A0080917A0024
:100DD000816080937A0080917A00806880937A00A5
:100DE0001092C10062E070E08EEB92E00E94C402BB
:100DF00063E070E081EC92E00E94C40264E070E085
:100E000084EC92E00E94C40265E070E087EC92E01E
:100E10000E94C40266E070E08AEC92E00E94C40284
:100E200067E070E08DEC92E00E94C40268E070E040
:100E300080ED92E00E94C40269E070E083ED92E0F0
:100E40000E94C402F89412E01093B0001093B10015
:100E500084E68093B3001092B200109370007894EF
:100E60001093F1011092BD028091F00160E00E94A8
:100E70000E01E0916301F09164011083E0915F0144
:100E8000F09160011082E0916101F091620180E1D6
:100E9000808310926B01E0916701F091680186E018
:100EA0008083E0916501F09166018081806180839B
:100EB000E0916501F0916601808188608083E09116
:100EC0006501F0916601808180688083E091650111
:100ED000F091660180818F7D80836AE570E08EEB02
:100EE00092E00E9441026AE570E084EC92E00E9488
:100EF00041026AE570E08AEC92E00E9441026AE5F4
:100F000070E080ED92E00E94410266E470E081ECC6
:100F100092E00E9441026EE670E087EC92E00E944F
:100F200041026EE670E08DEC92E00E94410266E4C0
:100F300070E083ED92E00E94410201E022242394BC
:100F4000312C1092330383E591E00E94970118162B
:100F5000190644F40093330383E591E00E94750180
:100F60008093340380913303882309F48BC220914A
:100F7000340380913503253569F481110BC08091CC
:100F800036038F3F31F530923803209237030093B8
:100F900035031FC0209336038823D9F0809137038F
:100FA000909138038230910519F4422F50E009C026
:100FB0008330910554F04091390350913A034150E8
:100FC000510950933A0340933903FC01E55CFC4F0F
:100FD00020838091370390913803019684339105E3
:100FE0002CF4909338038093370306C01092380393
:100FF000109237031092350380913503882309F44A
:1010000041C22091390330913A032115310509F08D
:1010100039C2809137039091380304970CF432C29F
:101020001092350310913E0310936F03909140038B
:1010300040913F03423009F4CEC01CF4413041F0EE
:101040001DC2443009F418C2453009F415C216C255
:10105000913059F08FEF98870E943C0385E50E94FC
:101060003C03812F0E943C039885109141039432E8
:1010700009F479C02CF49E3191F09F31E1F0A2C0C7
:10108000953209F440C0923309F09CC06091880306
:101090007091890380918A0390918B0391C060E0E5
:1010A000812F0E940E01812F0E94B500BC01990F73
:1010B000880B990B25C0E12FF0E0EE0FFF1FE457DE
:1010C000FC4F108160E0812F0E940E011E3008F05D
:1010D0001E501770106410937C0080917A00806419
:1010E00080937A0080917A0086FDFCCF6091780031
:1010F0008091790070E0782B072E000C880B990BFB
:101100000E94470A5DC0809142038093A8038091AA
:1011100043038093A903E090A803F090A90360E043
:10112000812F0E940E01A701FF0C660B770B812F08
:101130000E947E036B017C0183E00E943C03C70197
:10114000B6010E94450A0E94A80B862F262F372F32
:101150003093A9032093A8030E943C038091A90324
:101160000E943C032FC0F090420361E0812F0E9457
:101170000E0160E0812F0E94DE0083E090E0019785
:10118000F1F761E0812F0E94DE0083E290E0019799
:10119000F1F760E0812F0E94DE0060E08F2D0E9459
:1011A0000E0140E355E760E070E08F2D0E947E0362
:1011B0000E94450A20E030E048E652E40E94360BE7
:1011C0000E94410342E050E060E271E083E591E07B
:1011D0000E944A0153C110914103913209F407C1A1
:1011E0002CF49E3129F1903251F146C1923209F42A
:1011F00080C0923309F040C12FB7F89460914F013D
:101200007091500180915101909152012FBF0E9425
:10121000450A20E030E04AE754E40E94360B609330
:10122000840370938503809386039093870324C17E
:1012300061E0812F0E940E0160914203D4C061E001
:10124000812F0E940E01D0904203ED2CF12C61E021
:10125000812F0E940E01DD2009F4C4C08FEFD81643
:1012600009F445C0E12FF0E0E458FF4FE491E3308A
:10127000F9F048F4E130B9F0E230A1F584B58062CC
:1012800084BDD8BCF9C0E730E9F0E83019F1E430AA
:1012900049F580918000806280938000F0928B00FD
:1012A000E0928A00E9C084B5806884BDD7BCE4C000
:1012B00080918000806880938000F0928900E092A5
:1012C0008800DAC08091B00080688093B000D0922E
:1012D000B300D2C08091B00080628093B000D09201
:1012E000B400CAC090E8E916F1040CF47BC061E0D8
:1012F0007AC061E0812F0E940E01809142038093A9
:10130000A803809143038093A9032091A8033091FF
:10131000A903809144038093A8038091450380939F
:10132000A903E090A803F090A9031E141F040CF079
:1013300055C0032E000C440B550B60E472E48FE0A3
:1013400090E00E94D30A29013A01490161E0812F0E
:101350000E940E0128EE33E0D7010E94EA0B6C8355
:101360007D838E839F83720157FE03C0AFEFEA1A1D
:10137000FA0AF594E7946701CC0CDD1CCC0CDD1C5B
:10138000B5E0CB1AD108412C512C3201092C000CAC
:10139000AA08BB0861E0812F0E94DE0082E0E81607
:1013A000F10418F0C6010197F1F760E0812F0E9467
:1013B000DE0092E0E916F10418F0C6010197F1F79A
:1013C000480C591C6A1C7B1C8C819D81AE81BF819D
:1013D000481659066A067B06ECF24EC061E0812F82
:1013E0000E940E0160E0812F0E94DE0045C0612F47
:1013F000110F770B10914203E4E7F3E080E090E0F7
:10140000419151914617570779F0452B41F4FC0162
:10141000EE0FFF1FEC58FC4F7183608305C00196EF
:101420008830910569F701C09C01C901880F991F97
:10143000280F391FF901E254FD4F808D918DA28D47
:1014400089839A83AB83153BB8F4898190E09C0132
:10145000220F331F820F931FFC01EA5DFE4F808134
:1014600086FD04C0CE0101960E94C402612F70E087
:10147000CE0101960E9441020E947003109238032F
:10148000109237030E9437025CCDE89409C097FBA5
:101490003EF490958095709561957F4F8F4F9F4F4B
:1014A0009923A9F0F92F96E9BB279395F69587958F
:1014B00077956795B795F111F8CFFAF4BB0F11F452
:1014C00060FF1BC06F5F7F4F8F4F9F4F16C08823F9
:1014D00011F096E911C0772321F09EE8872F762F2F
:1014E00005C0662371F096E8862F70E060E02AF070
:1014F0009A95660F771F881FDAF7880F969587955C
:1015000097F9089597F99F6780E870E060E0089583
:101510009FEF80EC089500240A941616170618060B
:101520000906089500240A941216130614060506E7
:101530000895092E0394000C11F4882352F0BB0F78
:1015400040F4BF2B11F460FF04C06F5F7F4F8F4FDB
:101550009F4F089557FD9058440F551F59F05F3F16
:1015600071F04795880F97FB991F61F09F3F79F0C5
:1015700087950895121613061406551FF2CF469547
:10158000F1DF08C0161617061806991FF1CF8695C9
:101590007105610508940895E894BB2766277727AD
:1015A000CB0197F90895052E97FB1EF400940E9435
:1015B000EA0A57FD07D00E94050B07FC03D04EF442
:1015C0000C94EA0A50954095309521953F4F4F4F26
:1015D0005F4F089590958095709561957F4F8F4FDF
:1015E0009F4F08950E94270BA59F900DB49F900DCB
:1015F000A49F800D911D11240895B7FF0C94F20A49
:101600000E94F20A821B930B0895A1E21A2EAA1BD4
:10161000BB1BFD010DC0AA1FBB1FEE1FFF1FA217A2
:10162000B307E407F50720F0A21BB30BE40BF50B9F
:10163000661F771F881F991F1A9469F76095709528
:10164000809590959B01AC01BD01CF010895A29FAB
:10165000B001B39FC001A39F700D811D1124911D86
:10166000B29F700D811D1124911D08950E944A0B97
:101670000C94990A0E94920A58F00E948B0A40F03A
:1016800029F45F3F29F00C94820A51110C94CD0A81
:101690000C94880A0E94AA0A68F39923B1F355238F
:1016A00091F3951B550BBB27AA2762177307840775
:1016B00038F09F5F5F4F220F331F441FAA1FA9F30B
:1016C00035D00E2E3AF0E0E832D091505040E695F9
:1016D000001CCAF72BD0FE2F29D0660F771F881F5A
:1016E000BB1F261737074807AB07B0E809F0BB0B4D
:1016F000802DBF01FF2793585F4F3AF09E3F510561
:1017000078F00C94820A0C94CD0A5F3FE4F3983E83
:10171000D4F3869577956795B795F7959F5FC9F749
:10172000880F911D9695879597F90895E1E0660FCA
:10173000771F881FBB1F621773078407BA0720F043
:10174000621B730B840BBA0BEE1F88F7E0950895AC
:101750000E94AF0B6894B1110C94CD0A08950E94B9
:10176000B20A88F09F5798F0B92F9927B751B0F077
:10177000E1F0660F771F881F991F1AF0BA95C9F715
:1017800014C0B13091F00E94CC0AB1E008950C94DD
:10179000CC0A672F782F8827B85F39F0B93FCCF390
:1017A000869577956795B395D9F73EF49095809592
:1017B000709561957F4F8F4F9F4F0895991B79E0EA
:1017C00004C0991F961708F0961B881F7A95C9F7D1
:1017D000809508950E94270BB7FF0895821B930BF5
:1017E0000895EE0FFF1F0590F491E02D099481E01C
:0C17F00090E0F8940C94FC0BF894FFCFF0
:1017FC000E000F0010001100120013001400150051
:10180C0000000000CE014A01970175018901150203
:04181C000D0A0000B1
:00000001FF
