:100000000C9481000C94A9000C94A9000C94A900F4
:100010000C94A9000C94A9000C94A9000C949E03C4
:100020000C94A9000C94A9000C94A9000C94CA0289
:100030000C94A9000C94A9000C94A9000C94A9009C
:100040000C9413060C94A9000C949D010C94770158
:100050000C94A9000C94A9000C94A9000C94A9007C
:100060000C94A9000C94A9004E414E494E49545994
:10007000494E46CDCCCC3D0AD7233C17B7D1387773
:10008000CC2B329595E6241FB14F0A000020410089
:1000900000C84200401C4620BCBE4CCA1B0E5AAED3
:1000A000C59D743E200000000000240027002A00A7
:1000B00000000000250028002B00000000080002BE
:1000C0000100000304070000000000000000000021
:1000D000000023002600290004040404040404048E
:1000E00002020202020203030303030301020408E3
:1000F0001020408001020408102001020408102092
:10010000131111241FBECFEFD8E0DEBFCDBF11E029
:10011000A0E0B1E0E0EDFBE202C005900D92A03856
:10012000B107D9F724E0A0E8B1E001C01D92A731E2
:10013000B207E1F710E0C1E8D0E004C02197FE016A
:100140000E94C215C038D107C9F70E94A2060C94BC
:10015000E6150C940000FC01918D828D981761F0DA
:10016000828DDF01A80FB11D5D968C91928D9F5FEE
:100170009F73928F90E008958FEF9FEF0895FC0199
:10018000918D828D981731F0828DE80FF11D858D4C
:1001900090E008958FEF9FEF0895FC01918D228DDF
:1001A000892F90E0805C9F4F821B91098F73992764
:1001B00008958AEA91E00E94CD0021E0892B09F49C
:1001C00020E0822F0895FC01848DDF01A80FB11D6E
:1001D000A35ABF4F2C91848D90E001968F7399277D
:1001E000848FA689B7892C93A089B1898C9180646A
:1001F0008C93938D848D981306C00288F389E02D2B
:1002000080818F7D80830895EF92FF920F931F93DB
:10021000CF93DF93EC0181E0888F9B8D8C8D9813B9
:1002200005C0E889F989808185FD24C0F62E0B8DF3
:1002300010E00F5F1F4F0F731127E02E8C8DE81217
:100240000CC00FB607FCFACFE889F989808185FFD9
:10025000F5CFCE010E94E300F1CF8B8DFE01E80FB8
:10026000F11DE35AFF4FF0820B8FEA89FB898081F1
:10027000806207C0EE89FF896083E889F9898081FF
:100280008064808381E090E0DF91CF911F910F9196
:10029000FF90EF900895CF93DF93EC01888D882332
:1002A000C9F0EA89FB89808185FD05C0A889B989E3
:1002B0008C9186FD0FC00FB607FCF5CF808185FFBE
:1002C000F2CFA889B9898C9185FFEDCFCE010E942C
:1002D000E300E7CFDF91CF91089580E090E0892B94
:1002E00029F00E94D90081110C94000008951F92FA
:1002F0000F920FB60F9211242F933F934F935F935A
:100300006F937F938F939F93AF93BF93EF93FF93DD
:100310008AEA91E00E94E300FF91EF91BF91AF91D3
:100320009F918F917F916F915F914F913F912F910D
:100330000F900FBE0F901F9018951F920F920FB63F
:100340000F9211242F938F939F93EF93FF93E0913C
:10035000BA01F091BB018081E091C001F091C1012F
:1003600082FD12C090818091C3018F5F8F732091B5
:10037000C401821751F0E091C301F0E0E655FE4F51
:10038000958F8093C30101C08081FF91EF919F9170
:100390008F912F910F900FBE0F901F901895CF92B5
:1003A000DF92EF92FF92CF93DF93EC01603282E015
:1003B00078070CF03DC077FD06C0653B71052CF059
:1003C00064EB70E002C060E070E0898128E830E012
:1003D0006901C81AD10887FDD394CC0CDD1CCC0C64
:1003E000DD1C0D2C000CEE08FF088A8128E532E0A8
:1003F000281B310987FD3395220F331F220F331F2E
:10040000C901330FAA0BBB0B9C01AD012C193D098F
:100410004E095F09DB010E94971424EB30E040E0B5
:1004200050E00E946D14C20ED31EE41EF51EB601EC
:1004300088818C3080F5998148E850E0491B51094A
:1004400097FD5395440F551F440F551F64177507AB
:1004500084F09A8128E532E0291B310997FD339514
:10046000220F331F220F331FAB01261737070CF45F
:10047000A90142505109440F551F2FB7F89490E03D
:10048000FC01EE0FFF1F8E0F9F1FFC01E058FE4F77
:10049000528341832FBFDF91CF91FF90EF90DF9088
:1004A000CF9008951F93CF93DF93EC01162F88818F
:1004B0008C3008F04EC061E0812F0E949D0588813C
:1004C000E82FF0E09F01220F331FE20FF31FE058E7
:1004D000FE4F1F739081907C192B108319821A8212
:1004E0006CE00E94AF159CE0899FB001112440E0B0
:1004F00050E09A01260F371FF901EE0FFF1F2E0F54
:100500003F1FF901E058FE4F908196FD16C04F5FE6
:100510005F4F4C30510569F781110FC01092800078
:1005200082E0809381001092850010928400B19A3D
:1005300080916F00826080936F00E881F0E0CF01CE
:10054000880F991FE80FF91FE058FE4F80818064E3
:1005500080838881DF91CF911F910895FC01909154
:10056000A5019C30A0F481E0890F8093A5019083C0
:10057000892F90E0FC01EE0FFF1F8E0F9F1FFC01E3
:10058000E058FE4F88EB9BE09283818308958FEFC4
:10059000808308951F920F920FB60F9211242F930C
:1005A0003F934F935F936F937F938F939F93AF93FB
:1005B000BF93EF93FF938091A40187FF05C0109232
:1005C0008500109284001BC02091A401022E000C13
:1005D000330B8091A50190E02817390784F48091AE
:1005E000A401082E000C990BFC01EE0FFF1F8E0FCB
:1005F0009F1FFC01E058FE4F808186FD15C0809151
:10060000A4018F5F8093A4012091A401022E000C0D
:10061000330B8091A50190E028173907C4F480912D
:10062000A4018C3064F113C08091A401082E000C49
:10063000990BFC01EE0FFF1F8E0F9F1FFC01E0586E
:10064000FE4F808160E08F730E946D05D8CF80914E
:10065000840090918500049680349C4918F480E4CD
:100660009CE905C080918400909185000496909348
:100670008900809388008FEF8093A4013BC0209174
:100680008400309185008091A401082E000C990B04
:10069000FC01EE0FFF1F8E0F9F1FFC01E058FE4F65
:1006A00081819281820F931F9093890080938800AB
:1006B0008091A401082E000C990BFC01EE0FFF1F86
:1006C0008E0F9F1FFC01E058FE4F808186FF12C0F5
:1006D0008091A401082E000C990BFC01EE0FFF1F66
:1006E0008E0F9F1FFC01E058FE4F808161E08F73E9
:1006F0000E946D05FF91EF91BF91AF919F918F91F6
:100700007F916F915F914F913F912F910F900FBE0D
:100710000F901F901895682F8AEA91E00C940401BD
:100720008FEF0E948B0385E50E948B0342E050E02F
:100730006CE771E08AEA91E00C948B041F920F92AF
:100740000FB60F9211242F933F934F935F936F93A4
:100750007F938F939F93AF93BF93EF93FF9380917A
:1007600047020E94440520914A0230914B022F5FBC
:100770003F4F30934B0220934A02909114039436DA
:1007800018F095E090934802909148029330B9F0A8
:1007900018F4923039F057C0943059F1953009F47B
:1007A0004CC051C081114FC020914A0230914B0280
:1007B0002436310508F443C0109214031CC0813064
:1007C00009F041C0E091140391E09E0F909314034F
:1007D000F0E020914A0230914B02EE0FFF1FE95BDF
:1007E000FD4F3683258310924B0210924A0294E00B
:1007F00021C0811117C0E091140391E09E0F9093E6
:100800001403F0E020914A0230914B02EE0FFF1FDB
:10081000E95BFD4F3683258310924B0210924A020A
:1008200093E008C020914A0230914B0225363105F1
:1008300050F095E09093480206C0811104C01092D8
:100840004B0210924A0290914902992329F081119A
:1008500002C02D9A01C02D98FF91EF91BF91AF91E9
:100860009F918F917F916F915F914F913F912F91C8
:100870000F900FBE0F901F901895833081F028F4D1
:10088000813099F08230A1F008958730A9F0883046
:10089000B9F08430D1F4809180008F7D03C08091C5
:1008A00080008F7780938000089584B58F7702C091
:1008B00084B58F7D84BD08958091B0008F7703C08B
:1008C0008091B0008F7D8093B00008953FB7F89479
:1008D0008091110490911204A0911304B09114041A
:1008E00026B5A89B05C02F3F19F00196A11DB11D8B
:1008F0003FBFBA2FA92F982F8827820F911DA11DC6
:10090000B11DBC01CD0142E0660F771F881F991F02
:100910004A95D1F70895CF92DF92EF92FF920F930D
:100920001F93CF93DF936C017A018B01C0E0D0E07D
:10093000CE15DF0589F0D8016D918D01D601ED91BD
:10094000FC910190F081E02DC6010995892B11F4ED
:100950007E0102C02196ECCFC701DF91CF911F919C
:100960000F91FF90EF90DF90CF9008950E94C815EF
:100970006AE570E085E193E00E94CF016AE570E0EE
:100980008BE193E00E94CF016AE570E081E293E0A1
:100990000E94CF016AE570E087E293E00E94CF01F8
:1009A00066E470E088E193E00E94CF016EE670E0BB
:1009B0008EE193E00E94CF016EE670E084E293E066
:1009C0000E94CF0166E470E08AE293E00C94CF01CC
:1009D000FF920F931F93CF93DF931F92CDB7DEB794
:1009E0008B01F82E82E099830E948B03A8016F2D62
:1009F0009981792F4093F3035093F4036093F503A7
:100A00007093F603802F0E948B038091F4030E9461
:100A10008B038091F5030E948B038091F6030F9066
:100A2000DF91CF911F910F91FF900C948B030F9347
:100A30001F9390E0FC01E451FF4FA491FC01E852A8
:100A4000FF4FE491F0E0EE0FFF1FE253FF4F85915F
:100A500094918A019B013F704A2F6A2F0E945D0684
:100A6000611571058105910549F0DC01CB01019605
:100A7000A11DB11DBC01CD019F7003C060E070E0FD
:100A8000CB011F910F910895CF93DF93282F30E072
:100A9000F901E654FF4F8491F901E451FF4FD491DD
:100AA000F901E852FF4FC491CC2391F081110E94CB
:100AB0003D04EC2FF0E0EE0FFF1FE253FF4FA59136
:100AC000B491EC91ED2381E090E021F480E002C04C
:100AD00080E090E0DF91CF9108951F93CF93DF9353
:100AE000282F30E0F901E654FF4F8491F901E451D9
:100AF000FF4FD491F901E852FF4FC491CC23C9F0C4
:100B0000162F81110E943D04EC2FF0E0EE0FFF1F25
:100B1000E055FF4FA591B4918FB7F894111105C01E
:100B20009C91ED2FE095E92302C0EC91ED2BEC9325
:100B30008FBFDF91CF911F910895CF93DF9390E006
:100B4000FC01E451FF4F2491FC01E852FF4F8491D6
:100B5000882361F190E0880F991FFC01EA55FF4F4F
:100B6000C591D491FC01E055FF4FA591B49161115D
:100B700009C09FB7F8948881209582238883EC91DF
:100B80002E230BC0623061F49FB7F8943881822F16
:100B9000809583238883EC912E2B2C939FBF06C0D6
:100BA0008FB7F894E8812E2B28838FBFDF91CF91E8
:100BB00008958F929F92AF92BF92CF92DF92EF9261
:100BC000FF926B017C010E9466044B015C01C11421
:100BD000D104E104F104F1F00E946604DC01CB01D0
:100BE00088199909AA09BB09883E9340A105B10556
:100BF00070F321E0C21AD108E108F10888EE880EEE
:100C000083E0981EA11CB11CC114D104E104F104BD
:100C100019F7DDCFFF90EF90DF90CF90BF90AF90AE
:100C20009F908F9008951F920F920FB60F921124EC
:100C30002F933F938F939F93AF93BF938091A60180
:100C40009091A701A091A801B091A9013091100441
:100C500023E0230F2D3720F40196A11DB11D05C0FF
:100C600026E8230F0296A11DB11D20931004809346
:100C7000A6019093A701A093A801B093A901809128
:100C8000110490911204A0911304B09114040196E0
:100C9000A11DB11D8093110490931204A09313041D
:100CA000B0931404BF91AF919F918F913F912F9179
:100CB0000F900FBE0F901F901895CF92DF92EF927A
:100CC000FF920F931F93E82FF92F05C001501109D0
:100CD0002109310961F1908196239417B9F305C078
:100CE000015011092109310911F1908196239413C2
:100CF000F7CFC12CD12CE12CF12C0AC08FEFC81AF0
:100D0000D80AE80AF80A0C151D052E053F0579F0EA
:100D100080818623841791F36C2D7D2D8E2D9F2D40
:100D20001F910F91FF90EF90DF90CF90089560E0BA
:100D300070E080E090E01F910F91FF90EF90DF90C6
:100D4000CF900895CF93DF93CDB7DEB729970FB635
:100D5000F894DEBF0FBECDBF789484B5826084BDA9
:100D600084B5816084BD85B5826085BD85B58160AF
:100D700085BD80916E00816080936E00109281002D
:100D800080918100826080938100809181008160E8
:100D900080938100809180008160809380008091A9
:100DA000B10084608093B1008091B0008160809335
:100DB000B00080917A00846080937A0080917A00FC
:100DC000826080937A0080917A00816080937A00BB
:100DD00080917A00806880937A001092C10062E06E
:100DE00070E085E193E00E94520263E070E088E1E8
:100DF00093E00E94520264E070E08BE193E00E9475
:100E0000520265E070E08EE193E00E94520266E0DB
:100E100070E081E293E00E94520267E070E084E2B9
:100E200093E00E94520268E070E087E293E00E9443
:100E3000520269E070E08AE293E00E945202F89464
:100E400012E01093B0001093B10084E68093B300D9
:100E50001092B20010937000789410934802109290
:100E600014038091470260E00E949D05E091BA0161
:100E7000F091BB011083E091B601F091B7011082AF
:100E8000E091B801F091B90180E180831092C20134
:100E9000E091BE01F091BF0186E08083E091BC014A
:100EA000F091BD01808180618083E091BC01F0916F
:100EB000BD01808188608083E091BC01F091BD011B
:100EC000808180688083E091BC01F091BD018081C8
:100ED0008F7D80830E94B80434EBC32ED12C1092F6
:100EE0008A038AEA91E00E94CD00181619064CF494
:100EF00081E080938A038AEA91E00E94AB008093AC
:100F00008B0380918A038823B1F020918B03809119
:100F1000860390918703AC014F5F5F4F5093870327
:100F200040938603FC01EB5EFC4F21AB2B3319F49D
:100F300081E08093450380914503811106C0809133
:100F40008A038111DDC60C940F11E0918603F091A4
:100F50008703EB5EFC4F11AA47E050E060E271E0CE
:100F600086E493E00E94D815892B09F069C0E12C32
:100F7000F12C06E413E001151105E9F080918603D8
:100F8000909187038A5B9C4F08171907A0F460E2D1
:100F900070E0C8010E94CD15DC0111962C9124351A
:100FA00051F48C010F5F1F4F02960E94C4110E94E2
:100FB00079157B01E0CF66E470E085E193E00E9463
:100FC000CF016EE670E08BE193E00E94CF016EE608
:100FD00070E081E293E00E94CF0166E470E087E276
:100FE00093E00E94CF0164E670E080E090E00E9410
:100FF000D90504EB10E02701FF0C660877085601BD
:10100000A01AB10AB50188E193E00E94CF01B801AE
:1010100084E293E00E94CF01B8018EE193E00E9448
:10102000CF01B5018AE293E00E94CF01C301B20172
:101030000E94D905015011090E36110501F744C669
:1010400047E050E068E271E086E493E00E94D81542
:10105000892B09F068C0E12CF12C06E413E001159E
:101060001105E1F080918603909187038A5B9C4F84
:101070000817190798F460E270E0C8010E94CD15C6
:10108000FC012181243551F48C010F5F1F4F029622
:101090000E94C4110E9479157B01E1CF66E470E0E3
:1010A00085E193E00E94CF016EE670E08BE193E072
:1010B0000E94CF016EE670E081E293E00E94CF01D2
:1010C00066E470E087E293E00E94CF0164E670E09E
:1010D00080E090E00E94D9050AE510E02701FF0CAE
:1010E000660877085601A01AB10AB50188E193E0B5
:1010F0000E94CF01B80184E293E00E94CF01B801C1
:101100008EE193E00E94CF01B5018AE293E00E9454
:10111000CF01C301B2010E94D9050F5F1F4F043BED
:10112000110501F7D1C545E050E060E371E086E4C8
:1011300093E00E94D815892B09F067C0E12CF12CAF
:1011400006E413E001151105E9F080918603909102
:1011500087038A5B9C4F08171907A0F460E270E0D0
:10116000C8010E94CD15DC0111962C91243551F453
:101170008C010F5F1F4F02960E94C4110E947915C7
:101180007B01E0CF66E470E085E193E00E94CF014F
:101190006EE670E08BE193E00E94CF016EE670E0B6
:1011A00081E293E00E94CF0166E470E087E293E081
:1011B0000E94CF0164E670E080E090E00E94D905D3
:1011C0000AE510E02701FF0C660877085601A01A0F
:1011D000B10AB50188E193E00E94CF01B80184E231
:1011E00093E00E94CF01B8018EE193E00E94CF010D
:1011F000B5018AE293E00E94CF01C301B2010E94CF
:10120000D9050150110911F75FC546E050E066E3CA
:1012100071E086E493E00E94D815892B19F40E94AE
:10122000B80452C546E050E06DE371E086E493E017
:101230000E94D815892B69F566E470E085E193E09A
:101240000E94CF016EE670E08BE193E00E94CF0137
:101250006EE670E081E293E00E94CF0166E470E008
:1012600087E293E00E94CF0166E470E088E193E0BA
:101270000E94CF016EE670E08EE193E00E94CF0104
:101280006EE670E084E293E00E94CF0166E470E0D5
:1012900036C046E050E064E471E086E493E00E94EA
:1012A000D815892B79F56AE570E085E193E00E9415
:1012B000CF016AE570E08BE193E00E94CF016AE51F
:1012C00070E081E293E00E94CF016AE570E087E27E
:1012D00093E00E94CF016AE570E088E193E00E940C
:1012E000CF016AE570E08EE193E00E94CF016AE5EC
:1012F00070E084E293E00E94CF016AE570E08AE248
:1013000093E08FC345E050E06BE471E086E493E046
:101310000E94D815892B09F0A0C0E12CF12C06E41D
:1013200013E001151105E1F0809186039091870388
:101330008A5B9C4F0817190798F460E270E0C801B7
:101340000E94CD15FC012181243551F48C010F5FE1
:101350001F4F02960E94C4110E9479157B01E1CFB4
:1013600060EA70E085E193E00E94CF016AEA70E0F4
:1013700088E193E00E94CF0160EA70E08BE193E0A6
:101380000E94CF016AE070E08EE193E00E94CF01FD
:1013900060EA70E081E293E00E94CF016AE070E0D1
:1013A00084E293E00E94CF0160EA70E087E293E07C
:1013B0000E94CF016AEA70E08AE293E00E94CF01C6
:1013C00064E670E080E090E00E94D90500EA10E059
:1013D0004701FF0CAA08BB08B80185E193E00E9411
:1013E000CF01B8018BE193E00E94CF01B80181E207
:1013F00093E00E94CF01B80187E293E00E94CF0101
:10140000C501B4010E94D90501501109043111052B
:1014100019F764EF71E080E090E00E94D905B8010F
:1014200085E193E00E94CF01B8018BE193E00E9437
:10143000CF01B80181E293E00E94CF01B80187E2B9
:1014400093E00E94CF01C501B4010E94D9050F5F4E
:101450001F4F003A110519F737C445E050E061E528
:1014600071E086E493E00E94D815892B09F0C5C08D
:10147000812C912C06E413E001151105E9F080910F
:101480008603909187038A5B9C4F08171907A0F485
:1014900060E270E0C8010E94CD15DC0111962C912C
:1014A000243551F48C010F5F1F4F02960E94C41126
:1014B0000E9479154B01E0CF62E370E085E193E093
:1014C0000E94CF0166E970E08BE193E00E94CF01BA
:1014D0006EE670E081E293E00E94CF0162E370E08B
:1014E00087E293E00E94CF016AE570E088E193E033
:1014F0000E94CF016AE570E084E293E00E94CF0190
:101500006AE570E08EE193E00E94CF016AE570E049
:101510008AE293E00E94CF0164EF71E080E090E006
:101520000E94D9056AE070E088E193E00E94CF0153
:1015300064E670E080E090E00E94D90522E0E22EAF
:10154000F12C092C000CAA08BB0800E010E0B8013F
:1015500088E193E00E94CF01C501B4010E94D90542
:101560000F5F1F4F0C33110591F7B80188E193E02D
:101570000E94CF01C501B4010E94D9050150110993
:10158000A1F7EA94EF2821F0EE24E394F12CDDCFCB
:1015900064E670E080E090E00E94D9056AE070E0C7
:1015A00088E193E00E94CF0182E0E82EF12C0EE169
:1015B00010E0B80185E193E00E94CF01C501B401BC
:1015C0000E94D9050F5F1F4F0035110591F7B80133
:1015D00085E193E00E94CF01C501B4010E94D905C5
:1015E000015011090E31110591F7EA94EF2809F421
:1015F0006BC3EE24E394F12CDACF48E050E067E5CA
:1016000071E086E493E00E94D815892B09F0A9C007
:10161000812C912C06E413E001151105E9F080916D
:101620008603909187038A5B9C4F08171907A0F4E3
:1016300060E270E0C8010E94CD15DC0111962C918A
:10164000243551F48C010F5F1F4F02960E94C41184
:101650000E9479154B01E0CF6AE570E085E193E0E7
:101660000E94CF016AE570E08BE193E00E94CF0118
:101670006AE570E081E293E00E94CF016AE570E0E4
:1016800087E293E00E94CF016AE570E088E193E091
:101690000E94CF016AE570E08EE193E00E94CF01E5
:1016A0006AE570E084E293E00E94CF016AE570E0B1
:1016B0008AE293E00E94CF0168EC70E080E090E065
:1016C0000E94D90512E0612E712C092C000CAA0889
:1016D000BB0800E010E07601E01AF10AB80188E1E9
:1016E00093E00E94CF01B8018EE193E00E94CF0108
:1016F000B70184E293E00E94CF01B7018AE293E050
:101700000E94CF01C501B4010E94D9050F5F1F4F90
:10171000043B110501F77601E01AF10AB80188E1EE
:1017200093E00E94CF01B8018EE193E00E94CF01C7
:10173000B70184E293E00E94CF01B7018AE293E00F
:101740000E94CF01C501B4010E94D90501501109C1
:1017500011F76A94672809F4B7C266246394712C60
:10176000B8CF47E050E060E671E086E493E00E9485
:10177000D815892B09F0A4C0812C912C06E413E024
:1017800001151105E1F080918603909187038A5B32
:101790009C4F0817190798F460E270E0C8010E9496
:1017A000CD15FC012181243551F48C010F5F1F4FB1
:1017B00002960E94C4110E9479154B01E1CF68E2A4
:1017C00070E088E193E00E94CF01092C000CAA0888
:1017D000BB08C501B4010E94D90568E270E085E14B
:1017E00093E00E94CF01C501B4010E94D9056AE5CA
:1017F00070E088E193E00E94CF016CE370E08BE140
:1018000093E00E94CF0168E270E08AE293E00E94D8
:10181000CF01C501B4010E94D9056CE870E087E2F0
:1018200093E00E94CF01C501B4010E94D9056AE589
:1018300070E08AE293E00E94CF016CE370E087E2FF
:1018400093E00E94CF016CE870E08EE193E00E948B
:10185000CF01C501B4010E94D9056CE870E08BE1AD
:1018600093E00E94CF01C501B4010E94D9056AE549
:1018700070E08EE193E00E94CF0168E770E085E1BF
:1018800093E00E94CF016CE870E084E293E00E9454
:10189000CF01C501B4010E94D90568E270E081E280
:1018A00093E00E94CF01C501B4010E94D9056AE509
:1018B00070E084E293E00E94CF0168E770E0AFC07F
:1018C00048E050E068E671E086E493E00E94D815B5
:1018D000892B09F0A9C0812C912C06E413E0011595
:1018E0001105E9F080918603909187038A5B9C4FF4
:1018F00008171907A0F460E270E0C8010E94CD1536
:10190000DC0111962C91243551F48C010F5F1F4F8F
:1019100002960E94C4110E9479154B01E0CF68E243
:1019200070E08AE293E00E94CF01092C000CAA0823
:10193000BB08C501B4010E94D90568E270E087E2E6
:1019400093E00E94CF01C501B4010E94D9056AE568
:1019500070E08AE293E00E94CF0168E770E08BE1DB
:1019600093E00E94CF0168E270E088E193E00E947A
:10197000CF01C501B4010E94D9056CE870E085E192
:1019800093E00E94CF01C501B4010E94D9056AE528
:1019900070E088E193E00E94CF0168E770E087E2A1
:1019A00093E00E94CF016CE870E084E293E00E9433
:1019B000CF01C501B4010E94D9056CE870E081E255
:1019C00093E00E94CF01C501B4010E94D9056AE5E8
:1019D00070E084E293E00E94CF016CE370E085E167
:1019E00093E00E94CF016CE870E08EE193E00E94EA
:1019F000CF01C501B4010E94D90568E270E08BE116
:101A000093E00E94CF01C501B4010E94D9056AE5A7
:101A100070E08EE193E00E94CF016CE370E081E220
:101A200093E00E94CF0150C145E050E061E771E0D2
:101A300086E493E00E94D815892B09F09AC0812C86
:101A4000912C06E413E001151105E1F08091860365
:101A5000909187038A5B9C4F0817190798F460E2FE
:101A600070E0C8010E94CD15FC012181243551F49C
:101A70008C010F5F1F4F02960E94C4110E947915BE
:101A80004B01E1CF68E270E088E193E00E94CF0172
:101A900068E270E08AE293E00E94CF01092C000C1A
:101AA000AA08BB08C501B4010E94D9056CE370E027
:101AB00085E193E00E94CF016CE370E087E293E060
:101AC0000E94CF0168E770E08BE193E00E94CF01B4
:101AD00068E770E081E293E00E94CF01C501B401A4
:101AE0000E94D9056AE570E088E193E00E94CF0189
:101AF0006AE570E08AE293E00E94CF01C501B4017B
:101B00000E94D9056CE870E08EE193E00E94CF015D
:101B10006CE870E084E293E00E94CF01C501B4015B
:101B20000E94D90568E770E085E193E00E94CF014B
:101B300068E770E087E293E00E94CF016CE370E019
:101B40008BE193E00E94CF016CE370E081E293E0CF
:101B50000E94CF01C501B4010E94D9056AE570E079
:101B60008EE193E00E94CF016AE570E084E293E0A9
:101B7000A5C044E050E067E771E086E493E00E948E
:101B8000D815892B09F0A0C0812C912C06E413E014
:101B900001151105E9F080918603909187038A5B16
:101BA0009C4F08171907A0F460E270E0C8010E947A
:101BB000CD15DC0111962C91243551F48C010F5F69
:101BC0001F4F02960E94C4110E9479154B01E0CF6D
:101BD0006CE870E08EE193E00E94CF016CE870E069
:101BE00084E293E00E94CF01092C000CAA08BB08F4
:101BF000C501B4010E94D90568E770E08BE193E06C
:101C00000E94CF0168E770E081E293E00E94CF017B
:101C10006CE370E085E193E00E94CF016CE370E03B
:101C200087E293E00E94CF01C501B4010E94D9056B
:101C30006AE570E08EE193E00E94CF016AE570E012
:101C400084E293E00E94CF01C501B4010E94D9054E
:101C500068E270E088E193E00E94CF0168E270E002
:101C60008AE293E00E94CF01C501B4010E94D90528
:101C70006CE370E08BE193E00E94CF016CE370E0D5
:101C800081E293E00E94CF0168E770E085E193E094
:101C90000E94CF0168E770E087E293E00E94CF01E5
:101CA000C501B4010E94D9056AE570E088E193E0BE
:101CB0000E94CF016AE570E08AE293E00E94CF01C2
:101CC000C501B4010E94D905109245031092870303
:101CD0001092860303EA10E0F8016491662309F488
:101CE0002EC9E091AA01F091AB010190F081E02DA5
:101CF0008AEA91E009950F5F1F4F892B69F71FC989
:101D000020918B0380918C03253581F481110EC0C5
:101D100080918D038F3F49F521E030E030938F03B0
:101D200020938E0381E080938C031FC020938D034A
:101D30008823D9F080918E0390918F038230910592
:101D400019F4422F50E009C08330910554F04091BE
:101D50009003509191034150510950939103409346
:101D60009003FC01EE56FC4F208380918E039091EE
:101D70008F030196843391052CF490938F03809305
:101D80008E0306C010928F0310928E0310928C0364
:101D900080918C03882309F442C2209190033091F2
:101DA00091032115310509F03AC280918E0390917B
:101DB0008F0304970CF433C210928C031091950397
:101DC0001093C6030091970390919603923009F403
:101DD000CCC01CF4913041F01EC2943009F419C2F9
:101DE000953009F416C217C2013049F08FEF0E94F6
:101DF0008B0385E50E948B03812F0E948B0310913A
:101E00009803043209F479C02CF40E3191F00F31AB
:101E1000E1F0A2C0053209F440C0023309F09CC0D1
:101E20006091DF037091E0038091E1039091E20300
:101E300091C060E0812F0E949D05812F0E94440582
:101E4000BC01990F880B990B25C0E12FF0E0EE0F34
:101E5000FF1FED51FC4F108160E0812F0E949D0516
:101E60001E3008F01E501770106410937C00809193
:101E70007A00806480937A0080917A0086FDFCCF9E
:101E8000609178008091790070E0782B072E000C2B
:101E9000880B990B0E944D135DC08091990380932C
:101EA000FF0380919A0380930004E090FF03F09079
:101EB000000460E0812F0E949D05A701FF0C660BC6
:101EC000770B812F0E9417054B015C0183E00E9474
:101ED0008B03C501B4010E944B130E947915862F14
:101EE000262F372F309300042093FF030E948B038B
:101EF000809100040E948B032FC00091990361E040
:101F0000812F0E949D0560E0812F0E946D0583E076
:101F100090E00197F1F761E0812F0E946D0583E267
:101F200090E00197F1F760E0812F0E946D0560E07D
:101F3000802F0E949D0540E355E760E070E0802F10
:101F40000E9417050E944B1320E030E048E652E45F
:101F50000E9407150E94E80442E050E06CE771E03F
:101F60008AEA91E00E948B0456C1109198030132D5
:101F700009F40AC12CF40E3129F1003251F149C1A2
:101F8000023209F47FC0023309F043C12FB7F8943D
:101F90006091A6017091A7018091A8019091A9017B
:101FA0002FBF0E944B1320E030E04AE754E40E9428
:101FB00007156093DB037093DC038093DD0390933C
:101FC000DE0327C161E0812F0E949D056091990386
:101FD000D7C061E0812F0E949D0500919903E02EFA
:101FE000F12C61E0812F0E949D05002309F4C7C0F8
:101FF0000F3F09F445C0E12FF0E0E654FF4FE491B4
:10200000E330F9F048F4E130B9F0E230A1F584B5FD
:10201000806284BD08BDFDC0E730E9F0E83019F109
:10202000E43049F580918000806280938000F092D6
:102030008B00E0928A00EDC084B5806884BD07BD46
:10204000E8C080918000806880938000F0928900D1
:10205000E0928800DEC08091B00080688093B0007C
:102060000093B300D6C08091B00080628093B0002E
:102070000093B400CEC030E8E316F1040CF47FC046
:1020800061E07EC061E0812F0E949D0580919903EF
:102090008093FF0380919A03809300042091FF03B3
:1020A0003091000480919B038093FF0380919C03F7
:1020B00080930004E090FF03F09000041E141F04BE
:1020C0000CF059C0032E000C440B550B60E472E475
:1020D0008FE090E00E946D1449015A01190161E0FE
:1020E000812F0E949D0528EE33E0D7010E94BB1589
:1020F0006E837F8388879987740197FE03C08FEF73
:10210000E81AF80AF594E794C701880F991F880F19
:10211000991F9C01255031093D832C83412C512C62
:1021200032014101330CAA08BB0861E0812F0E94F3
:102130006D0532E0E316F10420F08C819D8101975A
:10214000F1F760E0812F0E946D0582E0E816F1044E
:1021500020F08C819D810197F1F7480C591C6A1C75
:102160007B1C8E819F81A885B985481659066A0611
:102170007B06DCF24EC061E0812F0E949D0560E08D
:10218000812F0E946D0545C0612F110F770B1091B3
:102190009903EBECF3E080E090E041915191461718
:1021A000570779F0452B41F4FC01EE0FFF1FE55373
:1021B000FC4F7183608305C001968830910569F7F3
:1021C00001C09C01F901EE0FFF1F2E0F3F1FF90107
:1021D000EB5EFC4F808D918DA28D89839A83AB83BA
:1021E000153BB8F4898190E0FC01EE0FFF1F8E0FC4
:1021F0009F1FFC01E058FE4F808186FD04C0CE0188
:1022000001960E945202612F70E0CE0101960E9459
:10221000CF010E94900310928F0310928E030E94B0
:102220006D010C946F07CF93DF931092AD01109264
:10223000AC0188EE93E0A0E0B0E08093AE01909313
:10224000AF01A093B001B093B10184E191E090930C
:10225000AB018093AA0185EC90E09093B701809345
:10226000B60184EC90E09093B9018093B80180ECC2
:1022700090E09093BB018093BA0181EC90E0909341
:10228000BD018093BC0182EC90E09093BF018093EC
:10229000BE0186EC90E09093C1018093C001109242
:1022A000C3011092C4011092C5011092C60185E1CC
:1022B00093E00E94AE0288E193E00E94AE028BE1BF
:1022C00093E00E94AE028EE193E00E94AE0281E2B2
:1022D00093E00E94AE0284E293E00E94AE0287E2A5
:1022E00093E00E94AE028AE293E00E94AE02C0E058
:1022F000D0E0CE01835D9C4F0E94AE022396C83190
:10230000D105B9F71092450310928A0310928C03FD
:1023100010928D0310928F0310928E031092C603B9
:1023200080E090E0A4EBB2E48093C7039093C803ED
:10233000A093C903B093CA0380E1EBECF3E0DF01A3
:10234000982F1D929A95E9F71092DB031092DC0307
:102350001092DD031092DE031092DF031092E0036F
:102360001092E1031092E203E0E0F1E0A3EEB3E0AB
:1023700001900D928A95E1F78EE0809347021092CA
:102380004902DF91CF910895662777270C94C811F1
:10239000A0E0B0E0EEECF1E10C94A314EC017B01C1
:1023A0006115710519F0DB018D939C938E010F5F10
:1023B0001F4F7880872D90E00E942513892B11F004
:1023C000E801F4CFBDE27B1205C00F5F1F4F79809B
:1023D000C1E008C0EBE27E1204C08E010E5F1F4F09
:1023E0007980C0E06801F1E0CF1AD10843E050E005
:1023F00060E770E0C6010E942E13892BF1F468019A
:1024000022E0C20ED11C45E050E06BE670E0C60150
:102410000E942E13892B21F4680187E0C80ED11C7D
:10242000E114F10419F0D701CD92DC92C111FFC083
:1024300060E070E080E89FE703C143E050E068E6B9
:1024400070E0C6010E942E13892B51F4E114F104AF
:1024500009F4F2C00E5F1F4FF70111830083ECC037
:10246000680160E070E0CB0100E010E0F601D0ED23
:10247000D70DDA3058F52C2F2260622E2C2F2870C1
:10248000C2FF05C0211128C00F5F1F4F25C02223A6
:1024900011F001501109A5E0B0E09B01AC010E94D0
:1024A0008C144B015C01880C991CAA1CBB1CC50137
:1024B000B4016D0F711D811D911D6839A9E97A075D
:1024C0008A07A9E19A0740F0C66005C0DE3F51F4D3
:1024D000C3FD44C0C8606C2EBFEFCB1ADB0A70800E
:1024E000C62DC4CF2D2F2F7D2531C1F540814D3212
:1024F00011F4C06106C04B3221F0319621E030E08A
:1025000006C03296D60111964C9122E030E0A0ED43
:10251000A40FAA3018F0E21BF30B20C040E050E0FB
:102520004038BCE05B075CF49A01220F331F220F96
:10253000331F420F531F440F551F4A0F511D319631
:10254000DF0111972C91A0EDA20FAA3048F3C4FF30
:1025500003C0519541955109040F151FC1FF07C0D4
:10256000E114F10421F03197D701ED93FC930E941F
:102570004B13C370C33019F06B017C0106C06B01B3
:102580007C01F7FAF094F7F8F09420E030E0A9012C
:10259000C701B6010E944613882309F445C017FFFE
:1025A00006C0119501951109C7E8D0E002C0CFE936
:1025B000D0E05E01B8E1AB1AB1084601BE2DAF2DE7
:1025C00090E2E92EF12C0E151F0584F0FE012591F5
:1025D000359145915491B4018B2F9A2F0E94AC13E1
:1025E0004B01B82FA92F0E191F09EDCF2497F59491
:1025F000E794CA15DB0539F76401EB2EFA2E8E2D10
:10260000880F8F2D881F8F3F49F020E030E0A9010F
:10261000C701B6010E944613811106C082E290E014
:102620009093160480931504C701B60109C060E0B9
:1026300070E080E89FEF04C060E070E080EC9FE70E
:10264000CDB7DEB7EEE00C94BF1491110C941914C1
:10265000803219F089508550C8F70895FB01DC01DC
:102660004150504088F08D9181341CF08B350CF432
:10267000805E659161341CF06B350CF4605E861BE6
:10268000611171F3990B0895881BFCCF0E94881388
:1026900008F481E00895E89409C097FB3EF4909512
:1026A0008095709561957F4F8F4F9F4F9923A9F02B
:1026B000F92F96E9BB279395F695879577956795BA
:1026C000B795F111F8CFFAF4BB0F11F460FF1BC0FE
:1026D0006F5F7F4F8F4F9F4F16C0882311F096E991
:1026E00011C0772321F09EE8872F762F05C066233F
:1026F00071F096E8862F70E060E02AF09A95660FF8
:10270000771F881FDAF7880F9695879597F90895B0
:10271000990F0008550FAA0BE0E8FEEF16161706F2
:10272000E807F907C0F012161306E407F50798F05A
:10273000621B730B840B950B39F40A2661F0232B73
:10274000242B252B21F408950A2609F4A140A695EF
:102750008FEF811D811D08950E94BF130C943314C7
:102760000E94251438F00E942C1420F0952311F0BB
:102770000C941C140C94221411240C9467140E94C1
:10278000441470F3959FC1F3950F50E0551F629F5D
:10279000F001729FBB27F00DB11D639FAA27F00DBA
:1027A000B11DAA1F649F6627B00DA11D661F829FE1
:1027B0002227B00DA11D621F739FB00DA11D621FC6
:1027C000839FA00D611D221F749F3327A00D611DE3
:1027D000231F849F600D211D822F762F6A2F1124C5
:1027E0009F5750409AF0F1F088234AF0EE0FFF1FF8
:1027F000BB1F661F771F881F91505040A9F79E3F4F
:10280000510580F00C941C140C9467145F3FE4F3A2
:10281000983ED4F3869577956795B795F795E795A4
:102820009F5FC1F7FE2B880F911D9695879597F9AD
:10283000089599278827089597F99F6780E870E0A1
:1028400060E008959FEF80EC089500240A94161626
:10285000170618060906089500240A94121613068E
:10286000140605060895092E0394000C11F488231C
:1028700052F0BB0F40F4BF2B11F460FF04C06F5F38
:102880007F4F8F4F9F4F089557FD9058440F551F0E
:1028900059F05F3F71F04795880F97FB991F61F0E2
:1028A0009F3F79F087950895121613061406551F59
:1028B000F2CF4695F1DF08C0161617061806991FC5
:1028C000F1CF86957105610508940895E894BB27BA
:1028D00066277727CB0197F90895052E97FB1EF4FD
:1028E00000940E94841457FD07D00E94D61407FC60
:1028F00003D04EF40C948414509540953095219556
:102900003F4F4F4F5F4F089590958095709561951B
:102910007F4F8F4F9F4F08950E94F814A59F900DF1
:10292000B49F900DA49F800D911D11240895B7FFB1
:102930000C948C140E948C14821B930B08952F927C
:102940003F924F925F926F927F928F929F92AF923F
:10295000BF92CF92DF92EF92FF920F931F93CF938C
:10296000DF93CDB7DEB7CA1BDB0B0FB6F894DEBF23
:102970000FBECDBF09942A88398848885F846E8449
:102980007D848C849B84AA84B984C884DF80EE8093
:10299000FD800C811B81AA81B981CE0FD11D0FB69C
:1029A000F894DEBF0FBECDBFED010895A1E21A2E4F
:1029B000AA1BBB1BFD010DC0AA1FBB1FEE1FFF1FE3
:1029C000A217B307E407F50720F0A21BB30BE40B33
:1029D000F50B661F771F881F991F1A9469F760957A
:1029E0007095809590959B01AC01BD01CF01089534
:1029F000A29FB001B39FC001A39F700D811D112440
:102A0000911DB29F700D811D1124911D08950E948A
:102A10001B150C9433140E942C1458F00E9425149A
:102A200040F029F45F3F29F00C941C1451110C94D0
:102A300067140C9422140E94441468F39923B1F390
:102A4000552391F3951B550BBB27AA2762177307D4
:102A5000840738F09F5F5F4F220F331F441FAA1F68
:102A6000A9F335D00E2E3AF0E0E832D09150504024
:102A7000E695001CCAF72BD0FE2F29D0660F771FD2
:102A8000881FBB1F261737074807AB07B0E809F0B8
:102A9000BB0B802DBF01FF2793585F4F3AF09E3F3D
:102AA000510578F00C941C140C9467145F3FE4F308
:102AB000983ED4F3869577956795B795F7959F5F80
:102AC000C9F7880F911D9695879597F90895E1E0CC
:102AD000660F771F881FBB1F621773078407BA072B
:102AE00020F0621B730B840BBA0BEE1F88F7E09586
:102AF00008950E9480156894B1110C94671408958C
:102B00000E944C1488F09F5798F0B92F9927B7511D
:102B1000B0F0E1F0660F771F881F991F1AF0BA9581
:102B2000C9F714C0B13091F00E946614B1E0089565
:102B30000C946614672F782F8827B85F39F0B93F57
:102B4000CCF3869577956795B395D9F73EF4909534
:102B50008095709561957F4F8F4F9F4F0895991B7A
:102B600079E004C0991F961708F0961B881F7A9584
:102B7000C9F7809508950E94F814B7FF0895821B45
:102B8000930B0895EE0FFF1F0590F491E02D09942B
:102B900081E090E0F8940C94E615FC018191861791
:102BA00021F08823D9F7992708953197CF01089507
:102BB000FB01DC014150504030F08D9101908019B3
:102BC00019F40020B9F7881B990B0895F894FFCFEA
:102BD0000E000F0010001100120013001400150069
:102BE0000000000004018B04CD00AB00BF004B01CE
:102BF0007374616E645570006C6179446F776E0018
:102C0000736C656570007374616E64310073746118
:102C10006E6432007374616E643300737461727435
:102C20000068656C6C6F0065786572636973650038
:102C3000666F7277617264006261636B7761726460
:102C4000007269676874006C656674000D0A0000A4
:00000001FF
