:100000000C947E000C94A6000C94A6000C94A60000
:100010000C94A6000C94A6000C94A6000C94F60672
:100020000C94A6000C94A6000C94A6000C94EE0B65
:100030000C94A6000C94A6000C94A6000C94A600A8
:100040000C94DA0D0C94A6000C949E070C9478077F
:100050000C94A6000C94A6000C94A6000C94A60088
:100060000C94A6000C94A600BE16E816161750179E
:1000700069178217AB17DF1717184F188418B018B5
:10008000DB180D1946195F19B419CD1900000000CD
:10009000240027002A0000000000250028002B0073
:1000A0000000000800020100000304070000000037
:1000B000000000001112131415160A0B0C0D0E0F80
:1000C00000010203040500000000230026002900AF
:1000D00004040404040404040202020202020303EE
:1000E00003030303010204081020408001020408F6
:1000F00010200102040810200200EF1911241FBE75
:10010000CFEFD8E0DEBFCDBF11E0A0E0B1E0EEEC74
:10011000FBE302C005900D92A83DB107D9F724E09A
:10012000A8EDB1E001C01D92AE31B207E1F710E0D9
:10013000CEE7D0E004C02197FE010E94081DCD3714
:10014000D107C9F70E94690E0C94E51D0C940000BC
:10015000833081F028F4813099F08230A1F0089545
:100160008730A9F08830B9F08430D1F480918000D4
:100170008F7D03C0809180008F77809380000895E9
:1001800084B58F7702C084B58F7D84BD089580913A
:10019000B0008F7703C08091B0008F7D8093B00056
:1001A00008953FB7F8948091E9019091EA01A091F8
:1001B000EB01B091EC0126B5A89B05C02F3F19F0CB
:1001C0000196A11DB11D3FBFBA2FA92F982F8827D7
:1001D000820F911DA11DB11DBC01CD0142E0660F32
:1001E000771F881F991F4A95D1F70895EF92FF92C4
:1001F0000F931F93CF93DF9300D0CDB7DEB7082FB7
:10020000162F8AE892E049837A830E94D00C802FCF
:100210008F7180620E94D30C082FE12E7A81F72E15
:100220004981140F1E1531F0F70181917F010E9461
:10023000D30CF8CF61E08AE892E00E94AF0C802FE7
:100240000F900F90DF91CF911F910F91FF90EF9042
:1002500008956AE570E088EB92E00E94F30A6AE58F
:1002600070E08EEB92E00E94F30A6AE570E084ECA5
:1002700092E00E94F30A6AE570E08AEC92E00E9444
:10028000F30A66E470E08BEB92E00E94F30A6EE6FC
:1002900070E081EC92E00E94F30A6EE670E087EC79
:1002A00092E00E94F30A66E470E08DEC92E00C9418
:1002B000F30A009769F0FC0101900020E9F73197FB
:1002C000AF01481B590BBC018DEE91E00C94EA057F
:1002D00080E090E008958F929F92AF92BF920F932B
:1002E0001F93CF93DF93CDB7DEB7A1970FB6F894E6
:1002F000DEBF0FBECDBF19A2423008F44AE08E0126
:100300000F5D1F4F842E912CA12CB12CA5019401BF
:100310000E94CB1CE62FB901CA0101501109EA3035
:1003200014F4E05D01C0E95CD801EC93232B242B8D
:10033000252B61F7C8010E945901A1960FB6F894C8
:10034000DEBF0FBECDBFDF91CF911F910F91BF9048
:10035000AF909F908F900895CF93DF930E945901A3
:10036000EC018FE891E00E9459018C0F9D1FDF91F5
:10037000CF910895CF938AE892E00E94D00C81EE4D
:100380000E94D30CC82F61E08AE892E00E94AF0C73
:100390008C2FCF9108950F931F93CF93DF93CDB7F9
:1003A000DEB728970FB6F894DEBF0FBECDBF298306
:1003B0003A834B835C836D837E838F839887EBEBDB
:1003C000F0E084910AE812E0F8014685BE016F5F13
:1003D0007F4F0E94F600E5EBF0E06491F801478161
:1003E000C8010E94230D62E0C8010E94480DE1ECA3
:1003F000F0E0E49141E050E001C0440FEA95EAF7F3
:10040000482B62E0C8010E94230D28960FB6F8948D
:10041000DEBF0FBECDBFDF91CF911F910F91089529
:100420000F931F93CF938C0166E08AE892E00E94BD
:10043000480DC82FC77D0230110531F4C0628BE929
:1004400090E0A0E0B0E00DC00130110529F085E595
:1004500090E0A0E0B0E005C0C86081E490E0A0E0DA
:10046000B0E080939A0290939B02A0939C02B09379
:100470009D024C2F66E08AE892E00E94230D66E020
:100480008AE892E00E94480D91E08C1390E0892F59
:10049000CF911F910F910895CF93DF93E2EBF0E09E
:1004A0008491E6EFF0E0D491E2EEF0E0C491CC2349
:1004B00091F081110E94A800EC2FF0E0EE0FFF1FD9
:1004C000EA53FF4FA591B491EC91ED2381E090E0C8
:1004D00021F480E002C080E090E0DF91CF910895A8
:1004E0001F93CF93DF93282F30E0F901E056FF4FA1
:1004F0008491F901EC51FF4FD491F901E053FF4F82
:10050000C491CC23C9F0162F81110E94A800EC2FB2
:10051000F0E0EE0FFF1FEA56FF4FA591B4918FB7A1
:10052000F894111105C09C91ED2FE095E92302C0CC
:10053000EC91ED2BEC938FBFDF91CF911F9108953C
:100540000F931F9360E08091A4020E94700283E0E9
:1005500090E00197F1F761E08091A4020E9470029F
:1005600083E290E00197F1F760E08091A4020E949D
:1005700070028091A6029091A7029927FC01EC518C
:10058000FF4F6491FC01E053FF4FE491F0E0EE0F68
:10059000FF1FEA53FF4F859194910091A80210919B
:1005A000A9022091AA023091AB023F70462F0E940F
:1005B000240E611571058105910549F0DC01CB011F
:1005C0000196A11DB11DBC01CD019F7003C060E06B
:1005D00070E0CB010E94641B6093AC027093AD028B
:1005E0008093AE029093AF0220E030E0A9010E9418
:1005F0005F1B811112C06091A8027091A9028091C5
:10060000AA029091AB020E94661B6093AC027093A9
:10061000AD028093AE029093AF026091AC027091F4
:10062000AD028091AE029091AF020E94A51D1F9174
:100630000F910895CF93DF9390E0FC01EC51FF4FB1
:100640002491FC01E053FF4F8491882361F190E0F5
:10065000880F991FFC01E457FF4FC591D491FC010D
:10066000EA56FF4FA591B491611109C09FB7F89464
:100670008881209582238883EC912E230BC06230E1
:1006800061F49FB7F8943881822F80958323888303
:10069000EC912E2B2C939FBF06C08FB7F894E88166
:1006A0002E2B28838FBFDF91CF9108958E3008F0D5
:1006B0008E508770806480937C0080917A00806483
:1006C00080937A0080917A0086FDFCCF809178003B
:1006D0002091790090E0922B08958F929F92AF9293
:1006E000BF92CF92DF92EF92FF926B017C010E944A
:1006F000D1004B015C01C114D104E104F104F1F01B
:100700000E94D100DC01CB0188199909AA09BB0913
:10071000883E9340A105B10570F321E0C21AD108CB
:10072000E108F10888EE880E83E0981EA11CB11C38
:10073000C114D104E104F10419F7DDCFFF90EF906B
:10074000DF90CF90BF90AF909F908F90089568E218
:1007500070E08BEB92E00E94F30A66E470E080E0C8
:1007600090E00E946D0368E270E088EB92E00E94E6
:10077000F30A66E470E080E090E00E946D036AE5B1
:1007800070E08BEB92E00E94F30A6CE370E08EEB7A
:1007900092E00E94F30A68E270E08DEC92E00E9421
:1007A000F30A66E470E080E090E00E946D036CE87C
:1007B00070E08AEC92E00E94F30A66E470E080E068
:1007C00090E00E946D036AE570E08DEC92E00E947B
:1007D000F30A6CE370E08AEC92E00E94F30A6CE8A2
:1007E00070E081EC92E00E94F30A66E470E080E041
:1007F00090E00E946D036CE870E08EEB92E00E9446
:10080000F30A66E470E080E090E00E946D036AE520
:1008100070E081EC92E00E94F30A68E770E088EBF8
:1008200092E00E94F30A6CE870E087EC92E00E948C
:10083000F30A66E470E080E090E00E946D0368E2F5
:1008400070E084EC92E00E94F30A66E470E080E0DD
:1008500090E00E946D036AE570E087EC92E00E94F0
:10086000F30A68E770E084EC92E00C94F30A68E223
:1008700070E08BEB92E00E94F30A68E270E08DEC8E
:1008800092E00E94F30A66E470E080E090E00E944B
:100890006D036CE370E088EB92E00E94F30A6CE376
:1008A00070E08AEC92E00E94F30A68E770E08EEB59
:1008B00092E00E94F30A68E770E084EC92E00E9404
:1008C000F30A66E470E080E090E00E946D036AE560
:1008D00070E08BEB92E00E94F30A6AE570E08DEC29
:1008E00092E00E94F30A66E470E080E090E00E94EB
:1008F0006D036CE870E081EC92E00E94F30A6CE812
:1009000070E087EC92E00E94F30A66E470E080E019
:1009100090E00E946D0368E770E088EB92E00E942F
:10092000F30A68E770E08AEC92E00E94F30A6CE355
:1009300070E08EEB92E00E94F30A6CE370E084ECCE
:1009400092E00E94F30A66E470E080E090E00E948A
:100950006D036AE570E081EC92E00E94F30A6AE5BB
:1009600070E087EC92E00E94F30A66E470E080E0B9
:1009700090E00C946D036CE870E081EC92E00E94D2
:10098000F30A6CE870E087EC92E00E94F30A66E4F8
:1009900070E080E090E00E946D0368E770E08EEB0D
:1009A00092E00E94F30A68E770E084EC92E00E9413
:1009B000F30A6CE370E088EB92E00E94F30A6CE3C8
:1009C00070E08AEC92E00E94F30A66E470E080E056
:1009D00090E00E946D036AE570E081EC92E00E9475
:1009E000F30A6AE570E087EC92E00E94F30A66E49D
:1009F00070E080E090E00E946D0368E270E08BEBB5
:100A000092E00E94F30A68E270E08DEC92E00E94AE
:100A1000F30A66E470E080E090E00E946D036CE30E
:100A200070E08EEB92E00E94F30A6CE370E084ECDD
:100A300092E00E94F30A68E770E088EB92E00E947F
:100A4000F30A68E770E08AEC92E00E94F30A66E439
:100A500070E080E090E00E946D036AE570E08BEB4F
:100A600092E00E94F30A6AE570E08DEC92E00E9449
:100A7000F30A66E470E080E090E00C946D0360E0BF
:100A80008AE892E00E94480D81FD0DC0482F426027
:100A900060E08AE892E00E94230D65E070E080E06B
:100AA00090E00C946D0308950E943F0560E08AE891
:100AB00092E00E94480D482F416060E08AE892E091
:100AC0000E94230D40E767E08AE892E00E94230D30
:100AD00080918A0290918B0220918C0230918D023C
:100AE0008217930719F061E00E94700280919302CF
:100AF000882341F04091980263E972E08AE00E9405
:100B0000F60016C062E08AE892E00E94480DE0EC30
:100B1000F0E0E49121E030E001C0220FEA95EAF72D
:100B20002095422F482362E08AE892E00E94230D3C
:100B30006DE18AE892E00E94480D81FD0C94BA01B3
:100B400008950F93CF93DF9380E090E00E94831C81
:100B5000282F8093F802E8EEF2E031814281538140
:100B60006481758186819781C0EFD2E028833983C3
:100B70004A835B836C837D838E839F830E94CB013A
:100B80000E94540587EB91E00E9459012881398128
:100B90004A815B816C817D818E819F8100E20E9410
:100BA000171DE42F40E1B9018E2F952F0E946B0194
:100BB000688179818A819B8140E10E946B018FE885
:100BC00091E00E94590181EC91E0DF91CF910F916A
:100BD0000C94AC01CF92DF92EF92FF920F931F9390
:100BE000CF93DF936C017A018B01C0E0D0E0CE158A
:100BF000DF0589F0D8016D918D01D601ED91FC9151
:100C00000190F081E02DC6010995892B11F47E0138
:100C100002C02196ECCFC701DF91CF911F910F91B8
:100C2000FF90EF90DF90CF900895089580E090E0DE
:100C30000895FC01538D448D252F30E0842F90E0E2
:100C4000821B930B541710F0CF96089501970895C7
:100C5000FC01918D828D981761F0828DDF01A80FC4
:100C6000B11D5D968C91928D9F5F9F73928F90E0E6
:100C700008958FEF9FEF0895FC01918D828D981755
:100C800031F0828DE80FF11D858D90E008958FEF92
:100C90009FEF0895FC01918D228D892F90E0805C5B
:100CA0009F4F821B91098F73992708958DEE91E0D4
:100CB0000E944A0621E0892B09F420E0822F089542
:100CC000FC01848DDF01A80FB11DA35ABF4F2C91E9
:100CD000848D90E001968F739927848FA689B789B8
:100CE0002C93A089B1898C9180648C93938D848D91
:100CF000981306C00288F389E02D80818F7D808360
:100D00000895EF92FF920F931F93CF93DF93EC011F
:100D100081E0888F9B8D8C8D981305C0E889F989B7
:100D2000808185FD24C0F62E0B8D10E00F5F1F4FD4
:100D30000F731127E02E8C8DE8120CC00FB607FC44
:100D4000FACFE889F989808185FFF5CFCE010E942D
:100D50006006F1CF8B8DFE01E80FF11DE35AFF4FC6
:100D6000F0820B8FEA89FB898081806207C0EE895F
:100D7000FF896083E889F98980818064808381E0CC
:100D800090E0DF91CF911F910F91FF90EF90089528
:100D9000CF93DF93EC01888D8823C9F0EA89FB8922
:100DA000808185FD05C0A889B9898C9186FD0FC019
:100DB0000FB607FCF5CF808185FFF2CFA889B989EE
:100DC0008C9185FFEDCFCE010E946006E7CFDF91C9
:100DD000CF91089580E090E0892B29F00E9456067B
:100DE00081110C94000008950E94E01D1F920F9243
:100DF0000FB60F9211242F933F934F935F936F93EE
:100E00007F938F939F93AF93BF93EF93FF938091C3
:100E1000150490911604A0911704B0911804892B21
:100E20008A2B8B2B59F180911404E0911204F091DC
:100E30001304908189278083809115049091160472
:100E4000A0911704B0911804181619061A061B066B
:100E50000CF03DC08091150490911604A0911704E8
:100E6000B09118040197A109B109809315049093DA
:100E70001604A0931704B093180429C080910001B0
:100E8000E8EFF0E0E4919FEF90930001E130B9F0DA
:100E900098F0E230C9F4909170009D7F90937000BB
:100EA00091E09093B0009091B100987F94609093FE
:100EB000B1001092B30008C010926E0005C090916E
:100EC0006F009D7F90936F0060E00E947002FF9121
:100ED000EF91BF91AF919F918F917F916F915F91B2
:100EE0004F913F912F910F900FBE0F901F9018952B
:100EF0001F920F920FB60F9211242F933F934F938F
:100F00005F936F937F938F939F93AF93BF93EF9371
:100F1000FF938DEE91E00E946006FF91EF91BF91EB
:100F2000AF919F918F917F916F915F914F913F9181
:100F30002F910F900FBE0F901F9018951F920F9238
:100F40000FB60F9211242F938F939F93EF93FF93DC
:100F5000E091FD01F091FE018081E0910302F091AA
:100F6000040282FD12C09081809106028F5F8F7310
:100F700020910702821751F0E0910602F0E0E35160
:100F8000FE4F958F8093060201C08081FF91EF9103
:100F90009F918F912F910F900FBE0F901F901895DA
:100FA0003F924F925F926F927F928F929F92AF92F9
:100FB000BF92CF92DF92EF92FF920F931F93CF9346
:100FC000DF93CDB7DEB728970FB6F894DEBF0FBE1C
:100FD000CDBF280139018701EF2811F401E010E0AD
:100FE000FC01E080F180809100018E1521F08F3F9F
:100FF00009F0E0C104C0E8EFF0E0349081C0E09275
:101000000001E8EFF0E0E491EF3F09F4D3C1E130F3
:1010100031F1E23009F44BC0E11171C014BC15BCD0
:1010200084B5826084BD85B5816085BDC70199277F
:10103000FC01E053FF4FE491F0E0EE0FFF1FEA5692
:10104000FF4F259134913093090420930804FC014B
:10105000EC51FF4FE491E0930704312C53C0109200
:1010600080001092810080918100886080938100CF
:1010700080918100816080938100C7019927FC01E4
:10108000E053FF4FE491F0E0EE0FFF1FEA56FF4FF1
:10109000259134913093060420930504FC01EC5112
:1010A000FF4FE491E0930404332433942BC0109257
:1010B000B0001092B1008091B00082608093B000C7
:1010C0008091B10081608093B100C7019927FC0134
:1010D000E053FF4FE491F0E0EE0FFF1FEA56FF4FA1
:1010E000259134913093130420931204FC01EC51A8
:1010F000FF4FE491E0931404B2E03B2E03C03E2E78
:1011000037FC58C1CB01BA010E94AC1D6D837E83B0
:101110008F83988761E08E2D0E941A038D819E81B6
:101120004C01A12CB12C832D8D7F09F0BBC060E058
:1011300072E18AE790E0A50194010E94991C29833D
:101140003A834B835C8369017A0191E0C91AD10823
:10115000E108F108EFEFCE16D104E104F10409F043
:1011600008F44CC060E472E48FE090E0A5019401C3
:101170000E94991C69017A01F1E0CF1AD108E108B7
:10118000F10822E0321220C08FEFC816D104E1042A
:10119000F10409F008F48BC160E970ED83E090E0A0
:1011A000A50194010E94991C69017A0191E0C91A74
:1011B000D108E108F108EFEFCE16D104E104F10403
:1011C00009F0D0F583E067C0FFEFCF16D104E1044A
:1011D000F104B1F0A8F068E478EE81E090E0A501B8
:1011E00094010E94991C69017A0181E0C81AD10812
:1011F000E108F108332009F438C12EC181E001C0B3
:1012000082E03320A1F047C089819A81AB81BC8103
:101210002AE0B595A795979587952A95D1F76C0102
:101220007D01E1E0CE1AD108E108F10885E095B52D
:10123000987F892B85BD6FC068E478EE81E090E0EF
:10124000A50194010E94991C69017A01E1E0CE1A7E
:10125000D108E108F108FFEFCF16D104E104F10451
:1012600009F008F4C8C064E274EF80E090E0A501E2
:1012700094010E94991C69017A0191E0C91AD10870
:10128000E108F108EFEFCE16D104E104F10411F00A
:1012900008F0B3C085E09091B100987F892B8093CE
:1012A000B10039C060E072E18AE790E0A5019401E5
:1012B0000E94991C69017A0181E0C81AD108E108ED
:1012C000F108C114D10491E0E906F10488F068E462
:1012D00078EE81E090E0A50194010E94991C6901DB
:1012E0007A01E1E0CE1AD108E108F10893E001C0EB
:1012F00091E0F1E03F120FC080918100887F892B3F
:1013000080938100411451046104710449F42FEF6A
:101310003FEFA9012EC0411451046104710479F01A
:10132000AD81BE81AA0FBB1FA30192010E94B81C10
:1013300028EE33E040E050E00E94CB1C03C02FEFCA
:101340003FEFA90181E03816A1F092E0391619F1BA
:10135000311030C0C7BC20930E0430930F0440936B
:1013600010045093110480916E00826080936E008F
:1013700021C0D0928900C092880020930A04309343
:101380000B0440930C0450930D0480916F00826015
:1013900080936F000FC0C092B30020931504309368
:1013A00016044093170450931804809170008260D3
:1013B00080937000C301B2010E946D03B801110F48
:1013C000880B990B28960FB6F894DEBF0FBECDBFE1
:1013D000DF91CF911F910F91FF90EF90DF90CF9011
:1013E000BF90AF909F908F907F906F905F904F9045
:1013F0003F900C946D0384E04ECF62E17AE780E089
:1014000090E0A50194010E94991C69017A0181E094
:10141000C81AD108E108F1089FEFC916D104E10408
:10142000F104C1F0B8F089819A81AB81BC814AE0B6
:10143000B595A795979587954A95D1F76C017D014C
:10144000F1E0CF1AD108E108F108332009F4EECE1B
:1014500087E021CF86E0D5CEEFEFCE16D104E104B0
:10146000F10409F050F684E0CCCE8FEFC816D10419
:10147000E104F104D1F0C8F062E17AE780E090E0A5
:10148000A50194010E94991C69017A01F1E0CF1A2B
:10149000D108E108F1082FEFC216D104E104F104EC
:1014A00011F008F0B1CE84E0C2CE83E0C0CE82E07D
:1014B000F2CE2F923F924F925F926F927F928F92D5
:1014C0009F92AF92BF92CF92DF92EF92FF920F93D3
:1014D0001F93CF93DF93CDB7DEB728970FB6F8945D
:1014E000DEBF0FBECDBF1C012A013B0109831A8359
:1014F0002B833C83CD82DE82EF82F886CD8CDE8C1E
:10150000C114D10419F4CC24C394D12C29813A817B
:101510004B815C81C301B2010E945F1B87FF25C024
:10152000C301B2010E94A51D072E000C880B990B68
:101530000E94661B2B013C0129813A814B815C8111
:101540000E945F1B87FF36C0760195018401B301BD
:10155000A201C1010E94D0072D813E814F81588593
:10156000C301B2010E94C51BDDCFC301B2010E94BD
:10157000A51D072E000C880B990B0E94661B2B01E2
:101580003C0129813A814B815C810E94DB1D181648
:101590008CF4760195018401B301A201C1010E947E
:1015A000D0072D813E814F815885C301B2010E9431
:1015B000331DDDCF28960FB6F894DEBF0FBECDBF2A
:1015C000DF91CF911F910F91FF90EF90DF90CF901F
:1015D000BF90AF909F908F907F906F905F904F9053
:1015E0003F902F900895CF92DF92EF92FF92CF938A
:1015F000DF93EC01603282E078070CF03DC077FDAC
:1016000006C0653B71052CF064EB70E002C060E041
:1016100070E0898128E830E06901C81AD10887FDA7
:10162000D394CC0CDD1CCC0CDD1C0D2C000CEE0876
:10163000FF088A8128E532E0281B310987FD3395B0
:10164000220F331F220F331FC901330FAA0BBB0B0D
:101650009C01AD012C193D094E095F09DB010E9477
:10166000C31C24EB30E040E050E00E94991CC20E05
:10167000D31EE41EF51EB60188818C3080F5998159
:1016800048E850E0491B510997FD5395440F551FF9
:10169000440F551F6417750784F09A8128E532E0DE
:1016A000291B310997FD3395220F331F220F331F5A
:1016B000AB01261737070CF4A90142505109440F1A
:1016C000551F2FB7F89490E0FC01EE0FFF1F8E0F0F
:1016D0009F1FFC01E052FC4F528341832FBFDF91DB
:1016E000CF91FF90EF90DF90CF9008951F93CF930D
:1016F000DF93EC01162F88818C3008F04EC061E03A
:10170000812F0E941A038881E82FF0E09F01220FA9
:10171000331FE20FF31FE052FC4F1F739081907C48
:10172000192B108319821A826CE00E94FC1C9CE029
:10173000899FB001112440E050E09A01260F371F25
:10174000F901EE0FFF1F2E0F3F1FF901E052FC4F72
:10175000908196FD16C04F5F5F4F4C30510569F781
:1017600081110FC01092800082E08093810010925E
:10177000850010928400B19A80916F0082608093FE
:101780006F00E881F0E0CF01880F991FE80FF91F83
:10179000E052FC4F8081806480838881DF91CF910B
:1017A0001F910895FC019091DF039C30A0F481E02B
:1017B000890F8093DF039083892F90E0FC01EE0F67
:1017C000FF1F8E0F9F1FFC01E052FC4F88EB9BE038
:1017D0009283818308958FEF808308951F920F92E3
:1017E0000FB60F9211242F933F934F935F936F93F4
:1017F0007F938F939F93AF93BF93EF93FF938091CA
:10180000DE0387FF05C010928500109284001BC084
:101810002091DE03022E000C330B8091DF0390E059
:101820002817390784F48091DE03082E000C990BE9
:10183000FC01EE0FFF1F8E0F9F1FFC01E052FC4FBB
:10184000808186FD15C08091DE038F5F8093DE036B
:101850002091DE03022E000C330B8091DF0390E019
:1018600028173907C4F48091DE038C3064F113C06B
:101870008091DE03082E000C990BFC01EE0FFF1F78
:101880008E0F9F1FFC01E052FC4F808160E08F7340
:101890000E947002D8CF80918400909185000496B8
:1018A00080349C4918F480E49CE905C08091840050
:1018B00090918500049690938900809388008FEF23
:1018C0008093DE033BC0209184003091850080919D
:1018D000DE03082E000C990BFC01EE0FFF1F8E0F8C
:1018E0009F1FFC01E052FC4F81819281820F931F68
:1018F00090938900809388008091DE03082E000C6D
:10190000990BFC01EE0FFF1F8E0F9F1FFC01E05291
:10191000FC4F808186FF12C08091DE03082E000CF0
:10192000990BFC01EE0FFF1F8E0F9F1FFC01E05271
:10193000FC4F808161E08F730E947002FF91EF91F4
:10194000BF91AF919F918F917F916F915F914F91D7
:101950003F912F910F900FBE0F901F901895CF932E
:10196000DF93EC019CB59F7D9CBD9CB5937F9CBD96
:101970009CB59C7F9CBD9DB591609DBD8A810E9458
:1019800070028C899D898230910538F0880F991FEB
:10199000880F991F05970197F1F7DF91CF9108956F
:1019A00060E00C94AF0C8EBD00000DB407FEFDCFBF
:1019B0008EB50895BF92CF92DF92EF92FF920F9370
:1019C0001F93CF93DF9300D0CDB7DEB77C01FC012E
:1019D000C780B42EC41608F4BC2CF7018085811191
:1019E00002C0CB1801C0C12CC70169837A830E9451
:1019F000D00C81E60E94D30CD82E6981062F7A8103
:101A0000172FB60EB01639F08FEF0E94D30CF801E5
:101A100081938F01F7CFCC2029F08FEF0E94D30C58
:101A2000CA94F9CF61E0C7010E94AF0C8D2D0F90D1
:101A30000F90DF91CF911F910F91FF90EF90DF906A
:101A4000CF90BF900895EF92FF921F93CF93DF93B3
:101A500000D0CDB7DEB77C014A8369830E94D00CE9
:101A60006981862F8F7180620E94D30C182F4A8162
:101A7000842F0E94D30C61E0C7010E94AF0C812F1C
:101A80000F900F90DF91CF911F91FF90EF900895ED
:101A9000EF92FF921F93CF93DF931F92CDB7DEB7E4
:101AA0007C0169830E94D00C6981862F8F710E940E
:101AB000D30C8FEF0E94D30C182F61E0C7010E9456
:101AC000AF0C812F0F90DF91CF911F91FF90EF907E
:101AD000089567E18AE892E00E94480D80FD5DC0AC
:101AE00067E18AE892E00E94480D80FD56C042E11D
:101AF0006CEC73E08AE892E00E94DA0C40E767E061
:101B00008AE892E00E94230D8091CC039091CD034E
:101B10009093E7018093E6018091CE039091CF03EB
:101B20009093E5018093E4018091D0039091D103DB
:101B30009093E1018093E0018091D2039091D303CF
:101B40009093E3018093E2018091D4039091D503B7
:101B50009093D9018093D8018091D6039091D703B7
:101B60009093DB018093DA018091D8039091D9039F
:101B70009093DF018093DE018091DA039091DB0383
:101B80009093DD018093DC018091DC039091DD0373
:101B90009093CB038093CA03A3CF08952FB7F894F3
:101BA00060911A0470911B0480911C0490911D0493
:101BB0002FBF08951F920F920FB60F9211242F93EB
:101BC0003F938F939F93AF93BF9380911A0490910B
:101BD0001B04A0911C04B0911D043091190423E052
:101BE000230F2D3720F40196A11DB11D05C026E855
:101BF000230F0296A11DB11D2093190480931A048E
:101C000090931B04A0931C04B0931D048091E901E0
:101C10009091EA01A091EB01B091EC010196A11D18
:101C2000B11D8093E9019093EA01A093EB01B09379
:101C3000EC01BF91AF919F918F913F912F910F90A8
:101C40000FBE0F901F901895CF92DF92EF92FF92E8
:101C50000F931F93E82FF92F05C001501109210997
:101C6000310961F1908196239417B9F305C00150B1
:101C700011092109310911F1908196239413F7CFAD
:101C8000C12CD12CE12CF12C0AC08FEFC81AD80A34
:101C9000E80AF80A0C151D052E053F0579F080812C
:101CA0008623841791F36C2D7D2D8E2D9F2D1F91F2
:101CB0000F91FF90EF90DF90CF90089560E070E07B
:101CC00080E090E01F910F91FF90EF90DF90CF9018
:101CD0000895789484B5826084BD84B5816084BDA4
:101CE00085B5826085BD85B5816085BD80916E00BA
:101CF000816080936E0010928100809181008260EB
:101D00008093810080918100816080938100809127
:101D100080008160809380008091B1008460809316
:101D2000B1008091B00081608093B00080917A0012
:101D3000846080937A0080917A00826080937A0038
:101D400080917A00816080937A0080917A00806827
:101D500080937A001092C100E091FD01F091FE01A4
:101D600082E08083E091F901F091FA011082E09124
:101D7000FB01F091FC018FEC808310920502E09151
:101D80000102F091020286E08083E091FF01F09170
:101D90000002808180618083E091FF01F091000268
:101DA000808188608083E091FF01F0910002808152
:101DB00080688083E091FF01F091000280818F7D37
:101DC000808362E082E10E941A0361E082E00E9467
:101DD0001A0361E08EE00E941A0360E08FE00E9427
:101DE0001A0363E070E088EB92E00E94760B64E0F7
:101DF00070E08BEB92E00E94760B65E070E08EEB7A
:101E000092E00E94760B66E070E081EC92E00E9426
:101E1000760B67E070E084EC92E00E94760B68E05D
:101E200070E087EC92E00E94760B69E070E08AEC4B
:101E300092E00E94760B6AE070E08DEC92E00E94E6
:101E4000760B84E10E945603909309038093080364
:101E500085E10E945603EC01A0910803B0910903AB
:101E600024E630E00E940E1D20E2C22E23E0D22E96
:101E7000E12CF12CA70196010E94991C29013A013D
:101E8000309309032093080324E630E0DE010E942A
:101E90000E1DA70196010E94991C30930B032093FD
:101EA0000A03420E531E57FE03C02FEF421A520A76
:101EB0005594479450920D0340920C0380918A02EE
:101EC00090918B0220918C0230918D0282179307A2
:101ED00019F061E00E941A0380918C0290918D02AA
:101EE00020918A0230918B022817390719F061E09E
:101EF0000E941A03CFB7F8948091E801811127C09E
:101F0000EAEDF0E08491EEEEF0E09491E82FF0E05D
:101F1000EE0FFF1FE457FF4FA591B491EC91E92319
:101F200021F461E08AE00E94700261E08AE00E9490
:101F30001A038CB580618CBD8CB580648CBD61E06A
:101F40008DE00E941A0361E08BE00E941A038091E9
:101F5000E8018F5F8093E801CFBF80918A02909162
:101F60008B0220918C0230918D028217930719F019
:101F700060E00E94700261E08AE892E00E94AF0C8B
:101F800065E070E080E090E00E946D034CE060E06E
:101F90008AE892E00E94230D4FE564E08AE892E02F
:101FA0000E94230D82E090E00E941002882319F025
:101FB00081E08093900266E08AE892E00E94480DFA
:101FC00080E090E00E9410028AE892E00E94D00C2B
:101FD00080E50E94D30C83E70E94D30C61E08AE87D
:101FE00092E00E94AF0C40E06DE18AE892E00E942E
:101FF000230D40E06CE18AE892E00E94230D1092EC
:10200000920240E767E08AE892E00E94230D4CE4E8
:1020100065E08AE892E00E94230D8AE892E00E943F
:10202000D00C82EE0E94D30C61E08AE892E00E941C
:10203000AF0C0E94BA010E943F0560E08AE892E07E
:102040000E94480D482F4E7F60E08AE892E00E948F
:10205000230D4CE665E08AE892E00E94230D80E0C3
:1020600090E00E94100266E08AE892E00E94480D2B
:10207000887F482F456066E08AE892E00E94230D41
:102080000E94A10583E10E945603BC01990F880BB1
:10209000990B611571058105910511F00E94561B80
:1020A000FEE1EF2EF12C02E310E020E030E044EA04
:1020B00050ED64E274E482EA92E00E94D007A9E164
:1020C000EA2EF12C07E310E020E030E042E550ED8D
:1020D00064EA74E482EA92E00E94D007BAE0EB2E50
:1020E000F12C0CE310E020E030E040E050E06CED3B
:1020F00074E482EA92E00E94D00768EE73E080E028
:1021000090E00E946D03C4EB2C2E312CD0E24D2EBA
:10211000D3E05D2E612C712C0E944C02892B09F0BA
:10212000F6C087E291E00E94AC0183E391E00E9457
:10213000AC010E94CE0D6093000370930103809365
:102140000203909303030E944C02892BE1F30E9447
:10215000CE0D0091000310910103209102033091F4
:102160000303DC01CB01801B910BA20BB30B80930B
:10217000FC029093FD02A093FE02B093FF02893807
:102180009341A105B1050CF482C02091E802309181
:10219000E9024091EA025091EB026091EC027091E9
:1021A000ED028091EE029091EF020E94CB010E941D
:1021B00054058EE391E00E94AC010E94CE0D6B01AC
:1021C0007C010E94CE0DDC01CB018C199D09AE096A
:1021D000BF0900910403109105032091060330917B
:1021E000070380179107A207B30708F04DC067E106
:1021F0008AE892E00E94480D80FDE3CF42E06AEF5A
:1022000072E08AE892E00E94DA0C40E767E08AE830
:1022100092E00E94230D6091FA026093F90280E03F
:1022200090E00E948B1C85EA91E00E94AC018EE157
:10223000E82EF12C02E310E020E030E044EA50ED1B
:1022400064E274E482EA92E00E94D00799E1E92E08
:10225000F12C07E310E020E030E042E550ED64EAC5
:1022600074E482EA92E00E94D0072AE0E22EF12C88
:102270000CE310E020E030E040E050E06CED74E46E
:1022800082EA92E00E94D0070E94A10540C08EE53C
:1022900091E00E94AC011F9284E08F9350E1852E63
:1022A000912CA12CB12C6AE0C62E67EDD62E63E8E6
:1022B000E62E6FE3F62E00E010E021E634E440E085
:1022C00050E06FE274E482EA92E00E94590A1F92A1
:1022D00087E08F9372E1872E912CA12CB12CEEEA2E
:1022E000CE2EE7E4DE2EE1E8EE2EEFE3FE2E00E058
:1022F00010E822E234E440E050EC60E674E482EA64
:1023000092E00E94590A0F900F900F900F900E9438
:10231000690D8091E6019091E701019719F40E94FF
:10232000A70397C08091E4019091E501019709F01E
:1023300099C068E270E08DEC92E00E94F30A66E4D6
:1023400070E080E090E00E946D0368E270E08AEC4B
:1023500092E00E94F30A66E470E080E090E00E9460
:102360006D036AE570E08DEC92E00E94F30A68E785
:1023700070E08EEB92E00E94F30A68E270E08BEB73
:1023800092E00E94F30A66E470E080E090E00E9430
:102390006D036CE870E088EB92E00E94F30A66E45B
:1023A00070E080E090E00E946D036AE570E08BEBE6
:1023B00092E00E94F30A68E770E08AEC92E00E94E3
:1023C000F30A6CE870E087EC92E00E94F30A66E49E
:1023D00070E080E090E00E946D036CE870E084ECB7
:1023E00092E00E94F30A66E470E080E090E00E94D0
:1023F0006D036AE570E087EC92E00E94F30A6CE3FB
:1024000070E088EB92E00E94F30A6CE870E081ECE7
:1024100092E00E94F30A66E470E080E090E00E949F
:102420006D0368E270E08EEB92E00E94F30A66E4CE
:1024300070E080E090E00E946D036AE570E081EC5E
:1024400092E00E94F30A6CE370E084EC92E00E9458
:10245000F30A64E670E080E090E00E946D030E9461
:102460002901B9C78091E2019091E301019739F404
:102470008AE791E00E94AC010E943704EACF809184
:10248000E0019091E101019739F485E891E00E9423
:10249000AC010E94BB04DDCF8091DE019091DF0191
:1024A000019709F0AFC01F928AE08F933EE1832E1F
:1024B000912CA12CB12C4CE5C42E4FE8D42E42E82F
:1024C000E42E4FE3F42E00E010E02CED34E442E57E
:1024D00050ED64EA74E482EA92E00E94590A0F9097
:1024E0000F9084E10E9456039093090380930803A0
:1024F00085E10E9456038C01A0910803B091090365
:1025000024E630E00E940E1DA30192010E94991C56
:10251000E9012536310514F0C4E6D0E0D093090373
:10252000C093080324E630E0D8010E940E1DA301E9
:1025300092010E94991C2536310514F024E630E002
:1025400030930B0320930A0380910C0390910D03A9
:10255000AC01475F5F4F4C175D0734F042175307DC
:102560001CF00E9429011AC044968C179D0744F460
:10257000821793072CF40E94A7030E94A7030EC0A2
:10258000C9018C1B9D0B45971CF00E94BB0406C023
:10259000C21BD30B659714F00E9437040E94690D8B
:1025A0008091E6019091E701019709F414C78091A9
:1025B000E4019091E501019709F40DC78091E001D4
:1025C0009091E101019709F406C78091E201909191
:1025D000E301019709F4FFC68091DC019091DD01D0
:1025E000019709F4F8C68091DA019091DB01019717
:1025F00009F4F1C68091D8019091D901019709F0B1
:1026000070CFE9C68091DC019091DD01019709F05E
:102610004BC11F928AE08F939EE1892E912CA12CB1
:10262000B12C2AE0C22E27EDD22E23E8E22E2FE392
:10263000F22E0FE115ED22E135E44CE55FEF63EC9E
:1026400074E482EA92E00E94590A0F900F900E946F
:10265000A0022EEA37E44BEE51E46091AC02709197
:10266000AD028091AE029091AF020E94331D20E036
:1026700030E040E05FE30E94C51B6B017C0160938A
:10268000B0027093B1028093B2029093B30264E6F9
:1026900070E080E090E00E946D03C701B6010E94E7
:1026A000A51DEB016B01770FEE08FF08F7FE14C0C4
:1026B000E091ED01F091EE010190F081E02D6DE2ED
:1026C0008DEE91E0099566277727CB016C197D097E
:1026D0008E099F094AE003C04AE0C701B6010E9483
:1026E0006B018FE891E00E94590169970CF0A6C038
:1026F0001F9223E02F9308E0802E912CA12CB12C67
:1027000088EBC82E8EE1D82E85E8E82E8FE3F82ED0
:1027100000E010E02AEF34E440E050E06CE574E4BF
:1027200082EA92E00E94590A68EC70E080E090E052
:102730000E946D030F900F90C6E1D0E01AE0E12EE9
:10274000F12C05E010E020E030E048E451EF66E7CE
:1027500074E482EA92E00E94D007219779F70E9400
:10276000290168EE73E080E090E00E946D030E9412
:1027700037040E9437040E9429010E94A0022EEA19
:1027800037E44BEE51E46091AC027091AD02809160
:10279000AE029091AF020E94331D20E030E040E095
:1027A0005FE30E94C51B6B017C016093B0027093D4
:1027B000B1028093B2029093B30264E670E080E0CD
:1027C00090E00E946D03C701B6010E94A51D6A3109
:1027D0007105B4F11F9288E08F93A4E18A2E912CA9
:1027E000A12CB12CB6E6CB2EDC2CB6E8EB2EBFE349
:1027F000FB2E00E010E42CE135E440E050E86BEB08
:1028000074E482EA92E00E94590A1F9228E02F9312
:10281000C9E18C2E912CA12CB12C00E010E82BEBFF
:1028200034E440E050E36CE175E482EA92E00E9417
:10283000590A0F900F900F900F9002C00E94A703AB
:102840000E94690D8091E6019091E701019709F4DA
:10285000C2C58091E4019091E501019709F4BBC5DF
:102860008091E0019091E101019709F4B4C5809154
:10287000E2019091E301019709F4ADC58091DE0179
:102880009091DF01019709F4A6C58091DA0190913A
:10289000DB01019709F49FC58091D8019091D9017E
:1028A000019709F0D4CE97C58091DA019091DB01B0
:1028B000019709F03FC20E94511B24E030E040E044
:1028C00050E00E94991C6130710509F4CCC00CF0F5
:1028D00048C0672B09F07FC562E370E088EB92E0A7
:1028E0000E94F30A66E970E08EEB92E00E94F30A20
:1028F0006EE670E084EC92E00E94F30A62E370E01E
:102900008AEC92E00E94F30A6AE570E08BEB92E0B9
:102910000E94F30A6AE570E087EC92E00E94F30AF5
:102920006AE570E081EC92E00E94F30A6AE570E0EB
:102930008DEC92E00E94F30A64EF71E080E090E099
:102940000E946D036AE070E08BEB92E00E94F30A54
:1029500064E670E080E090E00E946D0302E010E029
:102960004AC06230710509F407C16330710509F08E
:1029700032C566E470E088EB92E00E94F30A6EE6EE
:1029800070E08EEB92E00E94F30A6EE670E084EC59
:1029900092E00E94F30A66E470E08AEC92E00E9402
:1029A000F30A64E670E080E090E00E946D03CAE5FF
:1029B000D0E05DC1BE018BEB92E00E94F30A64E1BE
:1029C00070E080E090E00E946D032196CC33D10549
:1029D00089F7BE018BEB92E00E94F30A64E170E09C
:1029E00080E090E00E946D03219799F70130110576
:1029F00029F001E010E0C0E0D0E0DCCF64E670E058
:102A000080E090E00E946D036AE070E08BEB92E062
:102A10000E94F30A02E010E0CEE1D0E0BE0188EBB4
:102A200092E00E94F30A64E170E080E090E00E948E
:102A30006D032196C035D10589F7BE0188EB92E080
:102A40000E94F30A64E170E080E090E00E946D0370
:102A50002197CE31D10589F70130110509F4BBC4A6
:102A600001E010E0D9CF6AE570E088EB92E00E94C7
:102A7000F30A6AE570E08EEB92E00E94F30A6AE5E1
:102A800070E084EC92E00E94F30A6AE570E08AEC60
:102A900092E00E94F30A6AE570E08BEB92E00E94FC
:102AA000F30A6AE570E081EC92E00E94F30A6AE5BD
:102AB00070E087EC92E00E94F30A6AE570E08DEC2A
:102AC00092E00E94F30A68EC70E080E090E00E94DF
:102AD0006D03C2E0D0E0FCE3EF2EF12C81010E1972
:102AE0001F09B7018BEB92E00E94F30AB70181EC5A
:102AF00092E00E94F30AB80187EC92E00E94F30A88
:102B0000B8018DEC92E00E94F30A64E170E080E08D
:102B100090E00E946D038FEFE81AF80A28E7E216AA
:102B2000F104E1F681010E191F09B7018BEB92E068
:102B30000E94F30AB70181EC92E00E94F30AB80107
:102B400087EC92E00E94F30AB8018DEC92E00E94BB
:102B5000F30A64E170E080E090E00E946D0381E0A0
:102B6000E81AF1082CE3E216F104E1F6219709F4E2
:102B700032C4C1E0D0E0AFCF66E970E088EB92E00C
:102B80000E94F30A62E870E08BEB92E00E94F30A85
:102B900066E970E08EEB92E00E94F30A62E370E077
:102BA00081EC92E00E94F30A66E970E084EC92E026
:102BB0000E94F30A62E370E087EC92E00E94F30A5D
:102BC00066E970E08AEC92E00E94F30A62E870E045
:102BD0008DEC92E00E94F30A64E670E080E090E001
:102BE0000E946D03C6E9D0E0BE0188EB92E00E942E
:102BF000F30ABE018EEB92E00E94F30ABE0184EC60
:102C000092E00E94F30ABE018AEC92E00E94F30A6D
:102C100064E170E080E090E00E946D032197CE3186
:102C2000D10511F764EF71E080E090E00E946D0340
:102C3000BE0188EB92E00E94F30ABE018EEB92E0A7
:102C40000E94F30ABE0184EC92E00E94F30ABE01E6
:102C50008AEC92E00E94F30A64E170E080E090E088
:102C60000E946D032196C639D10511F7B4C38101C5
:102C70000C1B1D0BB8018BEB92E00E94F30ABE0106
:102C800087EC92E00E94F30ABE0181EC92E00E9480
:102C9000F30AB8018DEC92E00E94F30A64E170E05F
:102CA00080E090E00E946D032196C43BD105F9F6C7
:102CB00066E470E088EB92E00E94F30A6EE670E052
:102CC0008EEB92E00E94F30A6EE670E084EC92E0F4
:102CD0000E94F30A66E470E08AEC92E00E94F30A34
:102CE00064E670E080E090E00E946D03C4EBD0E009
:102CF00081010C1B1D0BB8018BEB92E00E94F30AC3
:102D0000BE0187EC92E00E94F30ABE0181EC92E0E2
:102D10000E94F30AB8018DEC92E00E94F30A64E18C
:102D200070E080E090E00E946D032197CA35D105E4
:102D3000F9F651C38091D8019091D901019709F01A
:102D40004AC382E991E00E94AC018BE991E00E94C4
:102D5000AC010E94511B22E130E040E050E00E94B3
:102D6000991CCB01770FAA0BBB0B8231910508F0A0
:102D700032C3FC01EC5CFF4F0C94081D6EE1E62EA3
:102D8000F12C02E310E020E030E044EA50ED64E290
:102D900074E482EA92E00E94D00779E1E72EF12CF8
:102DA00007E310E020E030E042E550ED64EA74E42F
:102DB00082EA92E00E94D007EAE0EE2EF12C0CE3CA
:102DC00010E020E030E040E050E06CED74E429C019
:102DD0003EE1E32EF12C02E310E020E030E044EA93
:102DE00050ED64E274E482EA92E00E94D00749E187
:102DF000E42EF12C07E310E020E030E040E050E06A
:102E00006CED74E482EA92E00E94D0075AE0E52E6D
:102E1000F12C02E310E020E030E042E550ED64EAFE
:102E200074E482EA92E00E94D007D5C21F92C2E009
:102E3000CF9304E1802E912CA12CB12C8AE0C82ED6
:102E400087EDD82E83E8E82E8FE3F82E0CE51FEFF0
:102E500023EC34E442E550ED64EA74E482EA92E063
:102E60000E94590A6EE170E080E090E00E946D03DC
:102E70001F92CF939AE0892E912CA12CB12C28EB94
:102E8000C22E2EE1D22E25E8E22E2FE3F22E0FE104
:102E900015ED22E135E442E550ED64EA74E4EDC15C
:102EA0001F928AE08F93DEE18D2E912CA12CB12C04
:102EB0001CE5C12E1FE8D12E12E8E12E1FE3F12EF2
:102EC00000E010E02CED34E442E550ED64EA74E4F7
:102ED0007CC21F928AE08F93BEE18B2E912CA12C95
:102EE000B12CCAE0CC2EC7EDDC2EC3E8EC2ECFE32C
:102EF000FC2E0FE115ED22E135E44CE55FEF63ECCC
:102F000074E463C2F4E6EF2EF12C02E310E020E05B
:102F100030E042E550ED64EA74E482EA92E00E9417
:102F2000D007A0E5EA2EF12C02E310E020E030E02B
:102F30004CE55FEF63EC74E482EA92E00E94D00714
:102F4000E12CF12C0CE211E020E030E04FE155EDF6
:102F500062E175E466CF1F92C1E0CF935AE0852EFF
:102F6000912CA12CB12C6CE5C62E6FE8D62E62E810
:102F7000E62E6FE3F62E00E010E626E035E440E0B2
:102F800050E068E474E482EA92E00E94590A1F92D9
:102F9000CF9377E0872E912CA12CB12CEAE0CE2E96
:102FA000E7EDDE2EE3E8EE2EEFE3FE2E00E010E08C
:102FB00028E434E440E050E566E075E45EC11F9229
:102FC00083E08F9338E0832E912CA12CB12C48EB19
:102FD000C42E4EE1D42E45E8E42E4FE3F42E00E05B
:102FE00010E02AEF34E440E050E06CE574E482EA5B
:102FF00092E00E94590A68EC70E080E090E00E9444
:103000006D030F900F90C6E1D0E02AE0E22EF12C84
:1030100005E010E020E030E048E451EF66E774E4BA
:1030200082EA92E00E94D007219779F7D4C11F92DB
:1030300083E08F9388E0882E912CA12CB12C9AE00C
:10304000C92E97EDD92E93E8E92E9FE3F92E00E0E3
:1030500010E82BE335E440E050E06BEE74E482EAE4
:1030600092E00E94590A68EC70E080E090E00E94D3
:103070006D030F900F90C0E1D0E00AE0E02EF12C3C
:103080000AE010E020E030E040E050ED62E874E457
:1030900082EA92E00E94D007219779F79CC11F92A3
:1030A00084E08F93B0E18B2E912CA12CB12CCAE03F
:1030B000CC2EC7EDDC2EC3E8EC2ECFE3FC2E00E0D7
:1030C00010E021E634E440E050E06FE274E482EA8C
:1030D00092E00E94590A1F9287E08F93D2E18D2ED1
:1030E000912CA12CB12C1EEAC12E17E4D12E11E88F
:1030F000E12E1FE3F12E00E010E822E234E440E08C
:1031000050EC60E674E4B9C01F928AE08F937AE0D5
:10311000872E912CA12CB12CE8EBCE2EEEE1DE2EE9
:10312000E5E8EE2EEFE3FE2E00E010E02AEF33E4B8
:1031300040E050E068EC72E482EA92E00E94590AB2
:103140001F9288E08F93F9E18F2E912CA12CB12C46
:10315000A6E6CA2EDC2CA6E8EA2EAFE3FA2E22C0A1
:103160001F92C8E0CF9344E1842E912CA12CB12C66
:1031700056E6C52EDC2C56E8E52E5FE3F52E00E082
:1031800010E42CE135E440E050E86BEB74E482EAB3
:1031900092E00E94590A1F92CF9369E1862E912CEA
:1031A000A12CB12C00E010E82BEB34E440E050E31C
:1031B0006CE175E462C01F9283E08F9398E0892EE2
:1031C000912CA12CB12C26E6C22EDC2C26E8E22E76
:1031D0002FE3F22E00E010E82BEB35E440E050E066
:1031E0006AEF74E482EA92E00E94590A62E370E0B6
:1031F00080E090E00E946D031F9282E08F933DE09B
:10320000832E912CA12CB12C00E010E02AEF34E4A5
:1032100040E058E76BEB75E430C01F92C8E0CF93F5
:103220001FE0812E912CA12CB12C06E6C02EDC2CA7
:1032300006E8E02E0FE3F02E00E010E02AEF34E481
:1032400040E050E86BEB74E482EA92E00E94590A95
:1032500064E670E080E090E00E946D031F92CF93DF
:103260008AE0882E912CA12CB12C00E010E42CE1F6
:1032700035E440E050E86DEE74E482EA92E00E94AA
:10328000590A0F900F900F900F90A5C01F9288ECD5
:103290008F93C4E18C2E912CA12CB12CDCE5CD2E8A
:1032A000DFE8DD2ED2E8ED2EDFE3FD2E00E010E4B6
:1032B00027E234E440E050E06CE574E486C01F92FD
:1032C00082E08F9378E0872E912CA12CB12CEAE03C
:1032D000CE2EE7EDDE2EE3E8EE2EEFE3FE2E00E04D
:1032E00010E824ED34E440E050E06AE774E482EA58
:1032F00092E00E94590A1F9283E08F93F8EBCF2E41
:10330000FEE1DF2EF5E8EF2EFFE3FF2E00E010E0F8
:103310002AEF33E440E050E664ED74E482EA92E0A0
:103320000E94590A1F928AE08F93A9E08A2E912C5D
:10333000A12CB12CB6E6CB2EDC2CB6E8EB2EBFE3ED
:10334000FB2E00E010E824ED34E440E050E06AE7B2
:1033500074E482EA92E00E94590A0F900F900F9055
:103360000F900F900F9037C01F928FE08F9352E015
:10337000852E912CA12CB12C6CE5C62E6FE8D62E93
:1033800062E8E62E6FE3F62E00E010E82BE335E46A
:1033900040E050E068EC74E418C01F9284E18F9321
:1033A00032E0832E912CA12CB12C4CE5C42E4FE899
:1033B000D42E42E8E42E4FE3F42E00E010E82BEB8D
:1033C00035E440E050E06AEF74E482EA92E00E9463
:1033D000590A0F900F900E94EA060C948C10CF931C
:1033E000DF931092F0011092EF0188EE93E0A0E0DD
:1033F000B0E08093F1019093F201A093F301B093B8
:10340000F40189E191E09093EE018093ED0185EC68
:1034100090E09093FA018093F90184EC90E090930E
:10342000FC018093FB0180EC90E09093FE0180937F
:10343000FD0181EC90E0909300028093FF0182EC0B
:1034400090E0909302028093010286EC90E09093CA
:103450000402809303021092060210920702109257
:1034600008021092090280E190E090938B02809311
:103470008A0281E190E090938D0280938C021092F9
:10348000900280E2809391021092920285E08093F4
:10349000980285E090E0A0E0B0E080939E029093D7
:1034A0009F02A093A002B093A1021092930282E027
:1034B00090E09093A3028093A20261E08EE00E94CC
:1034C0001A0360E08FE00E941A038EE090E0909370
:1034D000A5028093A4028FE090E09093A7028093CE
:1034E000A60288EB9BE0A0E0B0E08093A802909356
:1034F000A902A093AA02B093AB0288EB92E00E94CB
:10350000D20B8BEB92E00E94D20B8EEB92E00E94EA
:10351000D20B81EC92E00E94D20B84EC92E00E94EC
:10352000D20B87EC92E00E94D20B8AEC92E00E94D0
:10353000D20B8DEC92E00E94D20BC0E0D0E0CE0125
:1035400080539D4F0E94D20B2396C831D105B9F705
:1035500081E08093E80280EF8093E9028093EA02A1
:103560008093EB028093EC021092ED021092EE0237
:103570001092EF0280E197E2A0E0B0E080930403B4
:1035800090930503A0930603B093070310920E03D4
:103590001092530310925503109256031092580341
:1035A0001092570310928F0380E090E0A4EBB2E4F6
:1035B0008093900390939103A0939203B09393030D
:1035C00080E1E4E9F3E0DF01982F1D929A95E9F795
:1035D0001092A4031092A5031092A6031092A703C1
:1035E0001092A8031092A9031092AA031092AB03A1
:1035F000E5E0F1E0ACEAB3E001900D928A95E1F7E5
:10360000DF91CF9108958F929F92AF92BF92CF9208
:10361000DF92EF92FF92CF93DF93EC016881798183
:103620008A819B81611571058105910521F464E210
:1036300079ED8BE597E02DE133EF41E050E00E941A
:10364000991C49015A019B01AC01A7EAB1E40E940F
:10365000B81C6B017C01ACEEB4EFA50194010E9493
:10366000C61CDC01CB018C0D9D1DAE1DBF1DB7FF1F
:1036700003C00197A109B04888839983AA83BB83BB
:10368000BC01CD019F77DF91CF91FF90EF90DF904C
:10369000CF90BF90AF909F908F9008950E94031B92
:1036A000089581E091E00E94031B08956093010159
:1036B00070930201809303019093040108950E9486
:1036C000A11B08F481E00895E89409C097FB3EF43B
:1036D00090958095709561957F4F8F4F9F4F99235F
:1036E000A9F0F92F96E9BB279395F69587957795DD
:1036F0006795B795F111F8CFFAF4BB0F11F460FF9D
:103700001BC06F5F7F4F8F4F9F4F16C0882311F0F4
:1037100096E911C0772321F09EE8872F762F05C008
:10372000662371F096E8862F70E060E02AF09A95A3
:10373000660F771F881FDAF7880F9695879597F998
:103740000895990F0008550FAA0BE0E8FEEF161632
:103750001706E807F907C0F012161306E407F50785
:1037600098F0621B730B840B950B39F40A2661F0F9
:10377000232B242B252B21F408950A2609F4A1409C
:10378000A6958FEF811D811D08950E94D81B0C9472
:10379000491C0E943B1C38F00E94421C20F09523DB
:1037A00011F00C94321C0C94381C11240C947D1CC8
:1037B0000E945A1C70F3959FC1F3950F50E0551F5E
:1037C000629FF001729FBB27F00DB11D639FAA2776
:1037D000F00DB11DAA1F649F6627B00DA11D661FC5
:1037E000829F2227B00DA11D621F739FB00DA11DE6
:1037F000621F839FA00D611D221F749F3327A00DA0
:10380000611D231F849F600D211D822F762F6A2F3B
:1038100011249F5750409AF0F1F088234AF0EE0FA0
:10382000FF1FBB1F661F771F881F91505040A9F7CD
:103830009E3F510580F00C94321C0C947D1C5F3F20
:10384000E4F3983ED4F3869577956795B795F79509
:10385000E7959F5FC1F7FE2B880F911D9695879581
:1038600097F9089597F99F6780E870E060E0089500
:103870009FEF80EC089500240A9416161706180688
:103880000906089500240A94121613061406050664
:103890000895092E0394000C11F4882352F0BB0FF5
:1038A00040F4BF2B11F460FF04C06F5F7F4F8F4F58
:1038B0009F4F089557FD9058440F551F59F05F3F93
:1038C00071F04795880F97FB991F61F09F3F79F042
:1038D00087950895121613061406551FF2CF4695C4
:1038E000F1DF08C0161617061806991FF1CF869546
:1038F0007105610508940895E894BB27662777272A
:10390000CB0197F90895F999FECF92BD81BDF89A40
:10391000992780B50895262FF999FECF1FBA92BD39
:1039200081BD20BD0FB6F894FA9AF99A0FBE0196A0
:103930000895052E97FB1EF400940E94B01C57FDBD
:1039400007D00E94CB1C07FC03D04EF40C94B01C93
:1039500050954095309521953F4F4F4F5F4F0895BB
:1039600090958095709561957F4F8F4F9F4F0895EB
:103970000E94ED1CA59F900DB49F900DA49F800DFB
:10398000911D11240895B7FF0C94B81C0E94B81C17
:10399000821B930B0895A1E21A2EAA1BBB1BFD01EB
:1039A0000DC0AA1FBB1FEE1FFF1FA217B307E4071E
:1039B000F50720F0A21BB30BE40BF50B661F771F76
:1039C000881F991F1A9469F7609570958095909556
:1039D0009B01AC01BD01CF010895A29FB001B39F2F
:1039E000C001A39F700D811D1124911DB29F700D08
:1039F000811D1124911D0895991B79E004C0991F20
:103A0000961708F0961B881F7A95C9F78095089538
:103A1000EE0FFF1F0590F491E02D09940E94ED1C1C
:103A2000B7FF0895821B930B089597FB10F8169427
:103A300000080F93083098F00850232F342F452F9B
:103A4000562F672F782F892F902DF4CF05949795B7
:103A500087957795679557954795379527950A9553
:103A6000AAF70F9108950E94471D0C94491C0E94CB
:103A7000421C58F00E943B1C40F029F45F3F29F0A3
:103A80000C94321C51110C947D1C0C94381C0E9417
:103A90005A1C68F39923B1F3552391F3951B550BE9
:103AA000BB27AA2762177307840738F09F5F5F4F11
:103AB000220F331F441FAA1FA9F335D00E2E3AF050
:103AC000E0E832D091505040E695001CCAF72BD068
:103AD000FE2F29D0660F771F881FBB1F26173707B9
:103AE0004807AB07B0E809F0BB0B802DBF01FF27EB
:103AF00093585F4F3AF09E3F510578F00C94321C7A
:103B00000C947D1C5F3FE4F3983ED4F38695779543
:103B10006795B795F7959F5FC9F7880F911D9695A3
:103B2000879597F90895E1E0660F771F881FBB1FFF
:103B3000621773078407BA0720F0621B730B840BAC
:103B4000BA0BEE1F88F7E09508950E94AC1D6894AB
:103B5000B1110C947D1C08950E94621C88F09F573F
:103B600098F0B92F9927B751B0F0E1F0660F771FA1
:103B7000881F991F1AF0BA95C9F714C0B13091F097
:103B80000E947C1CB1E008950C947C1C672F782F58
:103B90008827B85F39F0B93FCCF38695779567955C
:103BA000B395D9F73EF490958095709561957F4FC8
:103BB0008F4F9F4F08950E94A11B08F48FEF089527
:0E3BC00081E090E0F8940C94E51DF894FFCF9E
:103BCE00FF010000000E000F001000110012001384
:103BDE000014001500000000008106EA051906C851
:103BEE00064A0628063C06536574204164647265D5
:103BFE00737300576169742035732E2E2E00526533
:103C0E0061647920746F2072656365697665206ED4
:103C1E00657720616464726573732E2E2E0054686E
:103C2E0065206164647265737320646F65736E27BB
:103C3E0074206368616E67652E005475726E207213
:103C4E0069676874005475726E206C656674000D39
:103C5E000A0020425A203D2031200053696E672011
:103C6E00736F6E670053657420616464726573735D
:103C7E0020646F6E652E00416464726573733A2022
:103C8E0000526561647920746F2072656365697690
:083C9E006520646174610000FF
:00000001FF
